{
  "contractName": "AxelarExecutable",
  "abi": [
    {
      "inputs": [
        {
          "internalType": "address",
          "name": "gateway_",
          "type": "address"
        }
      ],
      "stateMutability": "nonpayable",
      "type": "constructor"
    },
    {
      "inputs": [],
      "name": "InvalidAddress",
      "type": "error"
    },
    {
      "inputs": [],
      "name": "NotApprovedByGateway",
      "type": "error"
    },
    {
      "inputs": [],
      "name": "gateway",
      "outputs": [
        {
          "internalType": "contract IAxelarGateway",
          "name": "",
          "type": "address"
        }
      ],
      "stateMutability": "view",
      "type": "function"
    },
    {
      "inputs": [
        {
          "internalType": "bytes32",
          "name": "commandId",
          "type": "bytes32"
        },
        {
          "internalType": "string",
          "name": "sourceChain",
          "type": "string"
        },
        {
          "internalType": "string",
          "name": "sourceAddress",
          "type": "string"
        },
        {
          "internalType": "bytes",
          "name": "payload",
          "type": "bytes"
        }
      ],
      "name": "execute",
      "outputs": [],
      "stateMutability": "nonpayable",
      "type": "function"
    },
    {
      "inputs": [
        {
          "internalType": "bytes32",
          "name": "commandId",
          "type": "bytes32"
        },
        {
          "internalType": "string",
          "name": "sourceChain",
          "type": "string"
        },
        {
          "internalType": "string",
          "name": "sourceAddress",
          "type": "string"
        },
        {
          "internalType": "bytes",
          "name": "payload",
          "type": "bytes"
        },
        {
          "internalType": "string",
          "name": "tokenSymbol",
          "type": "string"
        },
        {
          "internalType": "uint256",
          "name": "amount",
          "type": "uint256"
        }
      ],
      "name": "executeWithToken",
      "outputs": [],
      "stateMutability": "nonpayable",
      "type": "function"
    }
  ],
  "bytecode": "0x60a060405234801561001057600080fd5b5060405161068538038061068583398101604081905261002f91610067565b6001600160a01b0381166100565760405163e6c4247b60e01b815260040160405180910390fd5b6001600160a01b0316608052610097565b60006020828403121561007957600080fd5b81516001600160a01b038116811461009057600080fd5b9392505050565b6080516105c66100bf60003960008181604b01528181610115015261021e01526105c66000f3fe608060405234801561001057600080fd5b50600436106100415760003560e01c8063116191b6146100465780631a98b2e01461009657806349160658146100ab575b600080fd5b61006d7f000000000000000000000000000000000000000000000000000000000000000081565b60405173ffffffffffffffffffffffffffffffffffffffff909116815260200160405180910390f35b6100a96100a4366004610310565b6100be565b005b6100a96100b93660046103ea565b6101c7565b600085856040516100d092919061048e565b6040519081900381207f1876eed9000000000000000000000000000000000000000000000000000000008252915073ffffffffffffffffffffffffffffffffffffffff7f00000000000000000000000000000000000000000000000000000000000000001690631876eed99061015a908e908e908e908e908e9089908d908d908d906004016104c7565b6020604051808303816000875af1158015610179573d6000803e3d6000fd5b505050506040513d601f19601f8201168201806040525081019061019d9190610526565b6101ba57604051631403112d60e21b815260040160405180910390fd5b5050505050505050505050565b600082826040516101d992919061048e565b6040519081900381207f5f6970c3000000000000000000000000000000000000000000000000000000008252915073ffffffffffffffffffffffffffffffffffffffff7f00000000000000000000000000000000000000000000000000000000000000001690635f6970c39061025d908b908b908b908b908b90899060040161054f565b6020604051808303816000875af115801561027c573d6000803e3d6000fd5b505050506040513d601f19601f820116820180604052508101906102a09190610526565b6102bd57604051631403112d60e21b815260040160405180910390fd5b5050505050505050565b60008083601f8401126102d957600080fd5b50813567ffffffffffffffff8111156102f157600080fd5b60208301915083602082850101111561030957600080fd5b9250929050565b60008060008060008060008060008060c08b8d03121561032f57600080fd5b8a35995060208b013567ffffffffffffffff8082111561034e57600080fd5b61035a8e838f016102c7565b909b50995060408d013591508082111561037357600080fd5b61037f8e838f016102c7565b909950975060608d013591508082111561039857600080fd5b6103a48e838f016102c7565b909750955060808d01359150808211156103bd57600080fd5b506103ca8d828e016102c7565b9150809450508092505060a08b013590509295989b9194979a5092959850565b60008060008060008060006080888a03121561040557600080fd5b87359650602088013567ffffffffffffffff8082111561042457600080fd5b6104308b838c016102c7565b909850965060408a013591508082111561044957600080fd5b6104558b838c016102c7565b909650945060608a013591508082111561046e57600080fd5b5061047b8a828b016102c7565b989b979a50959850939692959293505050565b8183823760009101908152919050565b81835281816020850137506000828201602090810191909152601f909101601f19169091010190565b89815260c0602082015260006104e160c083018a8c61049e565b82810360408401526104f481898b61049e565b9050866060840152828103608084015261050f81868861049e565b9150508260a08301529a9950505050505050505050565b60006020828403121561053857600080fd5b8151801515811461054857600080fd5b9392505050565b86815260806020820152600061056960808301878961049e565b828103604084015261057c81868861049e565b91505082606083015297965050505050505056fea2646970667358221220efc39a4388e4f6298fab7806cd349d6f297ef28aeba379b6584f093a25a9887864736f6c63430008100033",
  "immutableReferences": {
    "241": [
      {
        "length": 32,
        "start": 75
      },
      {
        "length": 32,
        "start": 277
      },
      {
        "length": 32,
        "start": 542
      }
    ]
  },
  "source": "// SPDX-License-Identifier: MIT\n\npragma solidity ^0.8.0;\n\nimport { IAxelarGateway } from '../interfaces/IAxelarGateway.sol';\nimport { IAxelarExecutable } from '../interfaces/IAxelarExecutable.sol';\n\ncontract AxelarExecutable is IAxelarExecutable {\n    IAxelarGateway public immutable gateway;\n\n    constructor(address gateway_) {\n        if (gateway_ == address(0)) revert InvalidAddress();\n\n        gateway = IAxelarGateway(gateway_);\n    }\n\n    function execute(\n        bytes32 commandId,\n        string calldata sourceChain,\n        string calldata sourceAddress,\n        bytes calldata payload\n    ) external override {\n        bytes32 payloadHash = keccak256(payload);\n        if (!gateway.validateContractCall(commandId, sourceChain, sourceAddress, payloadHash))\n            revert NotApprovedByGateway();\n        _execute(sourceChain, sourceAddress, payload);\n    }\n\n    function executeWithToken(\n        bytes32 commandId,\n        string calldata sourceChain,\n        string calldata sourceAddress,\n        bytes calldata payload,\n        string calldata tokenSymbol,\n        uint256 amount\n    ) external override {\n        bytes32 payloadHash = keccak256(payload);\n        if (\n            !gateway.validateContractCallAndMint(\n                commandId,\n                sourceChain,\n                sourceAddress,\n                payloadHash,\n                tokenSymbol,\n                amount\n            )\n        ) revert NotApprovedByGateway();\n\n        _executeWithToken(sourceChain, sourceAddress, payload, tokenSymbol, amount);\n    }\n\n    function _execute(\n        string calldata sourceChain,\n        string calldata sourceAddress,\n        bytes calldata payload\n    ) internal virtual {}\n\n    function _executeWithToken(\n        string calldata sourceChain,\n        string calldata sourceAddress,\n        bytes calldata payload,\n        string calldata tokenSymbol,\n        uint256 amount\n    ) internal virtual {}\n}\n",
  "sourcePath": "@axelar-network\\axelar-gmp-sdk-solidity\\contracts\\executables\\AxelarExecutable.sol",
  "compiler": {
    "name": "solc",
    "version": "0.8.16+commit.07a7930e.Emscripten.clang"
  },
  "schemaVersion": "3.4.10",
  "updatedAt": "2022-11-09T23:14:30.806Z",
  "devdoc": {
    "kind": "dev",
    "methods": {},
    "version": 1
  },
  "userdoc": {
    "kind": "user",
    "methods": {},
    "version": 1
  }
}