{
  "contractName": "Base64",
  "abi": [
    {
      "inputs": [
        {
          "internalType": "bytes",
          "name": "data",
          "type": "bytes"
        }
      ],
      "name": "base64",
      "outputs": [
        {
          "internalType": "string",
          "name": "",
          "type": "string"
        }
      ],
      "stateMutability": "pure",
      "type": "function"
    }
  ],
  "bytecode": "0x6103fc61003a600b82828239805160001a60731461002d57634e487b7160e01b600052600060045260246000fd5b30600052607381538281f3fe73000000000000000000000000000000000000000030146080604052600436106100355760003560e01c8063daa68c211461003a575b600080fd5b61004d610048366004610217565b610063565b60405161005a91906102c8565b60405180910390f35b6060815160000361008257505060408051602081019091526000815290565b600060405180606001604052806040815260200161038760409139905060006003845160026100b1919061032c565b6100bb9190610345565b6100c6906004610367565b905060006100d582602061032c565b67ffffffffffffffff8111156100ed576100ed610201565b6040519080825280601f01601f191660200182016040528015610117576020820181803683370190505b509050818152600183018586518101602084015b818310156101855760039283018051603f601282901c811687015160f890811b8552600c83901c8216880151811b6001860152600683901c8216880151811b60028601529116860151901b9382019390935260040161012b565b60038951066001811461019f57600281146101cb576101f3565b7f3d3d0000000000000000000000000000000000000000000000000000000000006001198301526101f3565b7f3d000000000000000000000000000000000000000000000000000000000000006000198301525b509398975050505050505050565b634e487b7160e01b600052604160045260246000fd5b60006020828403121561022957600080fd5b813567ffffffffffffffff8082111561024157600080fd5b818401915084601f83011261025557600080fd5b81358181111561026757610267610201565b604051601f8201601f19908116603f0116810190838211818310171561028f5761028f610201565b816040528281528760208487010111156102a857600080fd5b826020860160208301376000928101602001929092525095945050505050565b600060208083528351808285015260005b818110156102f5578581018301518582016040015282016102d9565b506000604082860101526040601f19601f8301168501019250505092915050565b634e487b7160e01b600052601160045260246000fd5b8082018082111561033f5761033f610316565b92915050565b60008261036257634e487b7160e01b600052601260045260246000fd5b500490565b600081600019048311821515161561038157610381610316565b50029056fe4142434445464748494a4b4c4d4e4f505152535455565758595a6162636465666768696a6b6c6d6e6f707172737475767778797a303132333435363738392b2fa2646970667358221220fddb334a97d9fb3776d72b0758902f74b48a1f3bac16a727f705689d05db3f4864736f6c63430008100033",
  "immutableReferences": {},
  "source": "// SPDX-License-Identifier: GPL-3.0\npragma solidity >=0.7.0 <0.9.0;\n\nlibrary Base64 {\n\n    string internal constant TABLE = \"ABCDEFGHIJKLMNOPQRSTUVWXYZabcdefghijklmnopqrstuvwxyz0123456789+/\";\n\n    function base64(bytes memory data) public pure returns (string memory) {\n        if (data.length == 0) return \"\";\n\n        // load the table into memory\n        string memory table = TABLE;\n\n        // multiply by 4/3 rounded up\n        uint256 encodedLen = 4 * ((data.length + 2) / 3);\n\n        // add some extra buffer at the end required for the writing\n        string memory result = new string(encodedLen + 32);\n\n        assembly {\n            // set the actual output length\n            mstore(result, encodedLen)\n\n            // prepare the lookup table\n            let tablePtr := add(table, 1)\n\n            // input ptr\n            let dataPtr := data\n            let endPtr := add(dataPtr, mload(data))\n\n            // result ptr, jump over length\n            let resultPtr := add(result, 32)\n\n            // run over the input, 3 bytes at a time\n            for {} lt(dataPtr, endPtr) {}\n            {\n                dataPtr := add(dataPtr, 3)\n\n                // read 3 bytes\n                let input := mload(dataPtr)\n\n                // write 4 characters\n                mstore(resultPtr, shl(248, mload(add(tablePtr, and(shr(18, input), 0x3F)))))\n                resultPtr := add(resultPtr, 1)\n                mstore(resultPtr, shl(248, mload(add(tablePtr, and(shr(12, input), 0x3F)))))\n                resultPtr := add(resultPtr, 1)\n                mstore(resultPtr, shl(248, mload(add(tablePtr, and(shr( 6, input), 0x3F)))))\n                resultPtr := add(resultPtr, 1)\n                mstore(resultPtr, shl(248, mload(add(tablePtr, and(        input,  0x3F)))))\n                resultPtr := add(resultPtr, 1)\n            }\n\n            // padding with '='\n            switch mod(mload(data), 3)\n            case 1 { mstore(sub(resultPtr, 2), shl(240, 0x3d3d)) }\n            case 2 { mstore(sub(resultPtr, 1), shl(248, 0x3d)) }\n        }\n\n        return result;\n    }\n}\n",
  "sourcePath": "C:\\Users\\Arogundade Ibrahim\\Documents\\web3\\Buidl\\contracts\\base\\Base64.sol",
  "compiler": {
    "name": "solc",
    "version": "0.8.16+commit.07a7930e.Emscripten.clang"
  },
  "schemaVersion": "3.4.10",
  "updatedAt": "2022-11-11T04:27:15.635Z",
  "devdoc": {
    "kind": "dev",
    "methods": {},
    "version": 1
  },
  "userdoc": {
    "kind": "user",
    "methods": {},
    "version": 1
  }
}