{
  "contractName": "BdlCertificate",
  "abi": [
    {
      "inputs": [
        {
          "internalType": "string",
          "name": "name",
          "type": "string"
        },
        {
          "internalType": "string",
          "name": "symbol",
          "type": "string"
        },
        {
          "internalType": "string",
          "name": "version",
          "type": "string"
        }
      ],
      "stateMutability": "nonpayable",
      "type": "constructor"
    },
    {
      "anonymous": false,
      "inputs": [
        {
          "indexed": true,
          "internalType": "address",
          "name": "from",
          "type": "address"
        },
        {
          "indexed": true,
          "internalType": "address",
          "name": "to",
          "type": "address"
        },
        {
          "indexed": true,
          "internalType": "uint256",
          "name": "tokenId",
          "type": "uint256"
        }
      ],
      "name": "Transfer",
      "type": "event"
    },
    {
      "inputs": [
        {
          "internalType": "address",
          "name": "owner",
          "type": "address"
        }
      ],
      "name": "balanceOf",
      "outputs": [
        {
          "internalType": "uint256",
          "name": "",
          "type": "uint256"
        }
      ],
      "stateMutability": "view",
      "type": "function"
    },
    {
      "inputs": [
        {
          "internalType": "address",
          "name": "to",
          "type": "address"
        },
        {
          "internalType": "string",
          "name": "uri",
          "type": "string"
        },
        {
          "internalType": "bytes",
          "name": "signature",
          "type": "bytes"
        }
      ],
      "name": "give",
      "outputs": [
        {
          "internalType": "uint256",
          "name": "",
          "type": "uint256"
        }
      ],
      "stateMutability": "nonpayable",
      "type": "function"
    },
    {
      "inputs": [],
      "name": "name",
      "outputs": [
        {
          "internalType": "string",
          "name": "",
          "type": "string"
        }
      ],
      "stateMutability": "view",
      "type": "function"
    },
    {
      "inputs": [
        {
          "internalType": "uint256",
          "name": "tokenId",
          "type": "uint256"
        }
      ],
      "name": "ownerOf",
      "outputs": [
        {
          "internalType": "address",
          "name": "",
          "type": "address"
        }
      ],
      "stateMutability": "view",
      "type": "function"
    },
    {
      "inputs": [
        {
          "internalType": "bytes4",
          "name": "interfaceId",
          "type": "bytes4"
        }
      ],
      "name": "supportsInterface",
      "outputs": [
        {
          "internalType": "bool",
          "name": "",
          "type": "bool"
        }
      ],
      "stateMutability": "view",
      "type": "function"
    },
    {
      "inputs": [],
      "name": "symbol",
      "outputs": [
        {
          "internalType": "string",
          "name": "",
          "type": "string"
        }
      ],
      "stateMutability": "view",
      "type": "function"
    },
    {
      "inputs": [
        {
          "internalType": "address",
          "name": "from",
          "type": "address"
        },
        {
          "internalType": "string",
          "name": "uri",
          "type": "string"
        },
        {
          "internalType": "bytes",
          "name": "signature",
          "type": "bytes"
        }
      ],
      "name": "take",
      "outputs": [
        {
          "internalType": "uint256",
          "name": "",
          "type": "uint256"
        }
      ],
      "stateMutability": "nonpayable",
      "type": "function"
    },
    {
      "inputs": [
        {
          "internalType": "uint256",
          "name": "tokenId",
          "type": "uint256"
        }
      ],
      "name": "tokenURI",
      "outputs": [
        {
          "internalType": "string",
          "name": "",
          "type": "string"
        }
      ],
      "stateMutability": "view",
      "type": "function"
    },
    {
      "inputs": [
        {
          "internalType": "uint256",
          "name": "tokenId",
          "type": "uint256"
        }
      ],
      "name": "unequip",
      "outputs": [],
      "stateMutability": "nonpayable",
      "type": "function"
    },
    {
      "inputs": [
        {
          "internalType": "address",
          "name": "from",
          "type": "address"
        },
        {
          "internalType": "address",
          "name": "to",
          "type": "address"
        },
        {
          "internalType": "string",
          "name": "tokenURI",
          "type": "string"
        }
      ],
      "name": "getHash",
      "outputs": [
        {
          "internalType": "bytes32",
          "name": "",
          "type": "bytes32"
        }
      ],
      "stateMutability": "view",
      "type": "function"
    },
    {
      "inputs": [
        {
          "internalType": "address",
          "name": "from",
          "type": "address"
        },
        {
          "internalType": "address",
          "name": "to",
          "type": "address"
        },
        {
          "internalType": "uint256",
          "name": "tokenId",
          "type": "uint256"
        },
        {
          "internalType": "string",
          "name": "uri",
          "type": "string"
        }
      ],
      "name": "mint",
      "outputs": [
        {
          "internalType": "uint256",
          "name": "",
          "type": "uint256"
        }
      ],
      "stateMutability": "nonpayable",
      "type": "function"
    }
  ],
  "bytecode": "0x6101406040523480156200001257600080fd5b5060405162001899380380620018998339810160408190526200003591620001b6565b825160208085019190912082518383012060e08290526101008190524660a0818152604080517f8b73c3c69bb8fe3d512ecc4cf759cc79239f7b179b0ffacaa9a75d522b39400f818801819052818301969096526060810194909452608080850193909352308483018190528151808603909301835260c094850190915281519190950120905291909152610120528282826001620000d58482620002d6565b506002620000e48382620002d6565b50505050505050620003a2565b634e487b7160e01b600052604160045260246000fd5b600082601f8301126200011957600080fd5b81516001600160401b0380821115620001365762000136620000f1565b604051601f8301601f19908116603f01168101908282118183101715620001615762000161620000f1565b816040528381526020925086838588010111156200017e57600080fd5b600091505b83821015620001a2578582018301518183018401529082019062000183565b600093810190920192909252949350505050565b600080600060608486031215620001cc57600080fd5b83516001600160401b0380821115620001e457600080fd5b620001f28783880162000107565b945060208601519150808211156200020957600080fd5b620002178783880162000107565b935060408601519150808211156200022e57600080fd5b506200023d8682870162000107565b9150509250925092565b600181811c908216806200025c57607f821691505b6020821081036200027d57634e487b7160e01b600052602260045260246000fd5b50919050565b601f821115620002d157600081815260208120601f850160051c81016020861015620002ac5750805b601f850160051c820191505b81811015620002cd57828155600101620002b8565b5050505b505050565b81516001600160401b03811115620002f257620002f2620000f1565b6200030a8162000303845462000247565b8462000283565b602080601f831160018114620003425760008415620003295750858301515b600019600386901b1c1916600185901b178555620002cd565b600085815260208120601f198616915b82811015620003735788860151825594840194600190910190840162000352565b5085821015620003925787850151600019600388901b60f8161c191681555b5050505050600190811b01905550565b60805160a05160c05160e05161010051610120516114a7620003f26000396000610e2301526000610e7201526000610e4d01526000610da601526000610dd001526000610dfa01526114a76000f3fe608060405234801561001057600080fd5b50600436106100c95760003560e01c8063a394780311610081578063c87b56dd1161005b578063c87b56dd14610198578063d179e3d0146101ab578063ec64948e146101c057600080fd5b8063a39478031461015f578063b85cbc7914610172578063c5cf33c21461018557600080fd5b80636352211e116100b25780636352211e1461010b57806370a082311461013657806395d89b411461015757600080fd5b806301ffc9a7146100ce57806306fdde03146100f6575b600080fd5b6100e16100dc366004610ffb565b6101d3565b60405190151581526020015b60405180910390f35b6100fe610270565b6040516100ed9190611075565b61011e610119366004611088565b610302565b6040516001600160a01b0390911681526020016100ed565b6101496101443660046110bd565b61036c565b6040519081526020016100ed565b6100fe610406565b61014961016d36600461111a565b610415565b61014961018036600461119b565b6104ee565b6101496101933660046111f9565b610532565b6100fe6101a6366004611088565b610549565b6101be6101b9366004611088565b61064e565b005b6101496101ce36600461111a565b6106e3565b60006001600160e01b031982167f5b5e139f00000000000000000000000000000000000000000000000000000000148061023657506001600160e01b031982167f8d7bac7200000000000000000000000000000000000000000000000000000000145b8061026a57507f01ffc9a7000000000000000000000000000000000000000000000000000000006001600160e01b03198316145b92915050565b60606001805461027f9061125a565b80601f01602080910402602001604051908101604052809291908181526020018280546102ab9061125a565b80156102f85780601f106102cd576101008083540402835291602001916102f8565b820191906000526020600020905b8154815290600101906020018083116102db57829003601f168201915b5050505050905090565b6000818152600360205260408120546001600160a01b03168061026a5760405162461bcd60e51b815260206004820152601c60248201527f6f776e65724f663a20746f6b656e20646f65736e27742065786973740000000060448201526064015b60405180910390fd5b60006001600160a01b0382166103ea5760405162461bcd60e51b815260206004820152602c60248201527f62616c616e63654f663a2061646472657373207a65726f206973206e6f74206160448201527f2076616c6964206f776e657200000000000000000000000000000000000000006064820152608401610363565b506001600160a01b031660009081526005602052604090205490565b60606002805461027f9061125a565b60006001600160a01b038616330361046f5760405162461bcd60e51b815260206004820152601b60248201527f74616b653a2063616e6e6f742074616b652066726f6d2073656c6600000000006044820152606401610363565b600061047f338888888888610791565b90506104c387338389898080601f0160208091040260200160405190810160405280939291908181526020018383808284376000920191909152506108f892505050565b50600881901c60009081526020819052604090208054600160ff84161b1790555b9695505050505050565b60006104e486868686868080601f0160208091040260200160405190810160405280939291908181526020018383808284376000920191909152506108f892505050565b600061054085858585610a29565b95945050505050565b6000818152600360205260409020546060906001600160a01b03166105b05760405162461bcd60e51b815260206004820152601d60248201527f746f6b656e5552493a20746f6b656e20646f65736e27742065786973740000006044820152606401610363565b600082815260046020526040902080546105c99061125a565b80601f01602080910402602001604051908101604052809291908181526020018280546105f59061125a565b80156106425780601f1061061757610100808354040283529160200191610642565b820191906000526020600020905b81548152906001019060200180831161062557829003601f168201915b50505050509050919050565b61065781610302565b6001600160a01b0316336001600160a01b0316146106b75760405162461bcd60e51b815260206004820152601d60248201527f756e65717569703a2073656e646572206d757374206265206f776e65720000006044820152606401610363565b600881901c60009081526020819052604090208054600160ff84161b191690556106e081610ab8565b50565b60006001600160a01b038616330361073d5760405162461bcd60e51b815260206004820152601b60248201527f676976653a2063616e6e6f7420676976652066726f6d2073656c6600000000006044820152606401610363565b600061074d338888888888610791565b90506104c333888389898080601f0160208091040260200160405190810160405280939291908181526020018383808284376000920191909152506108f892505050565b6000806107a088888888610a29565b905060008160001c90506107eb888387878080601f016020809104026020016040519081016040528093929190818152602001838380828437600092019190915250610b7992505050565b61085d5760405162461bcd60e51b815260206004820152602660248201527f5f73616665436865636b41677265656d656e743a20696e76616c69642073696760448201527f6e617475726500000000000000000000000000000000000000000000000000006064820152608401610363565b600881901c600090815260208190526040902054600160ff83161b16156108ec5760405162461bcd60e51b815260206004820152602160248201527f5f73616665436865636b41677265656d656e743a20616c72656164792075736560448201527f64000000000000000000000000000000000000000000000000000000000000006064820152608401610363565b98975050505050505050565b6000828152600360205260408120546001600160a01b03161561095d5760405162461bcd60e51b815260206004820152601460248201527f6d696e743a20746f6b656e4944206578697374730000000000000000000000006044820152606401610363565b6001600160a01b03841660009081526005602052604081208054600192906109869084906112aa565b9091555050600083815260036020908152604080832080547fffffffffffffffffffffffff0000000000000000000000000000000000000000166001600160a01b038916179055600490915290206109de8382611322565b5082846001600160a01b0316866001600160a01b03167fddf252ad1be2c89b69c2b068fc378daa952ba7f163c4a11628f55a4df523b3ef60405160405180910390a450909392505050565b6000807fe76a195fbe43f0eaa611595069f780493db2202a1cc4b2d7d44b47069812998a86868686604051610a5f9291906113e2565b604051908190038120610a97949392916020019384526001600160a01b03928316602085015291166040830152606082015260800190565b6040516020818303038152906040528051906020012090506104e481610ceb565b6000610ac382610302565b6001600160a01b03811660009081526005602052604081208054929350600192909190610af19084906113f2565b9091555050600082815260036020908152604080832080547fffffffffffffffffffffffff000000000000000000000000000000000000000016905560049091528120610b3d91610fad565b60405182906000906001600160a01b038416907fddf252ad1be2c89b69c2b068fc378daa952ba7f163c4a11628f55a4df523b3ef908390a45050565b6000806000610b888585610d54565b90925090506000816004811115610ba157610ba1611405565b148015610bbf5750856001600160a01b0316826001600160a01b0316145b15610bcf57600192505050610ce4565b600080876001600160a01b0316631626ba7e60e01b8888604051602401610bf792919061141b565b60408051601f198184030181529181526020820180517bffffffffffffffffffffffffffffffffffffffffffffffffffffffff166001600160e01b0319909416939093179092529051610c4a919061143c565b600060405180830381855afa9150503d8060008114610c85576040519150601f19603f3d011682016040523d82523d6000602084013e610c8a565b606091505b5091509150818015610c9d575080516020145b8015610cdd575080517f1626ba7e0000000000000000000000000000000000000000000000000000000090610cdb9083016020908101908401611458565b145b9450505050505b9392505050565b600061026a610cf8610d99565b836040517f19010000000000000000000000000000000000000000000000000000000000006020820152602281018390526042810182905260009060620160405160208183030381529060405280519060200120905092915050565b6000808251604103610d8a5760208301516040840151606085015160001a610d7e87828585610ec0565b94509450505050610d92565b506000905060025b9250929050565b6000306001600160a01b037f000000000000000000000000000000000000000000000000000000000000000016148015610df257507f000000000000000000000000000000000000000000000000000000000000000046145b15610e1c57507f000000000000000000000000000000000000000000000000000000000000000090565b50604080517f00000000000000000000000000000000000000000000000000000000000000006020808301919091527f0000000000000000000000000000000000000000000000000000000000000000828401527f000000000000000000000000000000000000000000000000000000000000000060608301524660808301523060a0808401919091528351808403909101815260c0909201909252805191012090565b6000807f7fffffffffffffffffffffffffffffff5d576e7357a4501ddfe92f46681b20a0831115610ef75750600090506003610fa4565b8460ff16601b14158015610f0f57508460ff16601c14155b15610f205750600090506004610fa4565b6040805160008082526020820180845289905260ff881692820192909252606081018690526080810185905260019060a0016020604051602081039080840390855afa158015610f74573d6000803e3d6000fd5b5050604051601f1901519150506001600160a01b038116610f9d57600060019250925050610fa4565b9150600090505b94509492505050565b508054610fb99061125a565b6000825580601f10610fc9575050565b601f0160209004906000526020600020908101906106e091905b80821115610ff75760008155600101610fe3565b5090565b60006020828403121561100d57600080fd5b81356001600160e01b031981168114610ce457600080fd5b60005b83811015611040578181015183820152602001611028565b50506000910152565b60008151808452611061816020860160208601611025565b601f01601f19169290920160200192915050565b602081526000610ce46020830184611049565b60006020828403121561109a57600080fd5b5035919050565b80356001600160a01b03811681146110b857600080fd5b919050565b6000602082840312156110cf57600080fd5b610ce4826110a1565b60008083601f8401126110ea57600080fd5b50813567ffffffffffffffff81111561110257600080fd5b602083019150836020828501011115610d9257600080fd5b60008060008060006060868803121561113257600080fd5b61113b866110a1565b9450602086013567ffffffffffffffff8082111561115857600080fd5b61116489838a016110d8565b9096509450604088013591508082111561117d57600080fd5b5061118a888289016110d8565b969995985093965092949392505050565b6000806000806000608086880312156111b357600080fd5b6111bc866110a1565b94506111ca602087016110a1565b935060408601359250606086013567ffffffffffffffff8111156111ed57600080fd5b61118a888289016110d8565b6000806000806060858703121561120f57600080fd5b611218856110a1565b9350611226602086016110a1565b9250604085013567ffffffffffffffff81111561124257600080fd5b61124e878288016110d8565b95989497509550505050565b600181811c9082168061126e57607f821691505b60208210810361128e57634e487b7160e01b600052602260045260246000fd5b50919050565b634e487b7160e01b600052601160045260246000fd5b8082018082111561026a5761026a611294565b634e487b7160e01b600052604160045260246000fd5b601f82111561131d57600081815260208120601f850160051c810160208610156112fa5750805b601f850160051c820191505b8181101561131957828155600101611306565b5050505b505050565b815167ffffffffffffffff81111561133c5761133c6112bd565b6113508161134a845461125a565b846112d3565b602080601f831160018114611385576000841561136d5750858301515b600019600386901b1c1916600185901b178555611319565b600085815260208120601f198616915b828110156113b457888601518255948401946001909101908401611395565b50858210156113d25787850151600019600388901b60f8161c191681555b5050505050600190811b01905550565b8183823760009101908152919050565b8181038181111561026a5761026a611294565b634e487b7160e01b600052602160045260246000fd5b8281526040602082015260006114346040830184611049565b949350505050565b6000825161144e818460208701611025565b9190910192915050565b60006020828403121561146a57600080fd5b505191905056fea2646970667358221220030d8dcea6dc0042a664706b139e2a34ff351839051d9f537480e276c44cce3f64736f6c63430008100033",
  "immutableReferences": {
    "3832": [
      {
        "length": 32,
        "start": 3578
      }
    ],
    "3834": [
      {
        "length": 32,
        "start": 3536
      }
    ],
    "3836": [
      {
        "length": 32,
        "start": 3494
      }
    ],
    "3838": [
      {
        "length": 32,
        "start": 3661
      }
    ],
    "3840": [
      {
        "length": 32,
        "start": 3698
      }
    ],
    "3842": [
      {
        "length": 32,
        "start": 3619
      }
    ]
  },
  "source": "// SPDX-License-Identifier: GPL-3.0\npragma solidity >=0.7.0 <0.9.0;\n\nimport {ERC4973} from \"./../accountbounds/ERC4973.sol\";\n\ncontract BdlCertificate is ERC4973 {\n    constructor(\n        string memory name,\n        string memory symbol,\n        string memory version\n    ) ERC4973(name, symbol, version) {}\n\n    function getHash(\n        address from,\n        address to,\n        string calldata tokenURI\n    ) public view returns (bytes32) {\n        return _getHash(from, to, tokenURI);\n    }\n\n    function mint(\n        address from,\n        address to,\n        uint256 tokenId,\n        string calldata uri\n    ) external returns (uint256) {\n        return _mint(from, to, tokenId, uri);\n    }\n}\n",
  "sourcePath": "C:\\Users\\Arogundade Ibrahim\\Documents\\web3\\Buidl\\contracts\\buidl\\BdlCertificate.sol",
  "compiler": {
    "name": "solc",
    "version": "0.8.16+commit.07a7930e.Emscripten.clang"
  },
  "schemaVersion": "3.4.10",
  "updatedAt": "2022-11-11T04:27:15.651Z",
  "devdoc": {
    "kind": "dev",
    "methods": {
      "balanceOf(address)": {
        "details": "ABTs assigned to the zero address are considered invalid, and this  function throws for queries about the zero address.",
        "params": {
          "owner": "An address for whom to query the balance"
        },
        "returns": {
          "_0": "The number of ABTs owned by `address owner`, possibly zero"
        }
      },
      "give(address,string,bytes)": {
        "details": "Throws unless `bytes signature` represents an EIP-2098 Compact  Signature of the EIP-712 structured data hash  `Agreement(address active,address passive,string tokenURI)` expressing  `address to`'s explicit agreement to be publicly associated with  `msg.sender` and `string tokenURI`. A unique `uint256 tokenId` must be  generated by type-casting the `bytes32` EIP-712 structured data hash to a  `uint256`. If `bytes signature` is empty or `address to` is a contract,  an EIP-1271-compatible call to `function isValidSignatureNow(...)` must  be made to `address to`. A successful execution must result in the  `event Transfer(msg.sender, to, tokenId)`. Once an ABT exists as an  `uint256 tokenId` in the contract, `function give(...)` must throw.",
        "params": {
          "signature": "A EIP-2098-compatible Compact Signature of the EIP-712  structured data hash  `Agreement(address active,address passive,string tokenURI)` signed by  `address to`.",
          "to": "The receiver of the ABT.",
          "uri": "A distinct Uniform Resource Identifier (URI) for a given ABT."
        },
        "returns": {
          "_0": "A unique `uint256 tokenId` generated by type-casting the `bytes32`  EIP-712 structured data hash to a `uint256`."
        }
      },
      "ownerOf(uint256)": {
        "details": "ABTs assigned to zero address are considered invalid, and queries  about them do throw.",
        "params": {
          "tokenId": "The identifier for an ABT."
        },
        "returns": {
          "_0": "The address of the owner bound to the ABT."
        }
      },
      "supportsInterface(bytes4)": {
        "details": "See {IERC165-supportsInterface}."
      },
      "take(address,string,bytes)": {
        "details": "Throws unless `bytes signature` represents an EIP-2098 Compact  Signature of the EIP-712 structured data hash  `Agreement(address active,address passive,string tokenURI)` expressing  `address from`'s explicit agreement to be publicly associated with  `msg.sender` and `string tokenURI`. A unique `uint256 tokenId` must be  generated by type-casting the `bytes32` EIP-712 structured data hash to a  `uint256`. If `bytes signature` is empty or `address from` is a contract,  an EIP-1271-compatible call to `function isValidSignatureNow(...)` must  be made to `address from`. A successful execution must result in the  emission of an `event Transfer(from, msg.sender, tokenId)`. Once an ABT  exists as an `uint256 tokenId` in the contract, `function take(...)` must  throw.",
        "params": {
          "from": "The origin of the ABT.",
          "signature": "A EIP-2098-compatible Compact Signature of the EIP-712  structured data hash  `Agreement(address active,address passive,string tokenURI)` signed by  `address from`.",
          "uri": "A distinct Uniform Resource Identifier (URI) for a given ABT."
        },
        "returns": {
          "_0": "A unique `uint256 tokenId` generated by type-casting the `bytes32`  EIP-712 structured data hash to a `uint256`."
        }
      },
      "unequip(uint256)": {
        "details": "Must emit a `event Transfer` with the `address to` field pointing to  the zero address.",
        "params": {
          "tokenId": "The identifier for an ABT."
        }
      }
    },
    "version": 1
  },
  "userdoc": {
    "kind": "user",
    "methods": {
      "balanceOf(address)": {
        "notice": "Count all ABTs assigned to an owner"
      },
      "give(address,string,bytes)": {
        "notice": "Creates and transfers the ownership of an ABT from the  transaction's `msg.sender` to `address to`."
      },
      "ownerOf(uint256)": {
        "notice": "Find the address bound to an ERC4973 account-bound token"
      },
      "take(address,string,bytes)": {
        "notice": "Creates and transfers the ownership of an ABT from an `address from` to the transaction's `msg.sender`."
      },
      "unequip(uint256)": {
        "notice": "Removes the `uint256 tokenId` from an account. At any time, an  ABT receiver must be able to disassociate themselves from an ABT  publicly through calling this function. After successfully executing this  function, given the parameters for calling `function give` or  `function take` a token must be re-equipable."
      }
    },
    "version": 1
  }
}