{
  "contractName": "BdlCourse",
  "abi": [
    {
      "inputs": [],
      "stateMutability": "nonpayable",
      "type": "constructor"
    },
    {
      "anonymous": false,
      "inputs": [
        {
          "indexed": false,
          "internalType": "uint256",
          "name": "id",
          "type": "uint256"
        },
        {
          "indexed": false,
          "internalType": "string",
          "name": "name",
          "type": "string"
        },
        {
          "indexed": false,
          "internalType": "string",
          "name": "image",
          "type": "string"
        }
      ],
      "name": "Category",
      "type": "event"
    },
    {
      "anonymous": false,
      "inputs": [
        {
          "indexed": false,
          "internalType": "uint256",
          "name": "id",
          "type": "uint256"
        },
        {
          "indexed": false,
          "internalType": "string",
          "name": "name",
          "type": "string"
        },
        {
          "indexed": false,
          "internalType": "string",
          "name": "description",
          "type": "string"
        },
        {
          "indexed": false,
          "internalType": "uint256",
          "name": "category",
          "type": "uint256"
        },
        {
          "indexed": false,
          "internalType": "string",
          "name": "thumbnail",
          "type": "string"
        },
        {
          "indexed": false,
          "internalType": "string",
          "name": "previewSrc",
          "type": "string"
        },
        {
          "indexed": false,
          "internalType": "address",
          "name": "creator",
          "type": "address"
        },
        {
          "indexed": false,
          "internalType": "uint256",
          "name": "price",
          "type": "uint256"
        },
        {
          "indexed": false,
          "internalType": "bool",
          "name": "certificate",
          "type": "bool"
        },
        {
          "indexed": false,
          "internalType": "bool",
          "name": "publish",
          "type": "bool"
        },
        {
          "indexed": false,
          "internalType": "uint256",
          "name": "updatedAt",
          "type": "uint256"
        }
      ],
      "name": "Course",
      "type": "event"
    },
    {
      "anonymous": false,
      "inputs": [
        {
          "indexed": false,
          "internalType": "uint256",
          "name": "id",
          "type": "uint256"
        },
        {
          "indexed": false,
          "internalType": "string",
          "name": "title",
          "type": "string"
        },
        {
          "indexed": false,
          "internalType": "string",
          "name": "content",
          "type": "string"
        },
        {
          "indexed": false,
          "internalType": "string",
          "name": "src",
          "type": "string"
        },
        {
          "indexed": false,
          "internalType": "string",
          "name": "thumbnail",
          "type": "string"
        },
        {
          "indexed": false,
          "internalType": "uint256",
          "name": "duration",
          "type": "uint256"
        },
        {
          "indexed": false,
          "internalType": "uint256",
          "name": "sectionId",
          "type": "uint256"
        }
      ],
      "name": "CourseSection",
      "type": "event"
    },
    {
      "anonymous": false,
      "inputs": [
        {
          "indexed": false,
          "internalType": "uint256",
          "name": "id",
          "type": "uint256"
        },
        {
          "indexed": false,
          "internalType": "address",
          "name": "creator",
          "type": "address"
        },
        {
          "indexed": false,
          "internalType": "address",
          "name": "receiver",
          "type": "address"
        }
      ],
      "name": "CourseTransfer",
      "type": "event"
    },
    {
      "anonymous": false,
      "inputs": [
        {
          "indexed": false,
          "internalType": "uint256",
          "name": "id",
          "type": "uint256"
        },
        {
          "indexed": false,
          "internalType": "uint256",
          "name": "sectionId",
          "type": "uint256"
        },
        {
          "indexed": false,
          "internalType": "address",
          "name": "subscriber",
          "type": "address"
        }
      ],
      "name": "SectionViewed",
      "type": "event"
    },
    {
      "anonymous": false,
      "inputs": [
        {
          "indexed": false,
          "internalType": "uint256",
          "name": "courseId",
          "type": "uint256"
        },
        {
          "indexed": false,
          "internalType": "address",
          "name": "learner",
          "type": "address"
        },
        {
          "indexed": false,
          "internalType": "bool",
          "name": "status",
          "type": "bool"
        }
      ],
      "name": "Subscription",
      "type": "event"
    },
    {
      "inputs": [
        {
          "internalType": "uint256",
          "name": "",
          "type": "uint256"
        }
      ],
      "name": "courses",
      "outputs": [
        {
          "internalType": "uint256",
          "name": "id",
          "type": "uint256"
        },
        {
          "internalType": "uint256",
          "name": "category",
          "type": "uint256"
        },
        {
          "internalType": "address",
          "name": "creator",
          "type": "address"
        },
        {
          "internalType": "uint256",
          "name": "price",
          "type": "uint256"
        },
        {
          "internalType": "uint256",
          "name": "createdAt",
          "type": "uint256"
        },
        {
          "internalType": "uint256",
          "name": "updatedAt",
          "type": "uint256"
        },
        {
          "internalType": "uint256",
          "name": "sections",
          "type": "uint256"
        },
        {
          "internalType": "bool",
          "name": "certificate",
          "type": "bool"
        }
      ],
      "stateMutability": "view",
      "type": "function"
    },
    {
      "inputs": [
        {
          "internalType": "address",
          "name": "",
          "type": "address"
        },
        {
          "internalType": "uint256",
          "name": "",
          "type": "uint256"
        }
      ],
      "name": "createdCourses",
      "outputs": [
        {
          "internalType": "uint256",
          "name": "",
          "type": "uint256"
        }
      ],
      "stateMutability": "view",
      "type": "function"
    },
    {
      "inputs": [
        {
          "internalType": "uint256",
          "name": "",
          "type": "uint256"
        },
        {
          "internalType": "uint256",
          "name": "",
          "type": "uint256"
        }
      ],
      "name": "subscriptions",
      "outputs": [
        {
          "internalType": "uint256",
          "name": "course",
          "type": "uint256"
        },
        {
          "internalType": "uint256",
          "name": "time",
          "type": "uint256"
        },
        {
          "internalType": "uint256",
          "name": "price",
          "type": "uint256"
        },
        {
          "internalType": "address",
          "name": "owner",
          "type": "address"
        },
        {
          "internalType": "uint256",
          "name": "sections",
          "type": "uint256"
        }
      ],
      "stateMutability": "view",
      "type": "function"
    },
    {
      "inputs": [
        {
          "internalType": "uint256",
          "name": "id",
          "type": "uint256"
        },
        {
          "internalType": "address",
          "name": "learner",
          "type": "address"
        }
      ],
      "name": "subscribe",
      "outputs": [
        {
          "internalType": "uint256",
          "name": "",
          "type": "uint256"
        },
        {
          "internalType": "address",
          "name": "",
          "type": "address"
        }
      ],
      "stateMutability": "nonpayable",
      "type": "function"
    },
    {
      "inputs": [],
      "name": "mintCategories",
      "outputs": [],
      "stateMutability": "nonpayable",
      "type": "function"
    },
    {
      "inputs": [
        {
          "internalType": "string",
          "name": "name",
          "type": "string"
        },
        {
          "internalType": "string",
          "name": "image",
          "type": "string"
        }
      ],
      "name": "createCategory",
      "outputs": [],
      "stateMutability": "nonpayable",
      "type": "function"
    },
    {
      "inputs": [
        {
          "internalType": "uint256",
          "name": "id",
          "type": "uint256"
        },
        {
          "internalType": "uint256",
          "name": "category",
          "type": "uint256"
        },
        {
          "internalType": "uint256",
          "name": "price",
          "type": "uint256"
        },
        {
          "internalType": "string",
          "name": "name",
          "type": "string"
        },
        {
          "internalType": "string",
          "name": "description",
          "type": "string"
        },
        {
          "internalType": "string",
          "name": "thumbnail",
          "type": "string"
        },
        {
          "internalType": "string",
          "name": "previewSrc",
          "type": "string"
        },
        {
          "internalType": "bool",
          "name": "certificate",
          "type": "bool"
        },
        {
          "internalType": "bool",
          "name": "publish",
          "type": "bool"
        }
      ],
      "name": "createCourse",
      "outputs": [],
      "stateMutability": "nonpayable",
      "type": "function"
    },
    {
      "inputs": [
        {
          "internalType": "uint256",
          "name": "id",
          "type": "uint256"
        },
        {
          "internalType": "uint256",
          "name": "category",
          "type": "uint256"
        },
        {
          "internalType": "uint256",
          "name": "price",
          "type": "uint256"
        },
        {
          "internalType": "string",
          "name": "name",
          "type": "string"
        },
        {
          "internalType": "string",
          "name": "description",
          "type": "string"
        },
        {
          "internalType": "string",
          "name": "thumbnail",
          "type": "string"
        },
        {
          "internalType": "string",
          "name": "previewSrc",
          "type": "string"
        },
        {
          "internalType": "bool",
          "name": "certificate",
          "type": "bool"
        },
        {
          "internalType": "bool",
          "name": "publish",
          "type": "bool"
        }
      ],
      "name": "updateCourse",
      "outputs": [],
      "stateMutability": "nonpayable",
      "type": "function"
    },
    {
      "inputs": [
        {
          "internalType": "uint256",
          "name": "id",
          "type": "uint256"
        },
        {
          "internalType": "string",
          "name": "title",
          "type": "string"
        },
        {
          "internalType": "string",
          "name": "content",
          "type": "string"
        },
        {
          "internalType": "string",
          "name": "src",
          "type": "string"
        },
        {
          "internalType": "string",
          "name": "thumbnail",
          "type": "string"
        },
        {
          "internalType": "uint256",
          "name": "duration",
          "type": "uint256"
        }
      ],
      "name": "createCourseSection",
      "outputs": [],
      "stateMutability": "nonpayable",
      "type": "function"
    },
    {
      "inputs": [
        {
          "internalType": "uint256",
          "name": "id",
          "type": "uint256"
        },
        {
          "internalType": "string",
          "name": "title",
          "type": "string"
        },
        {
          "internalType": "string",
          "name": "content",
          "type": "string"
        },
        {
          "internalType": "string",
          "name": "src",
          "type": "string"
        },
        {
          "internalType": "string",
          "name": "thumbnail",
          "type": "string"
        },
        {
          "internalType": "uint256",
          "name": "duration",
          "type": "uint256"
        },
        {
          "internalType": "uint256",
          "name": "sectionId",
          "type": "uint256"
        }
      ],
      "name": "updateCourseSection",
      "outputs": [],
      "stateMutability": "nonpayable",
      "type": "function"
    },
    {
      "inputs": [
        {
          "internalType": "uint256",
          "name": "id",
          "type": "uint256"
        },
        {
          "internalType": "address",
          "name": "creator",
          "type": "address"
        },
        {
          "internalType": "address",
          "name": "receiver",
          "type": "address"
        }
      ],
      "name": "tranfersCourse",
      "outputs": [],
      "stateMutability": "nonpayable",
      "type": "function"
    },
    {
      "inputs": [
        {
          "internalType": "uint256",
          "name": "id",
          "type": "uint256"
        },
        {
          "internalType": "uint256",
          "name": "sectionId",
          "type": "uint256"
        }
      ],
      "name": "viewSection",
      "outputs": [],
      "stateMutability": "nonpayable",
      "type": "function"
    },
    {
      "inputs": [
        {
          "internalType": "uint256",
          "name": "id",
          "type": "uint256"
        },
        {
          "internalType": "address",
          "name": "owner",
          "type": "address"
        }
      ],
      "name": "unSubscribe",
      "outputs": [
        {
          "internalType": "uint256",
          "name": "",
          "type": "uint256"
        },
        {
          "internalType": "uint256",
          "name": "",
          "type": "uint256"
        },
        {
          "internalType": "address",
          "name": "",
          "type": "address"
        },
        {
          "internalType": "uint256",
          "name": "",
          "type": "uint256"
        },
        {
          "internalType": "uint256",
          "name": "",
          "type": "uint256"
        }
      ],
      "stateMutability": "nonpayable",
      "type": "function"
    },
    {
      "inputs": [
        {
          "internalType": "uint256",
          "name": "id",
          "type": "uint256"
        },
        {
          "internalType": "address",
          "name": "owner",
          "type": "address"
        }
      ],
      "name": "onCourseComplete",
      "outputs": [
        {
          "internalType": "bool",
          "name": "",
          "type": "bool"
        },
        {
          "internalType": "uint256",
          "name": "",
          "type": "uint256"
        }
      ],
      "stateMutability": "view",
      "type": "function"
    }
  ],
  "bytecode": "0x608060405261271060035560006004556000600555600860065534801561002557600080fd5b50600780546001600160a01b0319163317905561211a806100476000396000f3fe608060405234801561001057600080fd5b50600436106100ea5760003560e01c80638529934b1161008c578063b224b4e911610066578063b224b4e9146102bd578063e7b86a62146102d0578063f30e6e9b146102e3578063f8e7ef931461032c57600080fd5b80638529934b146101ee57806396f979d2146102015780639d59c2de146102aa57600080fd5b8063365cfcbf116100c8578063365cfcbf14610154578063406acef21461019857806359e6951d146101ab5780637f7d6eba146101db57600080fd5b80630172a343146100ef57806334e076d41461011e57806335986b2d14610133575b600080fd5b6101026100fd366004611a30565b610334565b6040805192151583526020830191909152015b60405180910390f35b61013161012c366004611b0f565b610515565b005b610146610141366004611bfb565b6106d0565b604051908152602001610115565b610167610162366004611c25565b610701565b604080519586526020860194909452928401919091526001600160a01b03166060830152608082015260a001610115565b6101316101a6366004611c47565b610758565b6101be6101b9366004611a30565b610834565b604080519283526001600160a01b03909116602083015201610115565b6101316101e9366004611c25565b610a88565b6101316101fc366004611d06565b610b28565b61025f61020f366004611d42565b60006020819052908152604090208054600182015460028301546003840154600485015460058601546006870154600790970154959694956001600160a01b039094169492939192909160ff1688565b6040805198895260208901979097526001600160a01b03909516958701959095526060860192909252608085015260a084015260c0830191909152151560e082015261010001610115565b6101316102b8366004611d5b565b610c53565b6101316102cb366004611e25565b610cf7565b6101316102de366004611b0f565b610d95565b6102f66102f1366004611a30565b610f78565b6040805195865260208601949094526001600160a01b03909216928401929092526060830191909152608082015260a001610115565b6101316112f0565b600080600061034385856117c2565b6000868152600260205260408120805492935090918390811061036857610368611e89565b60009182526020918290206040805160c08101825260069093029091018054835260018101548385015260028101548383015260038101546001600160a01b03166060840152600481018054835181870281018701909452808452939491936080860193928301828280156103fc57602002820191906000526020600020905b8154815260200190600101908083116103e8575b5050505050815260200160058201548152505090508060a0015181608001515110156104955760405162461bcd60e51b815260206004820152602160248201527f596f7520686176656e277420636f6d706c65746564207468697320636f75727360448201527f650000000000000000000000000000000000000000000000000000000000000060648201526084015b60405180910390fd5b600095865260208681526040968790208751610100810189528154815260018201549281019290925260028101546001600160a01b0316828901526003810154606083015260048101546080830152600581015460a0830152600681015460c08301526007015460ff16151560e090910181905295015194959350505050565b6000898152602081905260409020600201546001600160a01b0316331461056d5760405162461bcd60e51b815260206004820152600c60248201526b085d5b985d1a1bdc9a5e995960a21b604482015260640161048c565b6040518061010001604052808a8152602001898152602001336001600160a01b031681526020018881526020016000808c81526020019081526020016000206004015481526020014281526020016000808c81526020019081526020016000206006015481526020018315158152506000808b8152602001908152602001600020600082015181600001556020820151816001015560408201518160020160006101000a8154816001600160a01b0302191690836001600160a01b03160217905550606082015181600301556080820151816004015560a0820151816005015560c0820151816006015560e08201518160070160006101000a81548160ff0219169083151502179055509050507fa94aa32e169e42f49bacdfc46295bb8be3af3d288419f9ffc94f79cde74e090a8987878b8888338e8a8a426040516106bd9b9a99989796959493929190611ee5565b60405180910390a1505050505050505050565b600160205281600052604060002081815481106106ec57600080fd5b90600052602060002001600091509150505481565b6002602052816000526040600020818154811061071d57600080fd5b600091825260209091206006909102018054600182015460028301546003840154600590940154929550909350916001600160a01b03169085565b6000868152602081905260409020600201546001600160a01b031633146107b05760405162461bcd60e51b815260206004820152600c60248201526b085d5b985d1a1bdc9a5e995960a21b604482015260640161048c565b60008681526020819052604081206006018054916107cd83611f94565b9091555050600580549060006107e283611f94565b91905055507f57d8cd27126e24674dbd1d2d404779b77d5a798e19e69ae85a764a5ab84d3ea28686868686866005546040516108249796959493929190611fad565b60405180910390a1505050505050565b600082815260208181526040808320815161010081018352815480825260018301549482019490945260028201546001600160a01b0316928101929092526003810154606083015260048101546080830152600581015460a0830152600681015460c08301526007015460ff16151560e0820152829182036108f85760405162461bcd60e51b815260206004820152600760248201527f2165786973747300000000000000000000000000000000000000000000000000604482015260640161048c565b836001600160a01b031681604001516001600160a01b03160361095d5760405162461bcd60e51b815260206004820152601c60248201527f2163616e5f7375627363726962655f746f5f6f776e5f636f7572736500000000604482015260640161048c565b6000858152600260208181526040808420815160c080820184528b8252428286019081526060898101519584019586526001600160a01b038d811682860190815260808601838152948c015160a0870152865460018082018955978c529a89902086516006909c02019a8b559251958a0195909555945196880196909655945160038701805473ffffffffffffffffffffffffffffffffffffffff1916919093161790915592518051919492610a1b92600485019290910190611993565b5060a09190910151600590910155604080518781526001600160a01b038716602082015260018183015290517ffc3ced06dca988f1666d0ec0f7c1170397e5e5876cfc381a64fbff0f322790849181900360600190a1816060015182604001519350935050509250929050565b6000610a9483336117c2565b600084815260026020526040902080549192509082908110610ab857610ab8611e89565b600091825260208083206006929092029091016004018054600181018255908352918190209091018390556040805185815291820184905233908201527f06df856f2e4b5a5c51f3553903abf91a3147e9709ec6c29216a19e8a9654bbbb906060015b60405180910390a1505050565b6000838152602081905260409020600201546001600160a01b03838116911614610b825760405162461bcd60e51b815260206004820152600b60248201526a08585d5d1a1bdc9a5e995960aa1b604482015260640161048c565b600083815260208181526040808320600201805473ffffffffffffffffffffffffffffffffffffffff19166001600160a01b03868116919091179091558516835260019091529020805484908110610bdc57610bdc611e89565b60009182526020808320919091018290556001600160a01b03838116808452600180845260408086208054928301815586529484902001879055835187815291861692820192909252918201527f2fd7dc3aeb254842908e4dc655cdfd549a0d3825eaf02e31cd71b1c3df1c751a90606001610b1b565b6000878152602081905260409020600201546001600160a01b03163314610cab5760405162461bcd60e51b815260206004820152600c60248201526b085d5b985d1a1bdc9a5e995960a21b604482015260640161048c565b7f57d8cd27126e24674dbd1d2d404779b77d5a798e19e69ae85a764a5ab84d3ea287878787878787604051610ce69796959493929190611fad565b60405180910390a150505050505050565b6007546001600160a01b03163314610d3f5760405162461bcd60e51b815260206004820152600b60248201526a08585d5d1a1bdc9a5e995960aa1b604482015260640161048c565b60048054906000610d4f83611f94565b91905055507f2a65d0fe76508fb4e604d4804927dce75b70f82e64a2025e3bffb2fc003418506004548383604051610d8993929190612017565b60405180910390a15050565b60008981526020819052604090205415610df15760405162461bcd60e51b815260206004820152600660248201527f6578697374730000000000000000000000000000000000000000000000000000604482015260640161048c565b6040518061010001604052808a8152602001898152602001336001600160a01b031681526020018881526020014281526020014281526020016000808c81526020019081526020016000206006015481526020018315158152506000808b8152602001908152602001600020600082015181600001556020820151816001015560408201518160020160006101000a8154816001600160a01b0302191690836001600160a01b03160217905550606082015181600301556080820151816004015560a0820151816005015560c0820151816006015560e08201518160070160006101000a81548160ff02191690831515021790555090505060016000336001600160a01b03166001600160a01b031681526020019081526020016000208990806001815401808255809150506001900390600052602060002001600090919091909150557fa94aa32e169e42f49bacdfc46295bb8be3af3d288419f9ffc94f79cde74e090a8987878b8888338e8a8a426040516106bd9b9a99989796959493929190611ee5565b600080600080600080610f8b88886117c2565b60008981526002602052604081208054929350909183908110610fb057610fb0611e89565b60009182526020918290206040805160c08101825260069093029091018054835260018101548385015260028101548383015260038101546001600160a01b031660608401526004810180548351818702810187019094528084529394919360808601939283018282801561104457602002820191906000526020600020905b815481526020019060010190808311611030575b505050918352505060059182015460209182015260008c81528082526040908190208151610100810183528154815260018201549381019390935260028101546001600160a01b03169183019190915260038101546060830152600481015460808301529182015460a0820152600682015460c082015260079091015460ff16151560e08201529091506110db426212750061204c565b82602001511061112d5760405162461bcd60e51b815260206004820152600760248201527f3e327765656b7300000000000000000000000000000000000000000000000000604482015260640161048c565b60008260800151518360a00151611144919061205f565b9050600081116111965760405162461bcd60e51b815260206004820152601c60248201527f21796f755f63616e745f726566756e645f746869735f636f7572736500000000604482015260640161048c565b60008b81526002602052604090208054859081106111b6576111b6611e89565b600091825260208220600690910201818155600181018290556002810182905560038101805473ffffffffffffffffffffffffffffffffffffffff191690559061120360048301826119de565b60058201600090555050600083604001518460a00151836112249190612072565b61122e9190612094565b90506000846040015182611242919061205f565b9050600080821561127557606460065461125c9190612072565b6112669084612094565b9150611272828461205f565b90505b7ffc3ced06dca988f1666d0ec0f7c1170397e5e5876cfc381a64fbff0f322790848f8f60006040516112c5939291909283526001600160a01b039190911660208301521515604082015260600190565b60405180910390a16040958601519690950151929e909d50949b509099509197509195505050505050565b6007546001600160a01b031633146113385760405162461bcd60e51b815260206004820152600b60248201526a08585d5d1a1bdc9a5e995960aa1b604482015260640161048c565b6113ac6040518060400160405280600e81526020017f57656220446576656c6f70656e740000000000000000000000000000000000008152506040518060400160405280601481526020017f7765622d646576656c6f706d656e742e77656270000000000000000000000000815250610cf7565b6114206040518060400160405280600681526020017f47616d696e6700000000000000000000000000000000000000000000000000008152506040518060400160405280600b81526020017f67616d696e672e77656270000000000000000000000000000000000000000000815250610cf7565b6114946040518060400160405280600781526020017f436f6f6b696e67000000000000000000000000000000000000000000000000008152506040518060400160405280600c81526020017f636f6f6b696e672e776562700000000000000000000000000000000000000000815250610cf7565b6115086040518060400160405280600981526020017f416e696d6174696f6e00000000000000000000000000000000000000000000008152506040518060400160405280600e81526020017f616e696d6174696f6e2e77656270000000000000000000000000000000000000815250610cf7565b61157c6040518060400160405280600981526020017f4d61726b6574696e6700000000000000000000000000000000000000000000008152506040518060400160405280600e81526020017f6d61726b6574696e672e77656270000000000000000000000000000000000000815250610cf7565b6115f06040518060400160405280600c81526020017f4461746120536369656e636500000000000000000000000000000000000000008152506040518060400160405280601181526020017f646174612d736369656e63652e77656270000000000000000000000000000000815250610cf7565b6116646040518060400160405280600b81526020017f50686f746f6772617068790000000000000000000000000000000000000000008152506040518060400160405280601081526020017f70686f746f6772617068792e7765627000000000000000000000000000000000815250610cf7565b6116d86040518060400160405280600581526020017f4d757369630000000000000000000000000000000000000000000000000000008152506040518060400160405280600a81526020017f6d757369632e7765627000000000000000000000000000000000000000000000815250610cf7565b61174c6040518060400160405280600881526020017f537065616b696e670000000000000000000000000000000000000000000000008152506040518060400160405280600d81526020017f737065616b696e672e7765627000000000000000000000000000000000000000815250610cf7565b6117c06040518060400160405280600f81526020017f55492f55582044657369676e696e6700000000000000000000000000000000008152506040518060400160405280600a81526020017f75692d75782e7765627000000000000000000000000000000000000000000000815250610cf7565b565b600082815260026020908152604080832080548251818502810185019093528083528493849084015b828210156118a85760008481526020908190206040805160c081018252600686029092018054835260018101548385015260028101548383015260038101546001600160a01b031660608401526004810180548351818702810187019094528084529394919360808601939283018282801561188657602002820191906000526020600020905b815481526020019060010190808311611872575b50505050508152602001600582015481525050815260200190600101906117eb565b5050505090506000600019905060005b825181101561191157846001600160a01b03168382815181106118dd576118dd611e89565b6020026020010151606001516001600160a01b0316036118ff57809150611911565b80611909816120b3565b9150506118b8565b5060008112156119895760405162461bcd60e51b815260206004820152602660248201527f21796f755f6172655f6e6f745f737562736372696265645f746f5f746869735f60448201527f636f757273650000000000000000000000000000000000000000000000000000606482015260840161048c565b9150505b92915050565b8280548282559060005260206000209081019282156119ce579160200282015b828111156119ce5782518255916020019190600101906119b3565b506119da9291506119ff565b5090565b50805460008255906000526020600020908101906119fc91906119ff565b50565b5b808211156119da5760008155600101611a00565b80356001600160a01b0381168114611a2b57600080fd5b919050565b60008060408385031215611a4357600080fd5b82359150611a5360208401611a14565b90509250929050565b634e487b7160e01b600052604160045260246000fd5b600082601f830112611a8357600080fd5b813567ffffffffffffffff80821115611a9e57611a9e611a5c565b604051601f8301601f19908116603f01168101908282118183101715611ac657611ac6611a5c565b81604052838152866020858801011115611adf57600080fd5b836020870160208301376000602085830101528094505050505092915050565b80358015158114611a2b57600080fd5b60008060008060008060008060006101208a8c031215611b2e57600080fd5b8935985060208a0135975060408a0135965060608a013567ffffffffffffffff80821115611b5b57600080fd5b611b678d838e01611a72565b975060808c0135915080821115611b7d57600080fd5b611b898d838e01611a72565b965060a08c0135915080821115611b9f57600080fd5b611bab8d838e01611a72565b955060c08c0135915080821115611bc157600080fd5b50611bce8c828d01611a72565b935050611bdd60e08b01611aff565b9150611bec6101008b01611aff565b90509295985092959850929598565b60008060408385031215611c0e57600080fd5b611c1783611a14565b946020939093013593505050565b60008060408385031215611c3857600080fd5b50508035926020909101359150565b60008060008060008060c08789031215611c6057600080fd5b86359550602087013567ffffffffffffffff80821115611c7f57600080fd5b611c8b8a838b01611a72565b96506040890135915080821115611ca157600080fd5b611cad8a838b01611a72565b95506060890135915080821115611cc357600080fd5b611ccf8a838b01611a72565b94506080890135915080821115611ce557600080fd5b50611cf289828a01611a72565b92505060a087013590509295509295509295565b600080600060608486031215611d1b57600080fd5b83359250611d2b60208501611a14565b9150611d3960408501611a14565b90509250925092565b600060208284031215611d5457600080fd5b5035919050565b600080600080600080600060e0888a031215611d7657600080fd5b87359650602088013567ffffffffffffffff80821115611d9557600080fd5b611da18b838c01611a72565b975060408a0135915080821115611db757600080fd5b611dc38b838c01611a72565b965060608a0135915080821115611dd957600080fd5b611de58b838c01611a72565b955060808a0135915080821115611dfb57600080fd5b50611e088a828b01611a72565b93505060a0880135915060c0880135905092959891949750929550565b60008060408385031215611e3857600080fd5b823567ffffffffffffffff80821115611e5057600080fd5b611e5c86838701611a72565b93506020850135915080821115611e7257600080fd5b50611e7f85828601611a72565b9150509250929050565b634e487b7160e01b600052603260045260246000fd5b6000815180845260005b81811015611ec557602081850181015186830182015201611ea9565b506000602082860101526020601f19601f83011685010191505092915050565b60006101608d8352806020840152611eff8184018e611e9f565b90508281036040840152611f13818d611e9f565b90508a60608401528281036080840152611f2d818b611e9f565b905082810360a0840152611f41818a611e9f565b6001600160a01b039890981660c0840152505060e08101949094529115156101008401521515610120830152610140909101529695505050505050565b634e487b7160e01b600052601160045260246000fd5b600060018201611fa657611fa6611f7e565b5060010190565b87815260e060208201526000611fc660e0830189611e9f565b8281036040840152611fd88189611e9f565b90508281036060840152611fec8188611e9f565b905082810360808401526120008187611e9f565b60a0840195909552505060c0015295945050505050565b8381526060602082015260006120306060830185611e9f565b82810360408401526120428185611e9f565b9695505050505050565b8082018082111561198d5761198d611f7e565b8181038181111561198d5761198d611f7e565b60008261208f57634e487b7160e01b600052601260045260246000fd5b500490565b60008160001904831182151516156120ae576120ae611f7e565b500290565b60007f7fffffffffffffffffffffffffffffffffffffffffffffffffffffffffffffff8203611fa657611fa6611f7e56fea2646970667358221220ac6f64b0ddf9452cdeb35eb76d3ca986a923afa0a0ee480ea8b7212f9d259a7364736f6c63430008100033",
  "immutableReferences": {},
  "source": "// SPDX-License-Identifier: GPL-3.0\npragma solidity >=0.7.0 <0.9.0;\n\nimport {Models} from \"./../base/Models.sol\";\n\ncontract BdlCourse {\n    /* all ecosystem courses */\n    mapping(uint => Models.Course) public courses;\n\n    /* creator => course id */\n    mapping(address => uint[]) public createdCourses;\n\n    /* holds all course subscriptions */\n    mapping(uint => Models.Subscription[]) public subscriptions;\n\n    /* 2 weeks */\n    uint private refundableDuration = 10000;\n\n    // keeps tracks of ids\n    uint private categoryCount = 0;\n    uint private sectionsCount = 0;\n\n    // platform fee\n    uint private salesFee = 8; // eight percent\n\n    address private deployer;\n\n    constructor() {\n        deployer = msg.sender;\n    }\n\n    // == learner related functions == //\n\n    /* function to subscribe to a course */\n    function subscribe(uint id, address learner)\n        external\n        returns (uint256, address)\n    {\n        Models.Course memory course = courses[id];\n\n        require(course.id != 0, \"!exists\");\n        require(course.creator != learner, \"!can_subscribe_to_own_course\");\n\n        uint[] memory viewed;\n\n        subscriptions[id].push(\n            Models.Subscription(\n                id,\n                block.timestamp,\n                course.price,\n                learner,\n                viewed,\n                course.sections\n            )\n        );\n\n        emit Subscription(id, learner, true);\n        return (course.price, course.creator);\n    }\n\n    // == creator related functions == //\n\n    // testing purpose\n    function mintCategories() public onlyDeployer {\n        createCategory(\"Web Developent\", \"web-development.webp\");\n        createCategory(\"Gaming\", \"gaming.webp\");\n        createCategory(\"Cooking\", \"cooking.webp\");\n        createCategory(\"Animation\", \"animation.webp\");\n        createCategory(\"Marketing\", \"marketing.webp\");\n        createCategory(\"Data Science\", \"data-science.webp\");\n        createCategory(\"Photography\", \"photography.webp\");\n        createCategory(\"Music\", \"music.webp\");\n        createCategory(\"Speaking\", \"speaking.webp\");\n        createCategory(\"UI/UX Designing\", \"ui-ux.webp\");\n    }\n\n    function createCategory(string memory name, string memory image)\n        public\n        onlyDeployer\n    {\n        categoryCount++;\n        emit Category(categoryCount, name, image);\n    }\n\n    /* create a new course */\n    function createCourse(\n        uint id,\n        uint category,\n        uint256 price,\n        /* course metadata */\n        string memory name,\n        string memory description,\n        string memory thumbnail,\n        string memory previewSrc,\n        bool certificate,\n        bool publish\n    ) external {\n        require(courses[id].id == 0, \"exists\");\n\n        courses[id] = Models.Course(\n            id,\n            category,\n            msg.sender,\n            price,\n            block.timestamp,\n            block.timestamp,\n            courses[id].sections,\n            certificate\n        );\n\n        // assign course to creator\n        createdCourses[msg.sender].push(id);\n\n        emit Course(\n            id,\n            name,\n            description,\n            category,\n            thumbnail,\n            previewSrc,\n            msg.sender,\n            price,\n            certificate,\n            publish,\n            block.timestamp\n        );\n    }\n\n    /* updates existing course */\n    function updateCourse(\n        uint id,\n        uint category,\n        uint256 price,\n        /* course metadata */\n        string memory name,\n        string memory description,\n        string memory thumbnail,\n        string memory previewSrc,\n        bool certificate,\n        bool publish\n    ) external {\n        require(courses[id].creator == msg.sender, \"!unathorized\");\n\n        courses[id] = Models.Course(\n            id,\n            category,\n            msg.sender,\n            price,\n            courses[id].createdAt,\n            block.timestamp,\n            courses[id].sections,\n            certificate\n        );\n\n        emit Course(\n            id,\n            name,\n            description,\n            category,\n            thumbnail,\n            previewSrc,\n            msg.sender,\n            price,\n            certificate,\n            publish,\n            block.timestamp\n        );\n    }\n\n    /* creates a course section */\n    function createCourseSection(\n        uint id,\n        string memory title,\n        string memory content,\n        string memory src,\n        string memory thumbnail,\n        uint duration\n    ) public {\n        require(courses[id].creator == msg.sender, \"!unathorized\");\n        // increment course secttions\n        courses[id].sections++;\n        sectionsCount++;\n        emit CourseSection(id, title, content, src, thumbnail, duration, sectionsCount);\n    }\n\n    /* updates a course section */\n    function updateCourseSection(\n        uint id,\n        string memory title,\n        string memory content,\n        string memory src,\n        string memory thumbnail,\n        uint duration,\n        uint sectionId\n    ) public {\n        require(courses[id].creator == msg.sender, \"!unathorized\");\n        emit CourseSection(id, title, content, src, thumbnail, duration, sectionId);\n    }\n\n    /* transfer course onwership */\n    function tranfersCourse(\n        uint id,\n        address creator,\n        address receiver\n    ) external {\n        require(courses[id].creator == creator, \"!authorized\");\n        courses[id].creator = receiver;\n\n        delete createdCourses[creator][id];\n        createdCourses[receiver].push(id);\n\n        emit CourseTransfer(id, creator, receiver);\n    }\n\n    /* view section */\n    function viewSection(uint id, uint sectionId) public {\n        int index = getSubscriptionIndex(id, msg.sender);\n        subscriptions[id][uint(index)].viewed.push(sectionId);\n        emit SectionViewed(id, sectionId, msg.sender);\n    }\n\n    /* unsubscribe/refund from a course */\n    function unSubscribe(uint id, address owner)\n        external\n        returns (\n            uint256,\n            uint256,\n            address,\n            uint256,\n            uint256\n        )\n    {\n        int index = getSubscriptionIndex(id, owner);\n\n        Models.Subscription memory subscription = subscriptions[id][\n            uint(index)\n        ];\n        Models.Course memory course = courses[id];\n\n        require(subscription.time < (block.timestamp + 2 weeks), \">2weeks\");\n\n        uint payableSections = (subscription.sections -\n            subscription.viewed.length);\n\n        require(payableSections > 0, \"!you_cant_refund_this_course\");\n\n        /* user has unsubscribe */\n        delete subscriptions[id][uint(index)];\n\n        uint256 payableAmount = ((payableSections / subscription.sections) *\n            subscription.price);\n\n        uint256 netEarnings = (payableAmount - subscription.price);\n\n        uint256 earnings;\n        uint256 platformEarnings;\n        if (netEarnings > 0) {\n            earnings = (netEarnings * (salesFee / 100));\n            platformEarnings = netEarnings - earnings;\n        }\n\n        emit Subscription(id, owner, false);\n\n        return (\n            payableAmount,\n            earnings,\n            course.creator,\n            subscription.price,\n            platformEarnings\n        );\n    }\n\n    /* mint reward and certificate for user */\n    function onCourseComplete(uint id, address owner)\n        external\n        view\n        returns (bool, uint256)\n    {\n        // verifies user has subscribe to course\n        int index = getSubscriptionIndex(id, owner);\n\n        Models.Subscription memory subscription = subscriptions[id][\n            uint(index)\n        ];\n\n        require(\n            subscription.viewed.length >= subscription.sections,\n            \"You haven't completed this course\"\n        );\n\n        Models.Course memory course = courses[id];\n\n        /* returns course is premium or free */\n        return (course.certificate, subscription.price);\n    }\n\n    function getSubscriptionIndex(uint courseId, address owner)\n        private\n        view\n        returns (int)\n    {\n        Models.Subscription[] memory _subscriptions = subscriptions[courseId];\n        int _index = -1;\n\n        for (int index = 0; uint(index) < _subscriptions.length; index++) {\n            if (_subscriptions[uint(index)].owner == owner) {\n                _index = index;\n                break;\n            }\n        }\n\n        require(_index >= 0, \"!you_are_not_subscribed_to_this_course\");\n        return _index;\n    }\n\n    // == events == //\n    event Subscription(uint courseId, address learner, bool status);\n    event CourseTransfer(uint id, address creator, address receiver);\n    event Category(uint id, string name, string image);\n    event Course(\n        uint id,\n        string name,\n        string description,\n        uint category,\n        string thumbnail,\n        string previewSrc,\n        address creator,\n        uint256 price,\n        bool certificate,\n        bool publish,\n        uint updatedAt\n    );\n    event CourseSection(\n        uint id,\n        string title,\n        string content,\n        string src,\n        string thumbnail,\n        uint duration,\n        uint sectionId\n    );\n    event SectionViewed(uint id, uint sectionId, address subscriber);\n\n    // == modifiers == //\n    modifier onlyDeployer() {\n        require(msg.sender == deployer, \"!authorized\");\n        _;\n    }\n}\n",
  "sourcePath": "C:\\Users\\Arogundade Ibrahim\\Documents\\web3\\Buidl\\contracts\\buidl\\BdlCourse.sol",
  "compiler": {
    "name": "solc",
    "version": "0.8.16+commit.07a7930e.Emscripten.clang"
  },
  "schemaVersion": "3.4.10",
  "updatedAt": "2022-11-11T04:27:15.672Z",
  "devdoc": {
    "kind": "dev",
    "methods": {},
    "version": 1
  },
  "userdoc": {
    "kind": "user",
    "methods": {},
    "version": 1
  }
}