{
  "contractName": "BdlToken",
  "abi": [
    {
      "inputs": [
        {
          "internalType": "string",
          "name": "name",
          "type": "string"
        },
        {
          "internalType": "string",
          "name": "symbol",
          "type": "string"
        }
      ],
      "stateMutability": "nonpayable",
      "type": "constructor"
    },
    {
      "anonymous": false,
      "inputs": [
        {
          "indexed": true,
          "internalType": "address",
          "name": "owner",
          "type": "address"
        },
        {
          "indexed": true,
          "internalType": "address",
          "name": "spender",
          "type": "address"
        },
        {
          "indexed": false,
          "internalType": "uint256",
          "name": "value",
          "type": "uint256"
        }
      ],
      "name": "Approval",
      "type": "event"
    },
    {
      "anonymous": false,
      "inputs": [
        {
          "indexed": true,
          "internalType": "address",
          "name": "from",
          "type": "address"
        },
        {
          "indexed": true,
          "internalType": "address",
          "name": "to",
          "type": "address"
        },
        {
          "indexed": false,
          "internalType": "uint256",
          "name": "value",
          "type": "uint256"
        }
      ],
      "name": "Transfer",
      "type": "event"
    },
    {
      "inputs": [
        {
          "internalType": "address",
          "name": "owner",
          "type": "address"
        },
        {
          "internalType": "address",
          "name": "spender",
          "type": "address"
        }
      ],
      "name": "allowance",
      "outputs": [
        {
          "internalType": "uint256",
          "name": "",
          "type": "uint256"
        }
      ],
      "stateMutability": "view",
      "type": "function",
      "constant": true
    },
    {
      "inputs": [
        {
          "internalType": "address",
          "name": "account",
          "type": "address"
        }
      ],
      "name": "balanceOf",
      "outputs": [
        {
          "internalType": "uint256",
          "name": "",
          "type": "uint256"
        }
      ],
      "stateMutability": "view",
      "type": "function",
      "constant": true
    },
    {
      "inputs": [],
      "name": "decimals",
      "outputs": [
        {
          "internalType": "uint8",
          "name": "",
          "type": "uint8"
        }
      ],
      "stateMutability": "view",
      "type": "function",
      "constant": true
    },
    {
      "inputs": [
        {
          "internalType": "address",
          "name": "spender",
          "type": "address"
        },
        {
          "internalType": "uint256",
          "name": "subtractedValue",
          "type": "uint256"
        }
      ],
      "name": "decreaseAllowance",
      "outputs": [
        {
          "internalType": "bool",
          "name": "",
          "type": "bool"
        }
      ],
      "stateMutability": "nonpayable",
      "type": "function"
    },
    {
      "inputs": [
        {
          "internalType": "address",
          "name": "spender",
          "type": "address"
        },
        {
          "internalType": "uint256",
          "name": "addedValue",
          "type": "uint256"
        }
      ],
      "name": "increaseAllowance",
      "outputs": [
        {
          "internalType": "bool",
          "name": "",
          "type": "bool"
        }
      ],
      "stateMutability": "nonpayable",
      "type": "function"
    },
    {
      "inputs": [],
      "name": "name",
      "outputs": [
        {
          "internalType": "string",
          "name": "",
          "type": "string"
        }
      ],
      "stateMutability": "view",
      "type": "function",
      "constant": true
    },
    {
      "inputs": [],
      "name": "symbol",
      "outputs": [
        {
          "internalType": "string",
          "name": "",
          "type": "string"
        }
      ],
      "stateMutability": "view",
      "type": "function",
      "constant": true
    },
    {
      "inputs": [],
      "name": "totalSupply",
      "outputs": [
        {
          "internalType": "uint256",
          "name": "",
          "type": "uint256"
        }
      ],
      "stateMutability": "view",
      "type": "function",
      "constant": true
    },
    {
      "inputs": [
        {
          "internalType": "address",
          "name": "to",
          "type": "address"
        },
        {
          "internalType": "uint256",
          "name": "amount",
          "type": "uint256"
        }
      ],
      "name": "transfer",
      "outputs": [
        {
          "internalType": "bool",
          "name": "",
          "type": "bool"
        }
      ],
      "stateMutability": "nonpayable",
      "type": "function"
    },
    {
      "inputs": [
        {
          "internalType": "address",
          "name": "from",
          "type": "address"
        },
        {
          "internalType": "address",
          "name": "to",
          "type": "address"
        },
        {
          "internalType": "uint256",
          "name": "amount",
          "type": "uint256"
        }
      ],
      "name": "transferFrom",
      "outputs": [
        {
          "internalType": "bool",
          "name": "",
          "type": "bool"
        }
      ],
      "stateMutability": "nonpayable",
      "type": "function"
    },
    {
      "inputs": [
        {
          "internalType": "address",
          "name": "spender",
          "type": "address"
        },
        {
          "internalType": "uint256",
          "name": "amount",
          "type": "uint256"
        }
      ],
      "name": "approve",
      "outputs": [
        {
          "internalType": "bool",
          "name": "",
          "type": "bool"
        }
      ],
      "stateMutability": "nonpayable",
      "type": "function"
    },
    {
      "inputs": [
        {
          "internalType": "address",
          "name": "owner",
          "type": "address"
        },
        {
          "internalType": "address",
          "name": "spender",
          "type": "address"
        },
        {
          "internalType": "uint256",
          "name": "amount",
          "type": "uint256"
        }
      ],
      "name": "approve",
      "outputs": [],
      "stateMutability": "nonpayable",
      "type": "function"
    },
    {
      "inputs": [],
      "name": "faucetMint",
      "outputs": [],
      "stateMutability": "nonpayable",
      "type": "function"
    }
  ],
  "bytecode": "0x6080604052620000126012600a620002c6565b6200002090611388620002de565b6006553480156200003057600080fd5b5060405162001016380380620010168339810160408190526200005391620003c5565b81816003620000638382620004bd565b506004620000728282620004bd565b5050600580546001600160a01b03191633908117909155620000bc915062000098601290565b620000a590600a620002c6565b620000b69064e8d4a51000620002de565b620000c4565b50506200059f565b6001600160a01b0382166200011f5760405162461bcd60e51b815260206004820152601f60248201527f45524332303a206d696e7420746f20746865207a65726f206164647265737300604482015260640160405180910390fd5b806002600082825462000133919062000589565b90915550506001600160a01b038216600090815260208190526040812080548392906200016290849062000589565b90915550506040518181526001600160a01b038316906000907fddf252ad1be2c89b69c2b068fc378daa952ba7f163c4a11628f55a4df523b3ef9060200160405180910390a35050565b505050565b634e487b7160e01b600052601160045260246000fd5b600181815b8085111562000208578160001904821115620001ec57620001ec620001b1565b80851615620001fa57918102915b93841c9390800290620001cc565b509250929050565b6000826200022157506001620002c0565b816200023057506000620002c0565b8160018114620002495760028114620002545762000274565b6001915050620002c0565b60ff841115620002685762000268620001b1565b50506001821b620002c0565b5060208310610133831016604e8410600b841016171562000299575081810a620002c0565b620002a58383620001c7565b8060001904821115620002bc57620002bc620001b1565b0290505b92915050565b6000620002d760ff84168362000210565b9392505050565b6000816000190483118215151615620002fb57620002fb620001b1565b500290565b634e487b7160e01b600052604160045260246000fd5b600082601f8301126200032857600080fd5b81516001600160401b038082111562000345576200034562000300565b604051601f8301601f19908116603f0116810190828211818310171562000370576200037062000300565b816040528381526020925086838588010111156200038d57600080fd5b600091505b83821015620003b1578582018301518183018401529082019062000392565b600093810190920192909252949350505050565b60008060408385031215620003d957600080fd5b82516001600160401b0380821115620003f157600080fd5b620003ff8683870162000316565b935060208501519150808211156200041657600080fd5b50620004258582860162000316565b9150509250929050565b600181811c908216806200044457607f821691505b6020821081036200046557634e487b7160e01b600052602260045260246000fd5b50919050565b601f821115620001ac57600081815260208120601f850160051c81016020861015620004945750805b601f850160051c820191505b81811015620004b557828155600101620004a0565b505050505050565b81516001600160401b03811115620004d957620004d962000300565b620004f181620004ea84546200042f565b846200046b565b602080601f831160018114620005295760008415620005105750858301515b600019600386901b1c1916600185901b178555620004b5565b600085815260208120601f198616915b828110156200055a5788860151825594840194600190910190840162000539565b5085821015620005795787850151600019600388901b60f8161c191681555b5050505050600190811b01905550565b80820180821115620002c057620002c0620001b1565b610a6780620005af6000396000f3fe608060405234801561001057600080fd5b50600436106100df5760003560e01c8063395093511161008c578063a457c2d711610066578063a457c2d7146101a7578063a9059cbb146101ba578063dd62ed3e146101cd578063e1f21c671461020657600080fd5b8063395093511461016357806370a082311461017657806395d89b411461019f57600080fd5b806318160ddd116100bd57806318160ddd1461012f57806323b872dd14610141578063313ce5671461015457600080fd5b806306fdde03146100e4578063095ea7b31461010257806313eda8fc14610125575b600080fd5b6100ec610219565b6040516100f991906108b1565b60405180910390f35b61011561011036600461091b565b6102ab565b60405190151581526020016100f9565b61012d6102c5565b005b6002545b6040519081526020016100f9565b61011561014f366004610945565b610376565b604051601281526020016100f9565b61011561017136600461091b565b61039a565b610133610184366004610981565b6001600160a01b031660009081526020819052604090205490565b6100ec6103d9565b6101156101b536600461091b565b6103e8565b6101156101c836600461091b565b610492565b6101336101db3660046109a3565b6001600160a01b03918216600090815260016020908152604080832093909416825291909152205490565b61012d610214366004610945565b6104a0565b606060038054610228906109d6565b80601f0160208091040260200160405190810160405280929190818152602001828054610254906109d6565b80156102a15780601f10610276576101008083540402835291602001916102a1565b820191906000526020600020905b81548152906001019060200180831161028457829003601f168201915b5050505050905090565b6000336102b98185856104b0565b60019150505b92915050565b600654336000908152600760205260409020541061032a5760405162461bcd60e51b815260206004820152601660248201527f2163616e745f6d696e745f6d6f72655f746f6b656e730000000000000000000060448201526064015b60405180910390fd5b600654336000818152600760205260409020829055600554610358926001600160a01b0390911691906104b0565b600554600654610373916001600160a01b0316903390610376565b50565b600033610384858285610608565b61038f85858561069a565b506001949350505050565b3360008181526001602090815260408083206001600160a01b03871684529091528120549091906102b990829086906103d4908790610a10565b6104b0565b606060048054610228906109d6565b3360008181526001602090815260408083206001600160a01b0387168452909152812054909190838110156104855760405162461bcd60e51b815260206004820152602560248201527f45524332303a2064656372656173656420616c6c6f77616e63652062656c6f7760448201527f207a65726f0000000000000000000000000000000000000000000000000000006064820152608401610321565b61038f82868684036104b0565b6000336102b981858561069a565b6104ab8383836104b0565b505050565b6001600160a01b03831661052b5760405162461bcd60e51b8152602060048201526024808201527f45524332303a20617070726f76652066726f6d20746865207a65726f2061646460448201527f72657373000000000000000000000000000000000000000000000000000000006064820152608401610321565b6001600160a01b0382166105a75760405162461bcd60e51b815260206004820152602260248201527f45524332303a20617070726f766520746f20746865207a65726f20616464726560448201527f73730000000000000000000000000000000000000000000000000000000000006064820152608401610321565b6001600160a01b0383811660008181526001602090815260408083209487168084529482529182902085905590518481527f8c5be1e5ebec7d5bd14f71427d1e84f3dd0314c0f7b2291e5b200ac8c7c3b925910160405180910390a3505050565b6001600160a01b03838116600090815260016020908152604080832093861683529290522054600019811461069457818110156106875760405162461bcd60e51b815260206004820152601d60248201527f45524332303a20696e73756666696369656e7420616c6c6f77616e63650000006044820152606401610321565b61069484848484036104b0565b50505050565b6001600160a01b0383166107165760405162461bcd60e51b815260206004820152602560248201527f45524332303a207472616e736665722066726f6d20746865207a65726f20616460448201527f64726573730000000000000000000000000000000000000000000000000000006064820152608401610321565b6001600160a01b0382166107925760405162461bcd60e51b815260206004820152602360248201527f45524332303a207472616e7366657220746f20746865207a65726f206164647260448201527f65737300000000000000000000000000000000000000000000000000000000006064820152608401610321565b6001600160a01b038316600090815260208190526040902054818110156108215760405162461bcd60e51b815260206004820152602660248201527f45524332303a207472616e7366657220616d6f756e742065786365656473206260448201527f616c616e636500000000000000000000000000000000000000000000000000006064820152608401610321565b6001600160a01b03808516600090815260208190526040808220858503905591851681529081208054849290610858908490610a10565b92505081905550826001600160a01b0316846001600160a01b03167fddf252ad1be2c89b69c2b068fc378daa952ba7f163c4a11628f55a4df523b3ef846040516108a491815260200190565b60405180910390a3610694565b600060208083528351808285015260005b818110156108de578581018301518582016040015282016108c2565b506000604082860101526040601f19601f8301168501019250505092915050565b80356001600160a01b038116811461091657600080fd5b919050565b6000806040838503121561092e57600080fd5b610937836108ff565b946020939093013593505050565b60008060006060848603121561095a57600080fd5b610963846108ff565b9250610971602085016108ff565b9150604084013590509250925092565b60006020828403121561099357600080fd5b61099c826108ff565b9392505050565b600080604083850312156109b657600080fd5b6109bf836108ff565b91506109cd602084016108ff565b90509250929050565b600181811c908216806109ea57607f821691505b602082108103610a0a57634e487b7160e01b600052602260045260246000fd5b50919050565b808201808211156102bf57634e487b7160e01b600052601160045260246000fdfea26469706673582212208fa4252a0157700fe4510f8532dc32928f8498a42fb3bcfe4c1619e1661ce11764736f6c63430008100033",
  "immutableReferences": {},
  "source": "// SPDX-License-Identifier: GPL-3.0\npragma solidity >=0.7.0 <0.9.0;\n\nimport {ERC20} from \"@openzeppelin/contracts/token/ERC20/ERC20.sol\";\n\ncontract BdlToken is ERC20 {\n    address private deployer;\n    uint256 private allocation = 5000 * 10**decimals();\n    mapping(address => uint) private allocations;\n\n    constructor(string memory name, string memory symbol) ERC20(name, symbol) {\n        deployer = msg.sender;\n        _mint(deployer, 1000000000000 * 10**decimals());\n    }\n\n    function approve(\n        address owner,\n        address spender,\n        uint256 amount\n    ) public {\n        _approve(owner, spender, amount);\n    }\n\n    function faucetMint() public {\n        require(allocations[msg.sender] < allocation, \"!cant_mint_more_tokens\");\n        allocations[msg.sender] = allocation;\n        _approve(deployer, msg.sender, allocation);\n        transferFrom(deployer, msg.sender, allocation);\n    }\n}\n",
  "sourcePath": "C:\\Users\\Arogundade Ibrahim\\Documents\\web3\\Buidl\\contracts\\buidl\\BdlToken.sol",
  "compiler": {
    "name": "solc",
    "version": "0.8.16+commit.07a7930e.Emscripten.clang"
  },
  "schemaVersion": "3.4.10",
  "updatedAt": "2022-11-10T05:48:52.241Z",
  "networkType": "ethereum",
  "devdoc": {
    "kind": "dev",
    "methods": {
      "allowance(address,address)": {
        "details": "See {IERC20-allowance}."
      },
      "approve(address,uint256)": {
        "details": "See {IERC20-approve}. NOTE: If `amount` is the maximum `uint256`, the allowance is not updated on `transferFrom`. This is semantically equivalent to an infinite approval. Requirements: - `spender` cannot be the zero address."
      },
      "balanceOf(address)": {
        "details": "See {IERC20-balanceOf}."
      },
      "decimals()": {
        "details": "Returns the number of decimals used to get its user representation. For example, if `decimals` equals `2`, a balance of `505` tokens should be displayed to a user as `5.05` (`505 / 10 ** 2`). Tokens usually opt for a value of 18, imitating the relationship between Ether and Wei. This is the value {ERC20} uses, unless this function is overridden; NOTE: This information is only used for _display_ purposes: it in no way affects any of the arithmetic of the contract, including {IERC20-balanceOf} and {IERC20-transfer}."
      },
      "decreaseAllowance(address,uint256)": {
        "details": "Atomically decreases the allowance granted to `spender` by the caller. This is an alternative to {approve} that can be used as a mitigation for problems described in {IERC20-approve}. Emits an {Approval} event indicating the updated allowance. Requirements: - `spender` cannot be the zero address. - `spender` must have allowance for the caller of at least `subtractedValue`."
      },
      "increaseAllowance(address,uint256)": {
        "details": "Atomically increases the allowance granted to `spender` by the caller. This is an alternative to {approve} that can be used as a mitigation for problems described in {IERC20-approve}. Emits an {Approval} event indicating the updated allowance. Requirements: - `spender` cannot be the zero address."
      },
      "name()": {
        "details": "Returns the name of the token."
      },
      "symbol()": {
        "details": "Returns the symbol of the token, usually a shorter version of the name."
      },
      "totalSupply()": {
        "details": "See {IERC20-totalSupply}."
      },
      "transfer(address,uint256)": {
        "details": "See {IERC20-transfer}. Requirements: - `to` cannot be the zero address. - the caller must have a balance of at least `amount`."
      },
      "transferFrom(address,address,uint256)": {
        "details": "See {IERC20-transferFrom}. Emits an {Approval} event indicating the updated allowance. This is not required by the EIP. See the note at the beginning of {ERC20}. NOTE: Does not update the allowance if the current allowance is the maximum `uint256`. Requirements: - `from` and `to` cannot be the zero address. - `from` must have a balance of at least `amount`. - the caller must have allowance for ``from``'s tokens of at least `amount`."
      }
    },
    "version": 1
  },
  "userdoc": {
    "kind": "user",
    "methods": {},
    "version": 1
  }
}