{
  "contractName": "Buidl",
  "abi": [
    {
      "inputs": [
        {
          "internalType": "address",
          "name": "bdlToken",
          "type": "address"
        },
        {
          "internalType": "address",
          "name": "bdlNft",
          "type": "address"
        },
        {
          "internalType": "address",
          "name": "bdlCertificate",
          "type": "address"
        },
        {
          "internalType": "address",
          "name": "bdlCourse",
          "type": "address"
        },
        {
          "internalType": "address",
          "name": "staking",
          "type": "address"
        },
        {
          "internalType": "address",
          "name": "gateway_",
          "type": "address"
        },
        {
          "internalType": "address",
          "name": "gasReceiver_",
          "type": "address"
        }
      ],
      "stateMutability": "nonpayable",
      "type": "constructor"
    },
    {
      "inputs": [],
      "name": "InvalidAddress",
      "type": "error"
    },
    {
      "inputs": [],
      "name": "NotApprovedByGateway",
      "type": "error"
    },
    {
      "anonymous": false,
      "inputs": [
        {
          "indexed": false,
          "internalType": "address",
          "name": "owner",
          "type": "address"
        },
        {
          "indexed": false,
          "internalType": "bool",
          "name": "verified",
          "type": "bool"
        }
      ],
      "name": "Creator",
      "type": "event"
    },
    {
      "anonymous": false,
      "inputs": [
        {
          "indexed": false,
          "internalType": "address",
          "name": "owner",
          "type": "address"
        },
        {
          "indexed": false,
          "internalType": "string",
          "name": "name",
          "type": "string"
        },
        {
          "indexed": false,
          "internalType": "string",
          "name": "photo",
          "type": "string"
        },
        {
          "indexed": false,
          "internalType": "bool",
          "name": "verified",
          "type": "bool"
        }
      ],
      "name": "User",
      "type": "event"
    },
    {
      "inputs": [
        {
          "internalType": "bytes32",
          "name": "commandId",
          "type": "bytes32"
        },
        {
          "internalType": "string",
          "name": "sourceChain",
          "type": "string"
        },
        {
          "internalType": "string",
          "name": "sourceAddress",
          "type": "string"
        },
        {
          "internalType": "bytes",
          "name": "payload",
          "type": "bytes"
        }
      ],
      "name": "execute",
      "outputs": [],
      "stateMutability": "nonpayable",
      "type": "function"
    },
    {
      "inputs": [
        {
          "internalType": "bytes32",
          "name": "commandId",
          "type": "bytes32"
        },
        {
          "internalType": "string",
          "name": "sourceChain",
          "type": "string"
        },
        {
          "internalType": "string",
          "name": "sourceAddress",
          "type": "string"
        },
        {
          "internalType": "bytes",
          "name": "payload",
          "type": "bytes"
        },
        {
          "internalType": "string",
          "name": "tokenSymbol",
          "type": "string"
        },
        {
          "internalType": "uint256",
          "name": "amount",
          "type": "uint256"
        }
      ],
      "name": "executeWithToken",
      "outputs": [],
      "stateMutability": "nonpayable",
      "type": "function"
    },
    {
      "inputs": [],
      "name": "gasReceiver",
      "outputs": [
        {
          "internalType": "contract IAxelarGasService",
          "name": "",
          "type": "address"
        }
      ],
      "stateMutability": "view",
      "type": "function",
      "constant": true
    },
    {
      "inputs": [],
      "name": "gateway",
      "outputs": [
        {
          "internalType": "contract IAxelarGateway",
          "name": "",
          "type": "address"
        }
      ],
      "stateMutability": "view",
      "type": "function",
      "constant": true
    },
    {
      "inputs": [
        {
          "internalType": "address",
          "name": "",
          "type": "address"
        }
      ],
      "name": "revenues",
      "outputs": [
        {
          "internalType": "uint256",
          "name": "unclaimed",
          "type": "uint256"
        },
        {
          "internalType": "uint256",
          "name": "claimable",
          "type": "uint256"
        },
        {
          "internalType": "uint256",
          "name": "claimed",
          "type": "uint256"
        }
      ],
      "stateMutability": "view",
      "type": "function",
      "constant": true
    },
    {
      "inputs": [],
      "name": "testCount",
      "outputs": [
        {
          "internalType": "uint256",
          "name": "",
          "type": "uint256"
        }
      ],
      "stateMutability": "view",
      "type": "function",
      "constant": true
    },
    {
      "inputs": [
        {
          "internalType": "address",
          "name": "",
          "type": "address"
        }
      ],
      "name": "users",
      "outputs": [
        {
          "internalType": "uint256",
          "name": "id",
          "type": "uint256"
        },
        {
          "internalType": "bool",
          "name": "verified",
          "type": "bool"
        },
        {
          "internalType": "string",
          "name": "photo",
          "type": "string"
        },
        {
          "internalType": "uint256",
          "name": "createdAt",
          "type": "uint256"
        }
      ],
      "stateMutability": "view",
      "type": "function",
      "constant": true
    },
    {
      "inputs": [
        {
          "internalType": "string",
          "name": "name",
          "type": "string"
        },
        {
          "internalType": "string",
          "name": "photo",
          "type": "string"
        }
      ],
      "name": "setAccount",
      "outputs": [],
      "stateMutability": "nonpayable",
      "type": "function"
    },
    {
      "inputs": [
        {
          "internalType": "uint256",
          "name": "amount",
          "type": "uint256"
        }
      ],
      "name": "stake",
      "outputs": [],
      "stateMutability": "nonpayable",
      "type": "function"
    },
    {
      "inputs": [],
      "name": "unlockCreator",
      "outputs": [],
      "stateMutability": "nonpayable",
      "type": "function"
    },
    {
      "inputs": [],
      "name": "removeCreator",
      "outputs": [],
      "stateMutability": "nonpayable",
      "type": "function"
    },
    {
      "inputs": [
        {
          "internalType": "uint256",
          "name": "id",
          "type": "uint256"
        },
        {
          "internalType": "uint256",
          "name": "nftId",
          "type": "uint256"
        }
      ],
      "name": "subscribe",
      "outputs": [],
      "stateMutability": "nonpayable",
      "type": "function"
    },
    {
      "inputs": [
        {
          "internalType": "uint256",
          "name": "id",
          "type": "uint256"
        }
      ],
      "name": "unSubscribe",
      "outputs": [],
      "stateMutability": "nonpayable",
      "type": "function"
    },
    {
      "inputs": [
        {
          "internalType": "uint256",
          "name": "amount",
          "type": "uint256"
        }
      ],
      "name": "withdrawPlatformFee",
      "outputs": [],
      "stateMutability": "nonpayable",
      "type": "function"
    },
    {
      "inputs": [
        {
          "internalType": "uint256",
          "name": "id",
          "type": "uint256"
        },
        {
          "internalType": "string",
          "name": "certificateUri",
          "type": "string"
        }
      ],
      "name": "onCourseComplete",
      "outputs": [],
      "stateMutability": "nonpayable",
      "type": "function"
    },
    {
      "inputs": [
        {
          "internalType": "string",
          "name": "a",
          "type": "string"
        },
        {
          "internalType": "string",
          "name": "b",
          "type": "string"
        }
      ],
      "name": "compareStrings",
      "outputs": [
        {
          "internalType": "bool",
          "name": "",
          "type": "bool"
        }
      ],
      "stateMutability": "view",
      "type": "function",
      "constant": true
    },
    {
      "inputs": [
        {
          "internalType": "address",
          "name": "polygon",
          "type": "address"
        },
        {
          "internalType": "address",
          "name": "fantom",
          "type": "address"
        }
      ],
      "name": "changeSourceAddresses",
      "outputs": [],
      "stateMutability": "nonpayable",
      "type": "function"
    }
  ],
  "bytecode": "0x60c0604052600080556008600455686c6b935b8bbd400000600a556301e13380600b556000600c553480156200003457600080fd5b5060405162001dae38038062001dae833981016040819052620000579162000119565b816001600160a01b038116620000805760405163e6c4247b60e01b815260040160405180910390fd5b6001600160a01b0390811660805260018054336001600160a01b031991821617909155600580548216988316989098179097556006805488169882169890981790975560078054871695881695909517909455506008805485169286169290921790915560098054909316908416179091551660a052620001ae565b80516001600160a01b03811681146200011457600080fd5b919050565b600080600080600080600060e0888a0312156200013557600080fd5b6200014088620000fc565b96506200015060208901620000fc565b95506200016060408901620000fc565b94506200017060608901620000fc565b93506200018060808901620000fc565b92506200019060a08901620000fc565b9150620001a060c08901620000fc565b905092959891949750929550565b60805160a051611bcc620001e260003960006101f60152600081816101250152818161033901526104420152611bcc6000f3fe608060405234801561001057600080fd5b506004361061011b5760003560e01c806390bf70b0116100b2578063a87430ba11610081578063c193b2e411610066578063c193b2e4146102c1578063d8d6bfde146102c9578063dde7c190146102dc57600080fd5b8063a87430ba1461027b578063bed34bba1461029e57600080fd5b806390bf70b01461022b5780639470cb2b1461023e5780639590d4b914610251578063a694fc3a1461026857600080fd5b806378ae98c8116100ee57806378ae98c81461019f5780637f26fc7d146101e957806380d14b4a146101f1578063843708131461021857600080fd5b8063116191b6146101205780631a98b2e0146101645780632796b03014610179578063491606581461018c575b600080fd5b6101477f000000000000000000000000000000000000000000000000000000000000000081565b6040516001600160a01b0390911681526020015b60405180910390f35b61017761017236600461137f565b6102ef565b005b610177610187366004611459565b6103eb565b61017761019a366004611472565b6103f8565b6101ce6101ad36600461152b565b600e6020526000908152604090208054600182015460029092015490919083565b6040805193845260208401929092529082015260600161015b565b6101776104f9565b6101477f000000000000000000000000000000000000000000000000000000000000000081565b61017761022636600461154f565b6105a5565b610177610239366004611636565b6105b8565b61017761024c36600461169a565b610612565b61025a60005481565b60405190815260200161015b565b610177610276366004611459565b6106a0565b61028e61028936600461152b565b610834565b60405161015b9493929190611723565b6102b16102ac366004611636565b6108e9565b604051901515815260200161015b565b610177610943565b6101776102d7366004611755565b610ac3565b6101776102ea366004611459565b610c80565b60008585604051610301929190611792565b6040519081900381207f1876eed900000000000000000000000000000000000000000000000000000000825291506001600160a01b037f00000000000000000000000000000000000000000000000000000000000000001690631876eed99061037e908e908e908e908e908e9089908d908d908d906004016117cb565b6020604051808303816000875af115801561039d573d6000803e3d6000fd5b505050506040513d601f19601f820116820180604052508101906103c1919061183f565b6103de57604051631403112d60e21b815260040160405180910390fd5b5050505050505050505050565b6103f58133610dae565b50565b6000828260405161040a929190611792565b6040519081900381207f5f6970c300000000000000000000000000000000000000000000000000000000825291506001600160a01b037f00000000000000000000000000000000000000000000000000000000000000001690635f6970c390610481908b908b908b908b908b90899060040161185a565b6020604051808303816000875af11580156104a0573d6000803e3d6000fd5b505050506040513d601f19601f820116820180604052508101906104c4919061183f565b6104e157604051631403112d60e21b815260040160405180910390fd5b6104ef878787878787610f4e565b5050505050505050565b336000908152600d602052604090206001015460ff1661054e5760405162461bcd60e51b815260206004820152600b60248201526a08585d5d1a1bdc9a5e995960aa1b60448201526064015b60405180910390fd5b336000818152600d60209081526040808320600101805460ff191690558051938452908301919091527fb5763ba23a8384e26e9f2f5bfcd8e3795e4248ce7bb99a61c9ee6488d352a5b191015b60405180910390a1565b60006105b383838333611026565b505050565b336000818152600d6020526040908190206001015490517f2d3804f6670a9e165ddef24bb7f7345753423a96b66b32c302cfefcda19ad467926106069290918691869160ff9091169061189b565b60405180910390a15050565b6001546001600160a01b0316331461065a5760405162461bcd60e51b815260206004820152600b60248201526a08585d5d1a1bdc9a5e995960aa1b6044820152606401610545565b600280546001600160a01b039384167fffffffffffffffffffffffff00000000000000000000000000000000000000009182161790915560038054929093169116179055565b60065460405163e1f21c6760e01b8152336004820152306024820152604481018390526001600160a01b039091169063e1f21c6790606401600060405180830381600087803b1580156106f257600080fd5b505af1158015610706573d6000803e3d6000fd5b50506006546040516323b872dd60e01b8152336004820152306024820152604481018590526001600160a01b0390911692506323b872dd91506064016020604051808303816000875af1158015610761573d6000803e3d6000fd5b505050506040513d601f19601f82011682018060405250810190610785919061183f565b50600954600b546001600160a01b039091169063ab84bb7890339084906107ac90426118f9565b6040517fffffffff0000000000000000000000000000000000000000000000000000000060e086901b1681526001600160a01b0390931660048401526024830191909152604482015260006064820152608401600060405180830381600087803b15801561081957600080fd5b505af115801561082d573d6000803e3d6000fd5b5050505050565b600d60205260009081526040902080546001820154600283018054929360ff909216926108609061190c565b80601f016020809104026020016040519081016040528092919081815260200182805461088c9061190c565b80156108d95780601f106108ae576101008083540402835291602001916108d9565b820191906000526020600020905b8154815290600101906020018083116108bc57829003601f168201915b5050505050908060040154905084565b6000816040516020016108fc9190611946565b60405160208183030381529060405280519060200120836040516020016109239190611946565b604051602081830303815290604052805190602001201490505b92915050565b336000908152600d602052604090206001015460ff16156109945760405162461bcd60e51b815260206004820152600b60248201526a08585d5d1a1bdc9a5e995960aa1b6044820152606401610545565b600954600a546040517fde36071500000000000000000000000000000000000000000000000000000000815260048101919091523360248201526001600160a01b039091169063de36071590604401602060405180830381865afa158015610a00573d6000803e3d6000fd5b505050506040513d601f19601f82011682018060405250810190610a24919061183f565b610a705760405162461bcd60e51b815260206004820152601860248201527f217374616b655f726571756972656d656e745f666972737400000000000000006044820152606401610545565b336000818152600d60209081526040918290206001908101805460ff1916821790558251938452908301527fb5763ba23a8384e26e9f2f5bfcd8e3795e4248ce7bb99a61c9ee6488d352a5b1910161059b565b6008546040517f0172a3430000000000000000000000000000000000000000000000000000000081526004810184905233602482015260009182916001600160a01b0390911690630172a343906044016040805180830381865afa158015610b2f573d6000803e3d6000fd5b505050506040513d601f19601f82011682018060405250810190610b539190611962565b915091508115610c0757600f8054906000610b6d8361198e565b9091555050600754600f546040517fb85cbc790000000000000000000000000000000000000000000000000000000081526001600160a01b039092169163b85cbc7991610bc2913091339189906004016119a7565b6020604051808303816000875af1158015610be1573d6000803e3d6000fd5b505050506040513d601f19601f82011682018060405250810190610c0591906119e3565b505b6005546040517f40c10f19000000000000000000000000000000000000000000000000000000008152336004820152602481018390526001600160a01b03909116906340c10f1990604401600060405180830381600087803b158015610c6c57600080fd5b505af11580156104ef573d6000803e3d6000fd5b6001546001600160a01b03163314610cc85760405162461bcd60e51b815260206004820152600b60248201526a08585d5d1a1bdc9a5e995960aa1b6044820152606401610545565b80600c541015610d1a5760405162461bcd60e51b815260206004820152601360248201527f696e73756669636369656e7420746f6b656e73000000000000000000000000006044820152606401610545565b80600c6000828254610d2c91906119fc565b909155505060065460015460405163a9059cbb60e01b81526001600160a01b0391821660048201526024810184905291169063a9059cbb906044016020604051808303816000875af1158015610d86573d6000803e3d6000fd5b505050506040513d601f19601f82011682018060405250810190610daa919061183f565b5050565b6008546040517ff30e6e9b000000000000000000000000000000000000000000000000000000008152600481018490526001600160a01b038381166024830152600092839283928392839291169063f30e6e9b9060440160a0604051808303816000875af1158015610e24573d6000803e3d6000fd5b505050506040513d601f19601f82011682018060405250810190610e489190611a0f565b60065460405163a9059cbb60e01b81526001600160a01b038d8116600483015260248201889052969b509499509297509095509350919091169063a9059cbb906044016020604051808303816000875af1158015610eaa573d6000803e3d6000fd5b505050506040513d601f19601f82011682018060405250810190610ece919061183f565b506001600160a01b0383166000908152600e602052604081208054849290610ef79084906119fc565b90915550506001600160a01b0383166000908152600e602052604081206001018054869290610f279084906118f9565b9250508190555080600c6000828254610f4091906118f9565b909155505050505050505050565b600080549080610f5d8361198e565b919050555060008060008073__Message_______________________________63ba43ec8687876040518363ffffffff1660e01b8152600401610fa1929190611a59565b600060405180830381865af4158015610fbe573d6000803e3d6000fd5b505050506040513d6000823e601f3d908101601f19168201604052610fe69190810190611a75565b9350935093509350600184036110085760008061100585828487611026565b50505b6002840361101a5761101a8383610dae565b50505050505050505050565b6008546040517f59e6951d000000000000000000000000000000000000000000000000000000008152600481018690526001600160a01b03838116602483015260009283929116906359e6951d9060440160408051808303816000875af1158015611095573d6000803e3d6000fd5b505050506040513d601f19601f820116820180604052508101906110b99190611b13565b6001600160a01b0381166000908152600e60205260408120805493955091935084926110e69084906118f9565b90915550829050851561124d576005546040517f6352211e000000000000000000000000000000000000000000000000000000008152600481018890526001600160a01b03868116921690636352211e90602401602060405180830381865afa158015611157573d6000803e3d6000fd5b505050506040513d601f19601f8201168201806040525081019061117b9190611b38565b6001600160a01b0316146111bf5760405162461bcd60e51b815260206004820152600b60248201526a08585d5d1a1bdc9a5e995960aa1b6044820152606401610545565b6111ca606486611b55565b6111d49084611b77565b6005546040517f42966c68000000000000000000000000000000000000000000000000000000008152600481018990529192506001600160a01b0316906342966c6890602401600060405180830381600087803b15801561123457600080fd5b505af1158015611248573d6000803e3d6000fd5b505050505b60065460405163e1f21c6760e01b81526001600160a01b038681166004830152306024830152604482018490529091169063e1f21c6790606401600060405180830381600087803b1580156112a157600080fd5b505af11580156112b5573d6000803e3d6000fd5b50506006546040516323b872dd60e01b81526001600160a01b0388811660048301523060248301526044820186905290911692506323b872dd91506064016020604051808303816000875af1158015611312573d6000803e3d6000fd5b505050506040513d601f19601f820116820180604052508101906104ef919061183f565b60008083601f84011261134857600080fd5b50813567ffffffffffffffff81111561136057600080fd5b60208301915083602082850101111561137857600080fd5b9250929050565b60008060008060008060008060008060c08b8d03121561139e57600080fd5b8a35995060208b013567ffffffffffffffff808211156113bd57600080fd5b6113c98e838f01611336565b909b50995060408d01359150808211156113e257600080fd5b6113ee8e838f01611336565b909950975060608d013591508082111561140757600080fd5b6114138e838f01611336565b909750955060808d013591508082111561142c57600080fd5b506114398d828e01611336565b9150809450508092505060a08b013590509295989b9194979a5092959850565b60006020828403121561146b57600080fd5b5035919050565b60008060008060008060006080888a03121561148d57600080fd5b87359650602088013567ffffffffffffffff808211156114ac57600080fd5b6114b88b838c01611336565b909850965060408a01359150808211156114d157600080fd5b6114dd8b838c01611336565b909650945060608a01359150808211156114f657600080fd5b506115038a828b01611336565b989b979a50959850939692959293505050565b6001600160a01b03811681146103f557600080fd5b60006020828403121561153d57600080fd5b813561154881611516565b9392505050565b6000806040838503121561156257600080fd5b50508035926020909101359150565b634e487b7160e01b600052604160045260246000fd5b604051601f8201601f1916810167ffffffffffffffff811182821017156115b0576115b0611571565b604052919050565b600067ffffffffffffffff8211156115d2576115d2611571565b50601f01601f191660200190565b600082601f8301126115f157600080fd5b81356116046115ff826115b8565b611587565b81815284602083860101111561161957600080fd5b816020850160208301376000918101602001919091529392505050565b6000806040838503121561164957600080fd5b823567ffffffffffffffff8082111561166157600080fd5b61166d868387016115e0565b9350602085013591508082111561168357600080fd5b50611690858286016115e0565b9150509250929050565b600080604083850312156116ad57600080fd5b82356116b881611516565b915060208301356116c881611516565b809150509250929050565b60005b838110156116ee5781810151838201526020016116d6565b50506000910152565b6000815180845261170f8160208601602086016116d3565b601f01601f19169290920160200192915050565b848152831515602082015260806040820152600061174460808301856116f7565b905082606083015295945050505050565b6000806040838503121561176857600080fd5b82359150602083013567ffffffffffffffff81111561178657600080fd5b611690858286016115e0565b8183823760009101908152919050565b81835281816020850137506000828201602090810191909152601f909101601f19169091010190565b89815260c0602082015260006117e560c083018a8c6117a2565b82810360408401526117f881898b6117a2565b905086606084015282810360808401526118138186886117a2565b9150508260a08301529a9950505050505050505050565b8051801515811461183a57600080fd5b919050565b60006020828403121561185157600080fd5b6115488261182a565b8681526080602082015260006118746080830187896117a2565b82810360408401526118878186886117a2565b915050826060830152979650505050505050565b6001600160a01b03851681526080602082015260006118bd60808301866116f7565b82810360408401526118cf81866116f7565b915050821515606083015295945050505050565b634e487b7160e01b600052601160045260246000fd5b8082018082111561093d5761093d6118e3565b600181811c9082168061192057607f821691505b60208210810361194057634e487b7160e01b600052602260045260246000fd5b50919050565b600082516119588184602087016116d3565b9190910192915050565b6000806040838503121561197557600080fd5b61197e8361182a565b9150602083015190509250929050565b6000600182016119a0576119a06118e3565b5060010190565b60006001600160a01b038087168352808616602084015250836040830152608060608301526119d960808301846116f7565b9695505050505050565b6000602082840312156119f557600080fd5b5051919050565b8181038181111561093d5761093d6118e3565b600080600080600060a08688031215611a2757600080fd5b85519450602086015193506040860151611a4081611516565b6060870151608090970151959894975095949392505050565b602081526000611a6d6020830184866117a2565b949350505050565b60008060008060808587031215611a8b57600080fd5b84519350602085015192506040850151611aa481611516565b606086015190925067ffffffffffffffff811115611ac157600080fd5b8501601f81018713611ad257600080fd5b8051611ae06115ff826115b8565b818152886020838501011115611af557600080fd5b611b068260208301602086016116d3565b9598949750929550505050565b60008060408385031215611b2657600080fd5b8251915060208301516116c881611516565b600060208284031215611b4a57600080fd5b815161154881611516565b600082611b7257634e487b7160e01b600052601260045260246000fd5b500490565b6000816000190483118215151615611b9157611b916118e3565b50029056fea2646970667358221220190eaaa93206256a6a11f7019f96ca3dbf19118d164cf7ec77c51f9616694c6364736f6c63430008100033",
  "immutableReferences": {
    "241": [
      {
        "length": 32,
        "start": 293
      },
      {
        "length": 32,
        "start": 825
      },
      {
        "length": 32,
        "start": 1090
      }
    ],
    "6451": [
      {
        "length": 32,
        "start": 502
      }
    ]
  },
  "source": "// SPDX-License-Identifier: GPL-3.0\npragma solidity >=0.7.0 <0.9.0;\n\nimport {BdlNft} from \"./BdlNft.sol\";\nimport {BdlCertificate} from \"./BdlCertificate.sol\";\nimport {BdlToken} from \"./BdlToken.sol\";\nimport {BdlCourse} from \"./BdlCourse.sol\";\nimport {Staking} from \"./Staking.sol\";\n\nimport {Models} from \"./../base/Models.sol\";\nimport {Base64} from \"./../base/Base64.sol\";\nimport {Message} from \"./../axelar/Message.sol\";\n\nimport {AxelarExecutable} from \"@axelar-network/axelar-gmp-sdk-solidity/contracts/executables/AxelarExecutable.sol\";\nimport {IAxelarGateway} from \"@axelar-network/axelar-gmp-sdk-solidity/contracts/interfaces/IAxelarGateway.sol\";\nimport {IAxelarGasService} from \"@axelar-network/axelar-gmp-sdk-solidity/contracts/interfaces/IAxelarGasService.sol\";\n\nimport {StringToAddress, AddressToString} from \"@axelar-network/axelar-gmp-sdk-solidity/contracts/StringAddressUtils.sol\";\n\nimport \"@openzeppelin/contracts/utils/Strings.sol\";\n\ncontract Buidl is AxelarExecutable {\n    uint public testCount = 0;\n    using StringToAddress for string;\n    using AddressToString for address;\n\n    address private deployer;\n\n    /* source chains */\n    address private polygonAddress;\n    address private fantomAddress;\n\n    /* fee charged on every succesful subscription made */\n    uint256 private subscriptionFee = 8; // percentage rate\n\n    BdlNft private _bdlNft; // nft reward (coupon) contract\n    BdlToken private _bdlToken; // erc20(streamable token) contract\n    BdlCertificate private _bdlCertificate; // erc4973 certificate contract\n    BdlCourse private _bdlCourse; // course contract\n    Staking private _staking; // staking contract\n\n    // creators requirement\n    // these requirement helps us to filter fuds\n    // and abuse of the ecosystem\n    uint256 private creatorStakingFee = 2000 * 10**18;\n    uint256 private creatorStakingDuration = 365 days;\n\n    // earnings made on the platform so far\n    uint256 private platformEarnings = 0;\n\n    // ecosystem users\n    mapping(address => Models.User) public users;\n    mapping(address => Models.Revenue) public revenues;\n\n    // keep track of certificate ID\n    uint256 private certificateID;\n\n    IAxelarGasService public immutable gasReceiver;\n\n    // contructor\n    constructor(\n        address bdlToken,\n        address bdlNft,\n        address bdlCertificate,\n        address bdlCourse,\n        address staking,\n        address gateway_,\n        address gasReceiver_\n    ) AxelarExecutable(gateway_) {\n        deployer = msg.sender;\n\n        _bdlNft = BdlNft(bdlNft);\n        _bdlToken = BdlToken(bdlToken);\n        _bdlCertificate = BdlCertificate(bdlCertificate);\n        _bdlCourse = BdlCourse(bdlCourse);\n        _staking = Staking(staking);\n\n        gasReceiver = IAxelarGasService(gasReceiver_);\n    }\n\n    //  ========= Direct Contract Calls from Binance Network =========== //\n\n    /* creates user metadata */\n    function setAccount(string memory name, string memory photo) public {\n        emit User(msg.sender, name, photo, users[msg.sender].verified);\n    }\n\n    /* stake in the smart contract */\n    function stake(uint256 amount) public {\n        _bdlToken.approve(msg.sender, address(this), amount);\n        _bdlToken.transferFrom(msg.sender, address(this), amount);\n        _staking.stake(\n            msg.sender,\n            amount,\n            block.timestamp + creatorStakingDuration,\n            0\n        );\n    }\n\n    /* unlock creator */\n    function unlockCreator() public notVerified {\n        // check if user has staked min requirement\n        require(\n            _staking.hasStaked(creatorStakingFee, msg.sender),\n            \"!stake_requirement_first\"\n        );\n\n        users[msg.sender].verified = true;\n        emit Creator(msg.sender, true);\n    }\n\n    /* remove creator */\n    function removeCreator() public onlyVerified {\n        users[msg.sender].verified = false;\n        emit Creator(msg.sender, false);\n    }\n\n    /* subscribe to a course */\n    /* params course id */\n    function subscribe(uint id, uint256 nftId) public {\n        uint offPercentage = 0;\n        if (nftId != 0) {\n            // offPercentage = _bdlNft.tokenPercentages[nftId];\n        }\n        _subscribe(id, nftId, offPercentage, msg.sender);\n    }\n\n    /* subscribe to a course */\n    /* params course id */\n    function unSubscribe(uint id) public {\n        _unSubscribe(id, msg.sender);\n    }\n\n    /* deployer to cashout earnings */\n    function withdrawPlatformFee(uint256 amount) public onlyDeployer {\n        require(platformEarnings >= amount, \"insuficcient tokens\");\n        platformEarnings -= amount;\n        _bdlToken.transfer(deployer, amount);\n    }\n\n    function onCourseComplete(uint id, string memory certificateUri) public {\n        (bool isCertificate, uint256 coursePrice) = _bdlCourse.onCourseComplete(\n            id,\n            msg.sender\n        );\n\n        // checks if contents will award subscriber\n        // a certificate for completing their study\n        if (isCertificate) {\n            /* issue certificate to subscriber */\n            certificateID++;\n\n            _bdlCertificate.mint(\n                address(this),\n                msg.sender,\n                certificateID,\n                certificateUri\n            );\n        }\n\n        /*\n         mint the coupon reward nft for\n         user for completion\n        */\n        _bdlNft.mint(msg.sender, coursePrice);\n    }\n\n    // ========== Indirect Contract Calls by AXELAR ============== //\n\n    function _execute(\n        string calldata sourceChain,\n        string calldata sourceAddress,\n        bytes calldata payload\n    ) internal override {\n        // bool isPolygon = compareStrings(sourceChain, \"Polygon\");\n        // bool isFantom = compareStrings(sourceChain, \"Fantom\");\n\n        // if (isPolygon) {\n        //     require(\n        //         sourceAddress.toAddress() == polygonAddress,\n        //         \"!unathorized\"\n        //     );\n        // } else if (isFantom) {\n        //     require(sourceAddress.toAddress() == fantomAddress, \"!unathorized\");\n        // } else {\n        //     require(1 == 2, \"Unkwomn source chain\");\n        // }\n\n        testCount++;\n\n        // reveal payload as message\n        (uint topic, uint id, address sender, string memory extra) = Message\n            .unPackMessage(payload);\n\n        /* message is a subscribe call */\n        if (topic == Message.SUBSCRIBE) {\n            uint offPercentage = 0;\n            // uint256 nftId = stringToUint(extra);\n            uint256 nftId = 0;\n\n            if (nftId != 0) {\n                // offPercentage = _bdlNft.tokenPercentages[nftId];\n            }\n            _subscribe(id, nftId, offPercentage, sender);\n        }\n\n        /* message is an unsubscribe call */\n        if (topic == Message.UN_SUBSCRIBE) {\n            _unSubscribe(id, sender);\n        }\n    }\n\n    // ========== CORE IMPLEMENTIONS =========== //\n\n    /* subscribe to a course */\n    /* params course id */\n    function _subscribe(\n        uint id,\n        uint256 nftId,\n        uint offPercentage,\n        address subscriber\n    ) private {\n        (uint256 price, address creator) = _bdlCourse.subscribe(id, subscriber);\n\n        /* payment are locked in the smart contract */\n        /* the course creator will be able to claim it after two weeks */\n        /* if the course wasn't refunded by the subscriber */\n\n        /* increase creator's unclaimed revenue */\n        revenues[creator].unclaimed += price;\n        uint256 priceCharge = price;\n\n        if (nftId > 0) {\n            // coupon detected\n            // verifies the sender id the true owner\n            require(_bdlNft.ownerOf(nftId) == subscriber, \"!authorized\");\n\n            priceCharge = (price * (offPercentage / 100));\n\n            // burn the nft\n            _bdlNft.burn(nftId);\n        }\n\n        _bdlToken.approve(subscriber, address(this), priceCharge);\n        _bdlToken.transferFrom(subscriber, address(this), priceCharge);\n    }\n\n    /* subscribe to a course */\n    /* params course id  and subscriber address */\n    function _unSubscribe(uint id, address subscriber) private {\n        (\n            uint256 payableAmount,\n            uint256 earnings,\n            address creator,\n            uint256 price,\n            uint256 _platformEarnings\n        ) = _bdlCourse.unSubscribe(id, subscriber);\n\n        // refund the user from the contract\n        _bdlToken.transfer(subscriber, payableAmount);\n\n        // deduct creator's unclaimed revenue\n        revenues[creator].unclaimed -= price;\n\n        // credit creator earnings from the refunded course\n        revenues[creator].claimable += earnings;\n\n        // credit platform from the refunded course\n        platformEarnings += _platformEarnings;\n    }\n\n    // ======== Helpers ======= //\n\n    function compareStrings(string memory a, string memory b)\n        public\n        view\n        returns (bool)\n    {\n        return (keccak256(abi.encodePacked((a))) ==\n            keccak256(abi.encodePacked((b))));\n    }\n\n    // function stringToUint(string s) private  returns (uint) {\n    //     bytes memory b = bytes(s);\n    //     uint result = 0;\n    //     for (uint i = 0; i < b.length; i++) {\n    //         // c = b[i] was not needed\n    //         if (b[i] >= 48 && b[i] <= 57) {\n    //             result = result * 10 + (uint(b[i]) - 48); // bytes and int are not compatible with the operator -.\n    //         }\n    //     }\n    //     return result; // this was missing\n    // }\n\n    // ========= Administration ========== //\n\n    function changeSourceAddresses(address polygon, address fantom)\n        public\n        onlyDeployer\n    {\n        polygonAddress = polygon;\n        fantomAddress = fantom;\n    }\n\n    // ========= Modifiers ========== //\n\n    modifier onlyVerified() {\n        /* only account that has staked atleast 2000 BDL token */\n        require(users[msg.sender].verified, \"!authorized\");\n        _;\n    }\n\n    modifier notVerified() {\n        /* only account that hasn't staked atleast 2000 BDL token */\n        require(!users[msg.sender].verified, \"!authorized\");\n        _;\n    }\n\n    modifier onlyDeployer() {\n        /* only account that deployed the contract */\n        require(msg.sender == deployer, \"!authorized\");\n        _;\n    }\n\n    // == events == //\n    event User(address owner, string name, string photo, bool verified);\n    event Creator(address owner, bool verified);\n}\n",
  "sourcePath": "C:\\Users\\Arogundade Ibrahim\\Documents\\web3\\Buidl\\contracts\\buidl\\Buidl.sol",
  "compiler": {
    "name": "solc",
    "version": "0.8.16+commit.07a7930e.Emscripten.clang"
  },
  "schemaVersion": "3.4.10",
  "updatedAt": "2022-11-10T05:48:52.296Z",
  "networkType": "ethereum",
  "devdoc": {
    "kind": "dev",
    "methods": {},
    "version": 1
  },
  "userdoc": {
    "kind": "user",
    "methods": {},
    "version": 1
  }
}