{
  "contractName": "Buidl",
  "abi": [
    {
      "inputs": [
        {
          "internalType": "address",
          "name": "bdlToken",
          "type": "address"
        },
        {
          "internalType": "address",
          "name": "bdlNft",
          "type": "address"
        },
        {
          "internalType": "address",
          "name": "bdlCertificate",
          "type": "address"
        },
        {
          "internalType": "address",
          "name": "bdlCourse",
          "type": "address"
        },
        {
          "internalType": "address",
          "name": "staking",
          "type": "address"
        },
        {
          "internalType": "address",
          "name": "gateway_",
          "type": "address"
        },
        {
          "internalType": "address",
          "name": "gasReceiver_",
          "type": "address"
        }
      ],
      "stateMutability": "nonpayable",
      "type": "constructor"
    },
    {
      "inputs": [],
      "name": "InvalidAddress",
      "type": "error"
    },
    {
      "inputs": [],
      "name": "NotApprovedByGateway",
      "type": "error"
    },
    {
      "anonymous": false,
      "inputs": [
        {
          "indexed": false,
          "internalType": "address",
          "name": "owner",
          "type": "address"
        },
        {
          "indexed": false,
          "internalType": "bool",
          "name": "verified",
          "type": "bool"
        }
      ],
      "name": "Creator",
      "type": "event"
    },
    {
      "anonymous": false,
      "inputs": [
        {
          "indexed": false,
          "internalType": "address",
          "name": "owner",
          "type": "address"
        },
        {
          "indexed": false,
          "internalType": "string",
          "name": "name",
          "type": "string"
        },
        {
          "indexed": false,
          "internalType": "string",
          "name": "photo",
          "type": "string"
        },
        {
          "indexed": false,
          "internalType": "bool",
          "name": "verified",
          "type": "bool"
        }
      ],
      "name": "User",
      "type": "event"
    },
    {
      "inputs": [
        {
          "internalType": "bytes32",
          "name": "commandId",
          "type": "bytes32"
        },
        {
          "internalType": "string",
          "name": "sourceChain",
          "type": "string"
        },
        {
          "internalType": "string",
          "name": "sourceAddress",
          "type": "string"
        },
        {
          "internalType": "bytes",
          "name": "payload",
          "type": "bytes"
        }
      ],
      "name": "execute",
      "outputs": [],
      "stateMutability": "nonpayable",
      "type": "function"
    },
    {
      "inputs": [
        {
          "internalType": "bytes32",
          "name": "commandId",
          "type": "bytes32"
        },
        {
          "internalType": "string",
          "name": "sourceChain",
          "type": "string"
        },
        {
          "internalType": "string",
          "name": "sourceAddress",
          "type": "string"
        },
        {
          "internalType": "bytes",
          "name": "payload",
          "type": "bytes"
        },
        {
          "internalType": "string",
          "name": "tokenSymbol",
          "type": "string"
        },
        {
          "internalType": "uint256",
          "name": "amount",
          "type": "uint256"
        }
      ],
      "name": "executeWithToken",
      "outputs": [],
      "stateMutability": "nonpayable",
      "type": "function"
    },
    {
      "inputs": [],
      "name": "gasReceiver",
      "outputs": [
        {
          "internalType": "contract IAxelarGasService",
          "name": "",
          "type": "address"
        }
      ],
      "stateMutability": "view",
      "type": "function",
      "constant": true
    },
    {
      "inputs": [],
      "name": "gateway",
      "outputs": [
        {
          "internalType": "contract IAxelarGateway",
          "name": "",
          "type": "address"
        }
      ],
      "stateMutability": "view",
      "type": "function",
      "constant": true
    },
    {
      "inputs": [
        {
          "internalType": "address",
          "name": "",
          "type": "address"
        }
      ],
      "name": "revenues",
      "outputs": [
        {
          "internalType": "uint256",
          "name": "unclaimed",
          "type": "uint256"
        },
        {
          "internalType": "uint256",
          "name": "claimable",
          "type": "uint256"
        },
        {
          "internalType": "uint256",
          "name": "claimed",
          "type": "uint256"
        }
      ],
      "stateMutability": "view",
      "type": "function",
      "constant": true
    },
    {
      "inputs": [
        {
          "internalType": "address",
          "name": "",
          "type": "address"
        }
      ],
      "name": "users",
      "outputs": [
        {
          "internalType": "uint256",
          "name": "id",
          "type": "uint256"
        },
        {
          "internalType": "bool",
          "name": "verified",
          "type": "bool"
        },
        {
          "internalType": "string",
          "name": "photo",
          "type": "string"
        },
        {
          "internalType": "uint256",
          "name": "createdAt",
          "type": "uint256"
        }
      ],
      "stateMutability": "view",
      "type": "function",
      "constant": true
    },
    {
      "inputs": [
        {
          "internalType": "string",
          "name": "name",
          "type": "string"
        },
        {
          "internalType": "string",
          "name": "photo",
          "type": "string"
        }
      ],
      "name": "setAccount",
      "outputs": [],
      "stateMutability": "nonpayable",
      "type": "function"
    },
    {
      "inputs": [
        {
          "internalType": "uint256",
          "name": "amount",
          "type": "uint256"
        }
      ],
      "name": "stake",
      "outputs": [],
      "stateMutability": "nonpayable",
      "type": "function"
    },
    {
      "inputs": [],
      "name": "unlockCreator",
      "outputs": [],
      "stateMutability": "nonpayable",
      "type": "function"
    },
    {
      "inputs": [],
      "name": "removeCreator",
      "outputs": [],
      "stateMutability": "nonpayable",
      "type": "function"
    },
    {
      "inputs": [
        {
          "internalType": "uint256",
          "name": "id",
          "type": "uint256"
        },
        {
          "internalType": "uint256",
          "name": "nftId",
          "type": "uint256"
        }
      ],
      "name": "subscribe",
      "outputs": [],
      "stateMutability": "nonpayable",
      "type": "function"
    },
    {
      "inputs": [
        {
          "internalType": "uint256",
          "name": "id",
          "type": "uint256"
        }
      ],
      "name": "unSubscribe",
      "outputs": [],
      "stateMutability": "nonpayable",
      "type": "function"
    },
    {
      "inputs": [
        {
          "internalType": "uint256",
          "name": "amount",
          "type": "uint256"
        }
      ],
      "name": "withdrawPlatformFee",
      "outputs": [],
      "stateMutability": "nonpayable",
      "type": "function"
    },
    {
      "inputs": [
        {
          "internalType": "uint256",
          "name": "id",
          "type": "uint256"
        },
        {
          "internalType": "string",
          "name": "certificateUri",
          "type": "string"
        }
      ],
      "name": "onCourseComplete",
      "outputs": [],
      "stateMutability": "nonpayable",
      "type": "function"
    },
    {
      "inputs": [
        {
          "internalType": "bytes",
          "name": "_data",
          "type": "bytes"
        }
      ],
      "name": "unPackMessage",
      "outputs": [
        {
          "internalType": "uint256",
          "name": "_topic",
          "type": "uint256"
        },
        {
          "internalType": "uint256",
          "name": "_id",
          "type": "uint256"
        },
        {
          "internalType": "address",
          "name": "_sender",
          "type": "address"
        },
        {
          "internalType": "string",
          "name": "extra",
          "type": "string"
        }
      ],
      "stateMutability": "pure",
      "type": "function",
      "constant": true
    },
    {
      "inputs": [
        {
          "internalType": "string",
          "name": "a",
          "type": "string"
        },
        {
          "internalType": "string",
          "name": "b",
          "type": "string"
        }
      ],
      "name": "compareStrings",
      "outputs": [
        {
          "internalType": "bool",
          "name": "",
          "type": "bool"
        }
      ],
      "stateMutability": "view",
      "type": "function",
      "constant": true
    },
    {
      "inputs": [
        {
          "internalType": "address",
          "name": "polygon",
          "type": "address"
        },
        {
          "internalType": "address",
          "name": "fantom",
          "type": "address"
        }
      ],
      "name": "changeSourceAddresses",
      "outputs": [],
      "stateMutability": "nonpayable",
      "type": "function"
    }
  ],
  "bytecode": "0x60c06040526008600355686c6b935b8bbd4000006009556301e13380600a556000600b553480156200003057600080fd5b5060405162001e2438038062001e24833981016040819052620000539162000115565b816001600160a01b0381166200007c5760405163e6c4247b60e01b815260040160405180910390fd5b6001600160a01b0390811660805260008054336001600160a01b031991821617909155600480548216988316989098179097556005805488169882169890981790975560068054871695881695909517909455506007805485169286169290921790915560088054909316908416179091551660a052620001aa565b80516001600160a01b03811681146200011057600080fd5b919050565b600080600080600080600060e0888a0312156200013157600080fd5b6200013c88620000f8565b96506200014c60208901620000f8565b95506200015c60408901620000f8565b94506200016c60608901620000f8565b93506200017c60808901620000f8565b92506200018c60a08901620000f8565b91506200019c60c08901620000f8565b905092959891949750929550565b60805160a051611c46620001de60003960006101f601526000818161012501528181610345015261044e0152611c466000f3fe608060405234801561001057600080fd5b506004361061011b5760003560e01c806390bf70b0116100b2578063ba43ec8611610081578063c193b2e411610066578063c193b2e4146102cd578063d8d6bfde146102d5578063dde7c190146102e857600080fd5b8063ba43ec8614610287578063bed34bba146102aa57600080fd5b806390bf70b01461022b5780639470cb2b1461023e578063a694fc3a14610251578063a87430ba1461026457600080fd5b806378ae98c8116100ee57806378ae98c81461019f5780637f26fc7d146101e957806380d14b4a146101f1578063843708131461021857600080fd5b8063116191b6146101205780631a98b2e0146101645780632796b03014610179578063491606581461018c575b600080fd5b6101477f000000000000000000000000000000000000000000000000000000000000000081565b6040516001600160a01b0390911681526020015b60405180910390f35b61017761017236600461138e565b6102fb565b005b610177610187366004611468565b6103f7565b61017761019a366004611481565b610404565b6101ce6101ad36600461153a565b600d6020526000908152604090208054600182015460029092015490919083565b6040805193845260208401929092529082015260600161015b565b610177610505565b6101477f000000000000000000000000000000000000000000000000000000000000000081565b61017761022636600461155e565b6105b1565b61017761023936600461164d565b6105ce565b61017761024c3660046116b1565b610628565b61017761025f366004611468565b6106b6565b61027761027236600461153a565b61084a565b60405161015b949392919061173a565b61029a61029536600461176c565b6108ff565b60405161015b94939291906117bd565b6102bd6102b836600461164d565b610933565b604051901515815260200161015b565b61017761098d565b6101776102e33660046117f5565b610b0d565b6101776102f6366004611468565b610ccb565b6000858560405161030d929190611832565b6040519081900381207f1876eed900000000000000000000000000000000000000000000000000000000825291506001600160a01b037f00000000000000000000000000000000000000000000000000000000000000001690631876eed99061038a908e908e908e908e908e9089908d908d908d9060040161186b565b6020604051808303816000875af11580156103a9573d6000803e3d6000fd5b505050506040513d601f19601f820116820180604052508101906103cd91906118df565b6103ea57604051631403112d60e21b815260040160405180910390fd5b5050505050505050505050565b6104018133610df9565b50565b60008282604051610416929190611832565b6040519081900381207f5f6970c300000000000000000000000000000000000000000000000000000000825291506001600160a01b037f00000000000000000000000000000000000000000000000000000000000000001690635f6970c39061048d908b908b908b908b908b9089906004016118fa565b6020604051808303816000875af11580156104ac573d6000803e3d6000fd5b505050506040513d601f19601f820116820180604052508101906104d091906118df565b6104ed57604051631403112d60e21b815260040160405180910390fd5b6104fb878787878787610f99565b5050505050505050565b336000908152600c602052604090206001015460ff1661055a5760405162461bcd60e51b815260206004820152600b60248201526a08585d5d1a1bdc9a5e995960aa1b60448201526064015b60405180910390fd5b336000818152600c60209081526040808320600101805460ff191690558051938452908301919091527fb5763ba23a8384e26e9f2f5bfcd8e3795e4248ce7bb99a61c9ee6488d352a5b191015b60405180910390a1565b600081156105bd575060045b6105c98383833361101e565b505050565b336000818152600c6020526040908190206001015490517f2d3804f6670a9e165ddef24bb7f7345753423a96b66b32c302cfefcda19ad4679261061c9290918691869160ff9091169061193b565b60405180910390a15050565b6000546001600160a01b031633146106705760405162461bcd60e51b815260206004820152600b60248201526a08585d5d1a1bdc9a5e995960aa1b6044820152606401610551565b600180546001600160a01b039384167fffffffffffffffffffffffff00000000000000000000000000000000000000009182161790915560028054929093169116179055565b60055460405163e1f21c6760e01b8152336004820152306024820152604481018390526001600160a01b039091169063e1f21c6790606401600060405180830381600087803b15801561070857600080fd5b505af115801561071c573d6000803e3d6000fd5b50506005546040516323b872dd60e01b8152336004820152306024820152604481018590526001600160a01b0390911692506323b872dd91506064016020604051808303816000875af1158015610777573d6000803e3d6000fd5b505050506040513d601f19601f8201168201806040525081019061079b91906118df565b50600854600a546001600160a01b039091169063ab84bb7890339084906107c29042611999565b6040517fffffffff0000000000000000000000000000000000000000000000000000000060e086901b1681526001600160a01b0390931660048401526024830191909152604482015260006064820152608401600060405180830381600087803b15801561082f57600080fd5b505af1158015610843573d6000803e3d6000fd5b5050505050565b600c60205260009081526040902080546001820154600283018054929360ff90921692610876906119ac565b80601f01602080910402602001604051908101604052809291908181526020018280546108a2906119ac565b80156108ef5780601f106108c4576101008083540402835291602001916108ef565b820191906000526020600020905b8154815290600101906020018083116108d257829003601f168201915b5050505050908060040154905084565b600080600060606000806000808880602001905181019061092091906119e6565b929c919b50995090975095505050505050565b6000816040516020016109469190611a84565b604051602081830303815290604052805190602001208360405160200161096d9190611a84565b604051602081830303815290604052805190602001201490505b92915050565b336000908152600c602052604090206001015460ff16156109de5760405162461bcd60e51b815260206004820152600b60248201526a08585d5d1a1bdc9a5e995960aa1b6044820152606401610551565b6008546009546040517fde36071500000000000000000000000000000000000000000000000000000000815260048101919091523360248201526001600160a01b039091169063de36071590604401602060405180830381865afa158015610a4a573d6000803e3d6000fd5b505050506040513d601f19601f82011682018060405250810190610a6e91906118df565b610aba5760405162461bcd60e51b815260206004820152601860248201527f217374616b655f726571756972656d656e745f666972737400000000000000006044820152606401610551565b336000818152600c60209081526040918290206001908101805460ff1916821790558251938452908301527fb5763ba23a8384e26e9f2f5bfcd8e3795e4248ce7bb99a61c9ee6488d352a5b191016105a7565b6007546040517f0172a3430000000000000000000000000000000000000000000000000000000081526004810184905233602482015260009182916001600160a01b0390911690630172a343906044016040805180830381865afa158015610b79573d6000803e3d6000fd5b505050506040513d601f19601f82011682018060405250810190610b9d9190611aa0565b915091508115610c5157600e8054906000610bb783611acc565b9091555050600654600e546040517fb85cbc790000000000000000000000000000000000000000000000000000000081526001600160a01b039092169163b85cbc7991610c0c91309133918990600401611ae5565b6020604051808303816000875af1158015610c2b573d6000803e3d6000fd5b505050506040513d601f19601f82011682018060405250810190610c4f9190611b17565b505b600480546040517f40c10f190000000000000000000000000000000000000000000000000000000081523392810192909252602482018390526001600160a01b0316906340c10f1990604401600060405180830381600087803b158015610cb757600080fd5b505af11580156104fb573d6000803e3d6000fd5b6000546001600160a01b03163314610d135760405162461bcd60e51b815260206004820152600b60248201526a08585d5d1a1bdc9a5e995960aa1b6044820152606401610551565b80600b541015610d655760405162461bcd60e51b815260206004820152601360248201527f696e73756669636369656e7420746f6b656e73000000000000000000000000006044820152606401610551565b80600b6000828254610d779190611b30565b909155505060055460005460405163a9059cbb60e01b81526001600160a01b0391821660048201526024810184905291169063a9059cbb906044016020604051808303816000875af1158015610dd1573d6000803e3d6000fd5b505050506040513d601f19601f82011682018060405250810190610df591906118df565b5050565b6007546040517ff30e6e9b000000000000000000000000000000000000000000000000000000008152600481018490526001600160a01b038381166024830152600092839283928392839291169063f30e6e9b9060440160a0604051808303816000875af1158015610e6f573d6000803e3d6000fd5b505050506040513d601f19601f82011682018060405250810190610e939190611b43565b60055460405163a9059cbb60e01b81526001600160a01b038d8116600483015260248201889052969b509499509297509095509350919091169063a9059cbb906044016020604051808303816000875af1158015610ef5573d6000803e3d6000fd5b505050506040513d601f19601f82011682018060405250810190610f1991906118df565b506001600160a01b0383166000908152600d602052604081208054849290610f42908490611b30565b90915550506001600160a01b0383166000908152600d602052604081206001018054869290610f72908490611999565b9250508190555080600b6000828254610f8b9190611999565b909155505050505050505050565b600080600080610fde86868080601f0160208091040260200160405190810160405280939291908181526020018383808284376000920191909152506108ff92505050565b93509350935093506001840361100057600080610ffd8582848761101e565b50505b60028403611012576110128383610df9565b50505050505050505050565b6007546040517f59e6951d000000000000000000000000000000000000000000000000000000008152600481018690526001600160a01b03838116602483015260009283929116906359e6951d9060440160408051808303816000875af115801561108d573d6000803e3d6000fd5b505050506040513d601f19601f820116820180604052508101906110b19190611b8d565b6001600160a01b0381166000908152600d60205260408120805493955091935084926110de908490611999565b90915550829050851561125c57600480546040517f6352211e0000000000000000000000000000000000000000000000000000000081529182018890526001600160a01b0386811692911690636352211e90602401602060405180830381865afa158015611150573d6000803e3d6000fd5b505050506040513d601f19601f820116820180604052508101906111749190611bb2565b6001600160a01b0316146111b85760405162461bcd60e51b815260206004820152600b60248201526a08585d5d1a1bdc9a5e995960aa1b6044820152606401610551565b60006111c5606487611bcf565b6111cf9085611bf1565b90506111db8185611b30565b600480546040517f42966c680000000000000000000000000000000000000000000000000000000081529294506001600160a01b0316916342966c6891611228918b910190815260200190565b600060405180830381600087803b15801561124257600080fd5b505af1158015611256573d6000803e3d6000fd5b50505050505b60055460405163e1f21c6760e01b81526001600160a01b038681166004830152306024830152604482018490529091169063e1f21c6790606401600060405180830381600087803b1580156112b057600080fd5b505af11580156112c4573d6000803e3d6000fd5b50506005546040516323b872dd60e01b81526001600160a01b0388811660048301523060248301526044820186905290911692506323b872dd91506064016020604051808303816000875af1158015611321573d6000803e3d6000fd5b505050506040513d601f19601f820116820180604052508101906104fb91906118df565b60008083601f84011261135757600080fd5b50813567ffffffffffffffff81111561136f57600080fd5b60208301915083602082850101111561138757600080fd5b9250929050565b60008060008060008060008060008060c08b8d0312156113ad57600080fd5b8a35995060208b013567ffffffffffffffff808211156113cc57600080fd5b6113d88e838f01611345565b909b50995060408d01359150808211156113f157600080fd5b6113fd8e838f01611345565b909950975060608d013591508082111561141657600080fd5b6114228e838f01611345565b909750955060808d013591508082111561143b57600080fd5b506114488d828e01611345565b9150809450508092505060a08b013590509295989b9194979a5092959850565b60006020828403121561147a57600080fd5b5035919050565b60008060008060008060006080888a03121561149c57600080fd5b87359650602088013567ffffffffffffffff808211156114bb57600080fd5b6114c78b838c01611345565b909850965060408a01359150808211156114e057600080fd5b6114ec8b838c01611345565b909650945060608a013591508082111561150557600080fd5b506115128a828b01611345565b989b979a50959850939692959293505050565b6001600160a01b038116811461040157600080fd5b60006020828403121561154c57600080fd5b813561155781611525565b9392505050565b6000806040838503121561157157600080fd5b50508035926020909101359150565b634e487b7160e01b600052604160045260246000fd5b604051601f8201601f1916810167ffffffffffffffff811182821017156115bf576115bf611580565b604052919050565b600067ffffffffffffffff8211156115e1576115e1611580565b50601f01601f191660200190565b60006116026115fd846115c7565b611596565b905082815283838301111561161657600080fd5b828260208301376000602084830101529392505050565b600082601f83011261163e57600080fd5b611557838335602085016115ef565b6000806040838503121561166057600080fd5b823567ffffffffffffffff8082111561167857600080fd5b6116848683870161162d565b9350602085013591508082111561169a57600080fd5b506116a78582860161162d565b9150509250929050565b600080604083850312156116c457600080fd5b82356116cf81611525565b915060208301356116df81611525565b809150509250929050565b60005b838110156117055781810151838201526020016116ed565b50506000910152565b600081518084526117268160208601602086016116ea565b601f01601f19169290920160200192915050565b848152831515602082015260806040820152600061175b608083018561170e565b905082606083015295945050505050565b60006020828403121561177e57600080fd5b813567ffffffffffffffff81111561179557600080fd5b8201601f810184136117a657600080fd5b6117b5848235602084016115ef565b949350505050565b8481528360208201526001600160a01b03831660408201526080606082015260006117eb608083018461170e565b9695505050505050565b6000806040838503121561180857600080fd5b82359150602083013567ffffffffffffffff81111561182657600080fd5b6116a78582860161162d565b8183823760009101908152919050565b81835281816020850137506000828201602090810191909152601f909101601f19169091010190565b89815260c06020820152600061188560c083018a8c611842565b828103604084015261189881898b611842565b905086606084015282810360808401526118b3818688611842565b9150508260a08301529a9950505050505050505050565b805180151581146118da57600080fd5b919050565b6000602082840312156118f157600080fd5b611557826118ca565b868152608060208201526000611914608083018789611842565b8281036040840152611927818688611842565b915050826060830152979650505050505050565b6001600160a01b038516815260806020820152600061195d608083018661170e565b828103604084015261196f818661170e565b915050821515606083015295945050505050565b634e487b7160e01b600052601160045260246000fd5b8082018082111561098757610987611983565b600181811c908216806119c057607f821691505b6020821081036119e057634e487b7160e01b600052602260045260246000fd5b50919050565b600080600080608085870312156119fc57600080fd5b84519350602085015192506040850151611a1581611525565b606086015190925067ffffffffffffffff811115611a3257600080fd5b8501601f81018713611a4357600080fd5b8051611a516115fd826115c7565b818152886020838501011115611a6657600080fd5b611a778260208301602086016116ea565b9598949750929550505050565b60008251611a968184602087016116ea565b9190910192915050565b60008060408385031215611ab357600080fd5b611abc836118ca565b9150602083015190509250929050565b600060018201611ade57611ade611983565b5060010190565b60006001600160a01b038087168352808616602084015250836040830152608060608301526117eb608083018461170e565b600060208284031215611b2957600080fd5b5051919050565b8181038181111561098757610987611983565b600080600080600060a08688031215611b5b57600080fd5b85519450602086015193506040860151611b7481611525565b6060870151608090970151959894975095949392505050565b60008060408385031215611ba057600080fd5b8251915060208301516116df81611525565b600060208284031215611bc457600080fd5b815161155781611525565b600082611bec57634e487b7160e01b600052601260045260246000fd5b500490565b6000816000190483118215151615611c0b57611c0b611983565b50029056fea26469706673582212208552960085f23f9584f51a2237b97d15495c5002c189891bd69558c019d5e2d464736f6c63430008100033",
  "immutableReferences": {
    "241": [
      {
        "length": 32,
        "start": 293
      },
      {
        "length": 32,
        "start": 837
      },
      {
        "length": 32,
        "start": 1102
      }
    ],
    "6427": [
      {
        "length": 32,
        "start": 502
      }
    ]
  },
  "source": "// SPDX-License-Identifier: GPL-3.0\npragma solidity >=0.7.0 <0.9.0;\n\nimport {BdlNft} from \"./BdlNft.sol\";\nimport {BdlCertificate} from \"./BdlCertificate.sol\";\nimport {BdlToken} from \"./BdlToken.sol\";\nimport {BdlCourse} from \"./BdlCourse.sol\";\nimport {Staking} from \"./Staking.sol\";\n\nimport {Models} from \"./../base/Models.sol\";\nimport {Base64} from \"./../base/Base64.sol\";\n\nimport {AxelarExecutable} from \"@axelar-network/axelar-gmp-sdk-solidity/contracts/executables/AxelarExecutable.sol\";\nimport {IAxelarGateway} from \"@axelar-network/axelar-gmp-sdk-solidity/contracts/interfaces/IAxelarGateway.sol\";\nimport {IAxelarGasService} from \"@axelar-network/axelar-gmp-sdk-solidity/contracts/interfaces/IAxelarGasService.sol\";\n\nimport {StringToAddress, AddressToString} from \"@axelar-network/axelar-gmp-sdk-solidity/contracts/StringAddressUtils.sol\";\n\nimport \"@openzeppelin/contracts/utils/Strings.sol\";\n\ncontract Buidl is AxelarExecutable {\n    // topics\n    uint constant SUBSCRIBE = 1;\n    uint constant UN_SUBSCRIBE = 2;\n    /* course */\n    uint constant CREATE_COURSE = 3;\n    uint constant UPDATE_COURSE = 4;\n    /* user */\n    uint constant CREATE_USER = 5;\n    uint constant UN_LOCK_CREATOR = 6;\n    uint constant LOCK_CREATOR = 7;\n    /* staking */\n    uint constant STAKE = 8;\n    uint constant UN_STAKE = 9;\n    /* revenue */\n    uint constant CLAIM_REVENUE = 10;\n    /* category */\n    uint constant CREATE_CATEGORY = 11;\n\n    using StringToAddress for string;\n    using AddressToString for address;\n\n    address private deployer;\n\n    /* source chains */\n    address private polygonAddress;\n    address private fantomAddress;\n\n    /* fee charged on every succesful subscription made */\n    uint256 private subscriptionFee = 8; // percentage rate\n\n    BdlNft private _bdlNft; // nft reward (coupon) contract\n    BdlToken private _bdlToken; // erc20(streamable token) contract\n    BdlCertificate private _bdlCertificate; // erc4973 certificate contract\n    BdlCourse private _bdlCourse; // course contract\n    Staking private _staking; // staking contract\n\n    // creators requirement\n    // these requirement helps us to filter fuds\n    // and abuse of the ecosystem\n    uint256 private creatorStakingFee = 2000 * 10**18;\n    uint256 private creatorStakingDuration = 365 days;\n\n    // earnings made on the platform so far\n    uint256 private platformEarnings = 0;\n\n    // ecosystem users\n    mapping(address => Models.User) public users;\n    mapping(address => Models.Revenue) public revenues;\n\n    // keep track of certificate ID\n    uint256 private certificateID;\n\n    IAxelarGasService public immutable gasReceiver;\n\n    // contructor\n    constructor(\n        address bdlToken,\n        address bdlNft,\n        address bdlCertificate,\n        address bdlCourse,\n        address staking,\n        address gateway_,\n        address gasReceiver_\n    ) AxelarExecutable(gateway_) {\n        deployer = msg.sender;\n\n        _bdlNft = BdlNft(bdlNft);\n        _bdlToken = BdlToken(bdlToken);\n        _bdlCertificate = BdlCertificate(bdlCertificate);\n        _bdlCourse = BdlCourse(bdlCourse);\n        _staking = Staking(staking);\n\n        gasReceiver = IAxelarGasService(gasReceiver_);\n    }\n\n    //  ========= Direct Contract Calls from Binance Network =========== //\n\n    /* creates user metadata */\n    function setAccount(string memory name, string memory photo) public {\n        emit User(msg.sender, name, photo, users[msg.sender].verified);\n    }\n\n    /* stake in the smart contract */\n    function stake(uint256 amount) public {\n        _bdlToken.approve(msg.sender, address(this), amount);\n        _bdlToken.transferFrom(msg.sender, address(this), amount);\n        _staking.stake(\n            msg.sender,\n            amount,\n            block.timestamp + creatorStakingDuration,\n            0\n        );\n    }\n\n    /* unlock creator */\n    function unlockCreator() public notVerified {\n        // check if user has staked min requirement\n        require(\n            _staking.hasStaked(creatorStakingFee, msg.sender),\n            \"!stake_requirement_first\"\n        );\n\n        users[msg.sender].verified = true;\n        emit Creator(msg.sender, true);\n    }\n\n    /* remove creator */\n    function removeCreator() public onlyVerified {\n        users[msg.sender].verified = false;\n        emit Creator(msg.sender, false);\n    }\n\n    /* subscribe to a course */\n    /* params course id */\n    function subscribe(uint id, uint256 nftId) public {\n        uint offPercentage = 0;\n        if (nftId != 0) {\n            // offPercentage = _bdlNft.tokenPercentages[nftId];\n            // to do random\n            offPercentage = 4;\n        }\n        _subscribe(id, nftId, offPercentage, msg.sender);\n    }\n\n    /* subscribe to a course */\n    /* params course id */\n    function unSubscribe(uint id) public {\n        _unSubscribe(id, msg.sender);\n    }\n\n    /* deployer to cashout earnings */\n    function withdrawPlatformFee(uint256 amount) public onlyDeployer {\n        require(platformEarnings >= amount, \"insuficcient tokens\");\n        platformEarnings -= amount;\n        _bdlToken.transfer(deployer, amount);\n    }\n\n    function onCourseComplete(uint id, string memory certificateUri) public {\n        (bool isCertificate, uint256 coursePrice) = _bdlCourse.onCourseComplete(\n            id,\n            msg.sender\n        );\n\n        // checks if contents will award subscriber\n        // a certificate for completing their study\n        if (isCertificate) {\n            /* issue certificate to subscriber */\n            certificateID++;\n\n            _bdlCertificate.mint(\n                address(this),\n                msg.sender,\n                certificateID,\n                certificateUri\n            );\n        }\n\n        /*\n         mint the coupon reward nft for\n         user for completion\n        */\n        _bdlNft.mint(msg.sender, coursePrice);\n    }\n\n    // ========== Indirect Contract Calls by AXELAR ============== //\n\n    function _execute(\n        string calldata sourceChain,\n        string calldata sourceAddress,\n        bytes calldata payload\n    ) internal override {\n        // bool isPolygon = compareStrings(sourceChain, \"Polygon\");\n        // bool isFantom = compareStrings(sourceChain, \"Fantom\");\n\n        // if (isPolygon) {\n        //     require(\n        //         sourceAddress.toAddress() == polygonAddress,\n        //         \"!unathorized\"\n        //     );\n        // } else if (isFantom) {\n        //     require(sourceAddress.toAddress() == fantomAddress, \"!unathorized\");\n        // } else {\n        //     require(1 == 2, \"Unkwomn source chain\");\n        // }\n\n        // reveal payload as message\n        (uint topic, uint id, address sender, string memory extra) = unPackMessage(payload);\n\n        /* message is a subscribe call */\n        if (topic == SUBSCRIBE) {\n            uint offPercentage = 0;\n            // uint256 nftId = stringToUint(extra);\n            uint256 nftId = 0;\n\n            if (nftId != 0) {\n                // offPercentage = _bdlNft.tokenPercentages[nftId];\n            }\n            _subscribe(id, nftId, offPercentage, sender);\n        }\n\n        /* message is an unsubscribe call */\n        if (topic == UN_SUBSCRIBE) {\n            _unSubscribe(id, sender);\n        }\n    }\n\n    // ========== CORE IMPLEMENTIONS =========== //\n\n    /* subscribe to a course */\n    /* params course id */\n    function _subscribe(\n        uint id,\n        uint256 nftId,\n        uint offPercentage,\n        address subscriber\n    ) private {\n        (uint256 price, address creator) = _bdlCourse.subscribe(id, subscriber);\n\n        /* payment are locked in the smart contract */\n        /* the course creator will be able to claim it after two weeks */\n        /* if the course wasn't refunded by the subscriber */\n\n        /* increase creator's unclaimed revenue */\n        revenues[creator].unclaimed += price;\n        uint256 _price = price;\n\n        if (nftId > 0) {\n            // coupon detected\n            // verifies the sender id the true owner\n            require(_bdlNft.ownerOf(nftId) == subscriber, \"!authorized\");\n\n            uint256 discount = (price * (offPercentage / 100));\n            _price = (price - discount);\n\n            // burn the nft\n            _bdlNft.burn(nftId);\n        }\n\n        _bdlToken.approve(subscriber, address(this), _price);\n        _bdlToken.transferFrom(subscriber, address(this), _price);\n    }\n\n    /* subscribe to a course */\n    /* params course id  and subscriber address */\n    function _unSubscribe(uint id, address subscriber) private {\n        (\n            uint256 payableAmount,\n            uint256 earnings,\n            address creator,\n            uint256 price,\n            uint256 _platformEarnings\n        ) = _bdlCourse.unSubscribe(id, subscriber);\n\n        // refund the user from the contract\n        _bdlToken.transfer(subscriber, payableAmount);\n\n        // deduct creator's unclaimed revenue\n        revenues[creator].unclaimed -= price;\n\n        // credit creator earnings from the refunded course\n        revenues[creator].claimable += earnings;\n\n        // credit platform from the refunded course\n        platformEarnings += _platformEarnings;\n    }\n\n    // ======== Helpers ======= //\n\n    function unPackMessage(bytes memory _data)\n        public\n        pure\n        returns (\n            uint _topic,\n            uint _id,\n            address _sender,\n            string memory extra\n        )\n    {\n        (uint _topic, uint _id, address _sender, string memory extra) = abi\n            .decode(_data, (uint, uint, address, string));\n        return (_topic, _id, _sender, extra);\n    }\n\n    function compareStrings(string memory a, string memory b)\n        public\n        view\n        returns (bool)\n    {\n        return (keccak256(abi.encodePacked((a))) ==\n            keccak256(abi.encodePacked((b))));\n    }\n\n    // function stringToUint(string s) private  returns (uint) {\n    //     bytes memory b = bytes(s);\n    //     uint result = 0;\n    //     for (uint i = 0; i < b.length; i++) {\n    //         // c = b[i] was not needed\n    //         if (b[i] >= 48 && b[i] <= 57) {\n    //             result = result * 10 + (uint(b[i]) - 48); // bytes and int are not compatible with the operator -.\n    //         }\n    //     }\n    //     return result; // this was missing\n    // }\n\n    // ========= Administration ========== //\n\n    function changeSourceAddresses(address polygon, address fantom)\n        public\n        onlyDeployer\n    {\n        polygonAddress = polygon;\n        fantomAddress = fantom;\n    }\n\n    // ========= Modifiers ========== //\n\n    modifier onlyVerified() {\n        /* only account that has staked atleast 2000 BDL token */\n        require(users[msg.sender].verified, \"!authorized\");\n        _;\n    }\n\n    modifier notVerified() {\n        /* only account that hasn't staked atleast 2000 BDL token */\n        require(!users[msg.sender].verified, \"!authorized\");\n        _;\n    }\n\n    modifier onlyDeployer() {\n        /* only account that deployed the contract */\n        require(msg.sender == deployer, \"!authorized\");\n        _;\n    }\n\n    // == events == //\n    event User(address owner, string name, string photo, bool verified);\n    event Creator(address owner, bool verified);\n}\n",
  "sourcePath": "C:\\Users\\Arogundade Ibrahim\\Documents\\web3\\Buidl\\contracts\\buidl\\Buidl.sol",
  "compiler": {
    "name": "solc",
    "version": "0.8.16+commit.07a7930e.Emscripten.clang"
  },
  "schemaVersion": "3.4.10",
  "updatedAt": "2022-11-11T04:45:09.882Z",
  "networkType": "ethereum",
  "devdoc": {
    "kind": "dev",
    "methods": {},
    "version": 1
  },
  "userdoc": {
    "kind": "user",
    "methods": {},
    "version": 1
  }
}