{
  "contractName": "Executable",
  "abi": [
    {
      "inputs": [
        {
          "internalType": "address",
          "name": "gateway_",
          "type": "address"
        },
        {
          "internalType": "address",
          "name": "gasReceiver_",
          "type": "address"
        }
      ],
      "stateMutability": "nonpayable",
      "type": "constructor"
    },
    {
      "inputs": [],
      "name": "InvalidAddress",
      "type": "error"
    },
    {
      "inputs": [],
      "name": "NotApprovedByGateway",
      "type": "error"
    },
    {
      "inputs": [
        {
          "internalType": "bytes32",
          "name": "commandId",
          "type": "bytes32"
        },
        {
          "internalType": "string",
          "name": "sourceChain",
          "type": "string"
        },
        {
          "internalType": "string",
          "name": "sourceAddress",
          "type": "string"
        },
        {
          "internalType": "bytes",
          "name": "payload",
          "type": "bytes"
        }
      ],
      "name": "execute",
      "outputs": [],
      "stateMutability": "nonpayable",
      "type": "function"
    },
    {
      "inputs": [
        {
          "internalType": "bytes32",
          "name": "commandId",
          "type": "bytes32"
        },
        {
          "internalType": "string",
          "name": "sourceChain",
          "type": "string"
        },
        {
          "internalType": "string",
          "name": "sourceAddress",
          "type": "string"
        },
        {
          "internalType": "bytes",
          "name": "payload",
          "type": "bytes"
        },
        {
          "internalType": "string",
          "name": "tokenSymbol",
          "type": "string"
        },
        {
          "internalType": "uint256",
          "name": "amount",
          "type": "uint256"
        }
      ],
      "name": "executeWithToken",
      "outputs": [],
      "stateMutability": "nonpayable",
      "type": "function"
    },
    {
      "inputs": [],
      "name": "gasReceiver",
      "outputs": [
        {
          "internalType": "contract IAxelarGasService",
          "name": "",
          "type": "address"
        }
      ],
      "stateMutability": "view",
      "type": "function"
    },
    {
      "inputs": [],
      "name": "gateway",
      "outputs": [
        {
          "internalType": "contract IAxelarGateway",
          "name": "",
          "type": "address"
        }
      ],
      "stateMutability": "view",
      "type": "function"
    },
    {
      "inputs": [
        {
          "internalType": "string",
          "name": "destinationChain",
          "type": "string"
        },
        {
          "internalType": "string",
          "name": "destinationAddress",
          "type": "string"
        },
        {
          "internalType": "uint256",
          "name": "id",
          "type": "uint256"
        }
      ],
      "name": "subscribe",
      "outputs": [],
      "stateMutability": "payable",
      "type": "function"
    }
  ],
  "bytecode": "0x60c060405234801561001057600080fd5b50604051610be4380380610be483398101604081905261002f9161008b565b816001600160a01b0381166100575760405163e6c4247b60e01b815260040160405180910390fd5b6001600160a01b039081166080521660a052506100be565b80516001600160a01b038116811461008657600080fd5b919050565b6000806040838503121561009e57600080fd5b6100a78361006f565b91506100b56020840161006f565b90509250929050565b60805160a051610ae66100fe60003960008181610110015261044c01526000818160710152818161019c015281816102a501526104ff0152610ae66000f3fe60806040526004361061005a5760003560e01c8063491606581161004357806349160658146100de57806380d14b4a146100fe578063f4405d451461013257600080fd5b8063116191b61461005f5780631a98b2e0146100bc575b600080fd5b34801561006b57600080fd5b506100937f000000000000000000000000000000000000000000000000000000000000000081565b60405173ffffffffffffffffffffffffffffffffffffffff909116815260200160405180910390f35b3480156100c857600080fd5b506100dc6100d73660046105b3565b610145565b005b3480156100ea57600080fd5b506100dc6100f936600461068d565b61024e565b34801561010a57600080fd5b506100937f000000000000000000000000000000000000000000000000000000000000000081565b6100dc610140366004610731565b61034e565b600085856040516101579291906107a5565b6040519081900381207f1876eed9000000000000000000000000000000000000000000000000000000008252915073ffffffffffffffffffffffffffffffffffffffff7f00000000000000000000000000000000000000000000000000000000000000001690631876eed9906101e1908e908e908e908e908e9089908d908d908d906004016107de565b6020604051808303816000875af1158015610200573d6000803e3d6000fd5b505050506040513d601f19601f82011682018060405250810190610224919061083d565b61024157604051631403112d60e21b815260040160405180910390fd5b5050505050505050505050565b600082826040516102609291906107a5565b6040519081900381207f5f6970c3000000000000000000000000000000000000000000000000000000008252915073ffffffffffffffffffffffffffffffffffffffff7f00000000000000000000000000000000000000000000000000000000000000001690635f6970c3906102e4908b908b908b908b908b908990600401610866565b6020604051808303816000875af1158015610303573d6000803e3d6000fd5b505050506040513d601f19601f82011682018060405250810190610327919061083d565b61034457604051631403112d60e21b815260040160405180910390fd5b5050505050505050565b6040805160208101839052338183015281518082038301815260608201928390527fb2b82ff50000000000000000000000000000000000000000000000000000000090925260009073__Message_______________________________9063b2b82ff5906103c290849086906064016108f7565b600060405180830381865af41580156103df573d6000803e3d6000fd5b505050506040513d6000823e601f3d908101601f19168201604052610407919081019061094c565b905034156104c2576040517f0c93e3bb00000000000000000000000000000000000000000000000000000000815273ffffffffffffffffffffffffffffffffffffffff7f00000000000000000000000000000000000000000000000000000000000000001690630c93e3bb90349061048f9030908c908c908c908c908a9033906004016109f9565b6000604051808303818588803b1580156104a857600080fd5b505af11580156104bc573d6000803e3d6000fd5b50505050505b6040517f1c92115f00000000000000000000000000000000000000000000000000000000815273ffffffffffffffffffffffffffffffffffffffff7f00000000000000000000000000000000000000000000000000000000000000001690631c92115f9061053c908a908a908a908a908890600401610a69565b600060405180830381600087803b15801561055657600080fd5b505af1158015610241573d6000803e3d6000fd5b60008083601f84011261057c57600080fd5b50813567ffffffffffffffff81111561059457600080fd5b6020830191508360208285010111156105ac57600080fd5b9250929050565b60008060008060008060008060008060c08b8d0312156105d257600080fd5b8a35995060208b013567ffffffffffffffff808211156105f157600080fd5b6105fd8e838f0161056a565b909b50995060408d013591508082111561061657600080fd5b6106228e838f0161056a565b909950975060608d013591508082111561063b57600080fd5b6106478e838f0161056a565b909750955060808d013591508082111561066057600080fd5b5061066d8d828e0161056a565b9150809450508092505060a08b013590509295989b9194979a5092959850565b60008060008060008060006080888a0312156106a857600080fd5b87359650602088013567ffffffffffffffff808211156106c757600080fd5b6106d38b838c0161056a565b909850965060408a01359150808211156106ec57600080fd5b6106f88b838c0161056a565b909650945060608a013591508082111561071157600080fd5b5061071e8a828b0161056a565b989b979a50959850939692959293505050565b60008060008060006060868803121561074957600080fd5b853567ffffffffffffffff8082111561076157600080fd5b61076d89838a0161056a565b9097509550602088013591508082111561078657600080fd5b506107938882890161056a565b96999598509660400135949350505050565b8183823760009101908152919050565b81835281816020850137506000828201602090810191909152601f909101601f19169091010190565b89815260c0602082015260006107f860c083018a8c6107b5565b828103604084015261080b81898b6107b5565b905086606084015282810360808401526108268186886107b5565b9150508260a08301529a9950505050505050505050565b60006020828403121561084f57600080fd5b8151801515811461085f57600080fd5b9392505050565b8681526080602082015260006108806080830187896107b5565b82810360408401526108938186886107b5565b915050826060830152979650505050505050565b60005b838110156108c25781810151838201526020016108aa565b50506000910152565b600081518084526108e38160208601602086016108a7565b601f01601f19169290920160200192915050565b6000600b841061091757634e487b7160e01b600052602160045260246000fd5b8382526040602083015261092e60408301846108cb565b949350505050565b634e487b7160e01b600052604160045260246000fd5b60006020828403121561095e57600080fd5b815167ffffffffffffffff8082111561097657600080fd5b818401915084601f83011261098a57600080fd5b81518181111561099c5761099c610936565b604051601f8201601f19908116603f011681019083821181831017156109c4576109c4610936565b816040528281528760208487010111156109dd57600080fd5b6109ee8360208301602088016108a7565b979650505050505050565b600073ffffffffffffffffffffffffffffffffffffffff808a16835260a06020840152610a2a60a08401898b6107b5565b8381036040850152610a3d81888a6107b5565b90508381036060850152610a5181876108cb565b92505080841660808401525098975050505050505050565b606081526000610a7d6060830187896107b5565b8281036020840152610a908186886107b5565b90508281036040840152610aa481856108cb565b9897505050505050505056fea264697066735822122065fb361c8fc7a9a2ef0a90abffc1196fcf0b2d31b3d7112b9d312976e492712364736f6c63430008100033",
  "immutableReferences": {
    "10": [
      {
        "length": 32,
        "start": 113
      },
      {
        "length": 32,
        "start": 412
      },
      {
        "length": 32,
        "start": 677
      },
      {
        "length": 32,
        "start": 1279
      }
    ],
    "3161": [
      {
        "length": 32,
        "start": 272
      },
      {
        "length": 32,
        "start": 1100
      }
    ]
  },
  "source": "// SPDX-License-Identifier: GPL-3.0\npragma solidity >=0.7.0 <0.9.0;\n\nimport {AxelarExecutable} from \"@axelar-network/axelar-gmp-sdk-solidity/contracts/executables/AxelarExecutable.sol\";\nimport {IAxelarGateway} from \"@axelar-network/axelar-gmp-sdk-solidity/contracts/interfaces/IAxelarGateway.sol\";\nimport {IAxelarGasService} from \"@axelar-network/axelar-gmp-sdk-solidity/contracts/interfaces/IAxelarGasService.sol\";\n\nimport {Message} from \"./Message.sol\";\n\ncontract Executable is AxelarExecutable {\n    IAxelarGasService public immutable gasReceiver;\n\n    constructor(address gateway_, address gasReceiver_)\n        AxelarExecutable(gateway_)\n    {\n        gasReceiver = IAxelarGasService(gasReceiver_);\n    }\n\n    function subscribe(\n        string calldata destinationChain,\n        string calldata destinationAddress,\n        uint id\n    ) payable public {\n        bytes memory message = abi.encode(id, msg.sender);\n        bytes memory payload = Message.packMessage(Message.Title.SUBSCRIBE, message);\n\n        if (msg.value > 0) {\n            gasReceiver.payNativeGasForContractCall{value: msg.value}(\n                address(this),\n                destinationChain,\n                destinationAddress,\n                payload,\n                msg.sender\n            );\n        }\n        gateway.callContract(destinationChain, destinationAddress, payload);\n    }\n}\n",
  "sourcePath": "C:\\Users\\Arogundade Ibrahim\\Documents\\web3\\Buidl\\contracts\\axelar\\Executable.sol",
  "compiler": {
    "name": "solc",
    "version": "0.8.16+commit.07a7930e.Emscripten.clang"
  },
  "schemaVersion": "3.4.10",
  "updatedAt": "2022-11-03T14:33:41.636Z",
  "devdoc": {
    "kind": "dev",
    "methods": {},
    "version": 1
  },
  "userdoc": {
    "kind": "user",
    "methods": {},
    "version": 1
  }
}