{
  "contractName": "MessageSender",
  "abi": [
    {
      "inputs": [
        {
          "internalType": "address",
          "name": "gateway_",
          "type": "address"
        },
        {
          "internalType": "address",
          "name": "gasReceiver_",
          "type": "address"
        },
        {
          "internalType": "string",
          "name": "destinationChain_",
          "type": "string"
        },
        {
          "internalType": "string",
          "name": "destinationAddress_",
          "type": "string"
        }
      ],
      "stateMutability": "nonpayable",
      "type": "constructor"
    },
    {
      "inputs": [],
      "name": "InvalidAddress",
      "type": "error"
    },
    {
      "inputs": [],
      "name": "NotApprovedByGateway",
      "type": "error"
    },
    {
      "inputs": [
        {
          "internalType": "bytes32",
          "name": "commandId",
          "type": "bytes32"
        },
        {
          "internalType": "string",
          "name": "sourceChain",
          "type": "string"
        },
        {
          "internalType": "string",
          "name": "sourceAddress",
          "type": "string"
        },
        {
          "internalType": "bytes",
          "name": "payload",
          "type": "bytes"
        }
      ],
      "name": "execute",
      "outputs": [],
      "stateMutability": "nonpayable",
      "type": "function"
    },
    {
      "inputs": [
        {
          "internalType": "bytes32",
          "name": "commandId",
          "type": "bytes32"
        },
        {
          "internalType": "string",
          "name": "sourceChain",
          "type": "string"
        },
        {
          "internalType": "string",
          "name": "sourceAddress",
          "type": "string"
        },
        {
          "internalType": "bytes",
          "name": "payload",
          "type": "bytes"
        },
        {
          "internalType": "string",
          "name": "tokenSymbol",
          "type": "string"
        },
        {
          "internalType": "uint256",
          "name": "amount",
          "type": "uint256"
        }
      ],
      "name": "executeWithToken",
      "outputs": [],
      "stateMutability": "nonpayable",
      "type": "function"
    },
    {
      "inputs": [],
      "name": "gasReceiver",
      "outputs": [
        {
          "internalType": "contract IAxelarGasService",
          "name": "",
          "type": "address"
        }
      ],
      "stateMutability": "view",
      "type": "function",
      "constant": true
    },
    {
      "inputs": [],
      "name": "gateway",
      "outputs": [
        {
          "internalType": "contract IAxelarGateway",
          "name": "",
          "type": "address"
        }
      ],
      "stateMutability": "view",
      "type": "function",
      "constant": true
    },
    {
      "inputs": [
        {
          "internalType": "uint256",
          "name": "id",
          "type": "uint256"
        },
        {
          "internalType": "uint256",
          "name": "nftId",
          "type": "uint256"
        }
      ],
      "name": "subscribe",
      "outputs": [],
      "stateMutability": "payable",
      "type": "function",
      "payable": true
    },
    {
      "inputs": [
        {
          "internalType": "uint256",
          "name": "id",
          "type": "uint256"
        }
      ],
      "name": "unSubscribe",
      "outputs": [],
      "stateMutability": "payable",
      "type": "function",
      "payable": true
    }
  ],
  "bytecode": "0x60c06040523480156200001157600080fd5b50604051620012193803806200121983398101604081905262000034916200017a565b836001600160a01b0381166200005d5760405163e6c4247b60e01b815260040160405180910390fd5b6001600160a01b03908116608052831660a05260006200007e838262000299565b5060016200008d828262000299565b505050505062000365565b80516001600160a01b0381168114620000b057600080fd5b919050565b634e487b7160e01b600052604160045260246000fd5b600082601f830112620000dd57600080fd5b81516001600160401b0380821115620000fa57620000fa620000b5565b604051601f8301601f19908116603f01168101908282118183101715620001255762000125620000b5565b816040528381526020925086838588010111156200014257600080fd5b600091505b8382101562000166578582018301518183018401529082019062000147565b600093810190920192909252949350505050565b600080600080608085870312156200019157600080fd5b6200019c8562000098565b9350620001ac6020860162000098565b60408601519093506001600160401b0380821115620001ca57600080fd5b620001d888838901620000cb565b93506060870151915080821115620001ef57600080fd5b50620001fe87828801620000cb565b91505092959194509250565b600181811c908216806200021f57607f821691505b6020821081036200024057634e487b7160e01b600052602260045260246000fd5b50919050565b601f8211156200029457600081815260208120601f850160051c810160208610156200026f5750805b601f850160051c820191505b8181101562000290578281556001016200027b565b5050505b505050565b81516001600160401b03811115620002b557620002b5620000b5565b620002cd81620002c684546200020a565b8462000246565b602080601f831160018114620003055760008415620002ec5750858301515b600019600386901b1c1916600185901b17855562000290565b600085815260208120601f198616915b82811015620003365788860151825594840194600190910190840162000315565b5085821015620003555787850151600019600388901b60f8161c191681555b5050505050600190811b01905550565b60805160a051610e65620003b4600039600081816101210152818161032001526105bb015260008181607c015281816101a0015281816103ab0152818161046601526106460152610e656000f3fe6080604052600436106100655760003560e01c8063491606581161004357806349160658146100ef57806380d14b4a1461010f578063843708131461014357600080fd5b8063116191b61461006a5780631a98b2e0146100ba5780632796b030146100dc575b600080fd5b34801561007657600080fd5b5061009e7f000000000000000000000000000000000000000000000000000000000000000081565b6040516001600160a01b03909116815260200160405180910390f35b3480156100c657600080fd5b506100da6100d536600461083e565b610156565b005b6100da6100ea366004610918565b610252565b3480156100fb57600080fd5b506100da61010a366004610931565b61041c565b34801561011b57600080fd5b5061009e7f000000000000000000000000000000000000000000000000000000000000000081565b6100da6101513660046109d5565b61050f565b600085856040516101689291906109f7565b6040519081900381207f1876eed900000000000000000000000000000000000000000000000000000000825291506001600160a01b037f00000000000000000000000000000000000000000000000000000000000000001690631876eed9906101e5908e908e908e908e908e9089908d908d908d90600401610a30565b6020604051808303816000875af1158015610204573d6000803e3d6000fd5b505050506040513d601f19601f820116820180604052508101906102289190610a8f565b61024557604051631403112d60e21b815260040160405180910390fd5b5050505050505050505050565b6040517f519921b50000000000000000000000000000000000000000000000000000000081526002600482015260248101829052336044820152608060648201526000608482018190529073__Message_______________________________9063519921b59060a401600060405180830381865af41580156102d9573d6000803e3d6000fd5b505050506040513d6000823e601f3d908101601f191682016040526103019190810190610af2565b9050341561039457604051630c93e3bb60e01b81526001600160a01b037f00000000000000000000000000000000000000000000000000000000000000001690630c93e3bb90349061036190309060009060019088903390600401610c6f565b6000604051808303818588803b15801561037a57600080fd5b505af115801561038e573d6000803e3d6000fd5b50505050505b604051631c92115f60e01b81526001600160a01b037f00000000000000000000000000000000000000000000000000000000000000001690631c92115f906103e6906000906001908690600401610cce565b600060405180830381600087803b15801561040057600080fd5b505af1158015610414573d6000803e3d6000fd5b505050505050565b6000828260405161042e9291906109f7565b6040519081900381207f5f6970c300000000000000000000000000000000000000000000000000000000825291506001600160a01b037f00000000000000000000000000000000000000000000000000000000000000001690635f6970c3906104a5908b908b908b908b908b908990600401610d11565b6020604051808303816000875af11580156104c4573d6000803e3d6000fd5b505050506040513d601f19601f820116820180604052508101906104e89190610a8f565b61050557604051631403112d60e21b815260040160405180910390fd5b5050505050505050565b600073__Message_______________________________63519921b560018533610538876106b8565b6040518563ffffffff1660e01b81526004016105579493929190610d52565b600060405180830381865af4158015610574573d6000803e3d6000fd5b505050506040513d6000823e601f3d908101601f1916820160405261059c9190810190610af2565b9050341561062f57604051630c93e3bb60e01b81526001600160a01b037f00000000000000000000000000000000000000000000000000000000000000001690630c93e3bb9034906105fc90309060009060019088903390600401610c6f565b6000604051808303818588803b15801561061557600080fd5b505af1158015610629573d6000803e3d6000fd5b50505050505b604051631c92115f60e01b81526001600160a01b037f00000000000000000000000000000000000000000000000000000000000000001690631c92115f90610681906000906001908690600401610cce565b600060405180830381600087803b15801561069b57600080fd5b505af11580156106af573d6000803e3d6000fd5b50505050505050565b6060816000036106fb57505060408051808201909152600181527f3000000000000000000000000000000000000000000000000000000000000000602082015290565b8160005b8115610725578061070f81610d96565b915061071e9050600a83610dc5565b91506106ff565b60008167ffffffffffffffff81111561074057610740610ab8565b6040519080825280601f01601f19166020018201604052801561076a576020820181803683370190505b5090505b84156107ed5761077f600183610dd9565b915061078c600a86610df2565b610797906030610e06565b60f81b8183815181106107ac576107ac610e19565b60200101907effffffffffffffffffffffffffffffffffffffffffffffffffffffffffffff1916908160001a9053506107e6600a86610dc5565b945061076e565b949350505050565b60008083601f84011261080757600080fd5b50813567ffffffffffffffff81111561081f57600080fd5b60208301915083602082850101111561083757600080fd5b9250929050565b60008060008060008060008060008060c08b8d03121561085d57600080fd5b8a35995060208b013567ffffffffffffffff8082111561087c57600080fd5b6108888e838f016107f5565b909b50995060408d01359150808211156108a157600080fd5b6108ad8e838f016107f5565b909950975060608d01359150808211156108c657600080fd5b6108d28e838f016107f5565b909750955060808d01359150808211156108eb57600080fd5b506108f88d828e016107f5565b9150809450508092505060a08b013590509295989b9194979a5092959850565b60006020828403121561092a57600080fd5b5035919050565b60008060008060008060006080888a03121561094c57600080fd5b87359650602088013567ffffffffffffffff8082111561096b57600080fd5b6109778b838c016107f5565b909850965060408a013591508082111561099057600080fd5b61099c8b838c016107f5565b909650945060608a01359150808211156109b557600080fd5b506109c28a828b016107f5565b989b979a50959850939692959293505050565b600080604083850312156109e857600080fd5b50508035926020909101359150565b8183823760009101908152919050565b81835281816020850137506000828201602090810191909152601f909101601f19169091010190565b89815260c060208201526000610a4a60c083018a8c610a07565b8281036040840152610a5d81898b610a07565b90508660608401528281036080840152610a78818688610a07565b9150508260a08301529a9950505050505050505050565b600060208284031215610aa157600080fd5b81518015158114610ab157600080fd5b9392505050565b634e487b7160e01b600052604160045260246000fd5b60005b83811015610ae9578181015183820152602001610ad1565b50506000910152565b600060208284031215610b0457600080fd5b815167ffffffffffffffff80821115610b1c57600080fd5b818401915084601f830112610b3057600080fd5b815181811115610b4257610b42610ab8565b604051601f8201601f19908116603f01168101908382118183101715610b6a57610b6a610ab8565b81604052828152876020848701011115610b8357600080fd5b610b94836020830160208801610ace565b979650505050505050565b8054600090600181811c9080831680610bb957607f831692505b60208084108203610bda57634e487b7160e01b600052602260045260246000fd5b83885260208801828015610bf55760018114610c0b57610c36565b60ff198716825285151560051b82019750610c36565b60008981526020902060005b87811015610c3057815484820152908601908401610c17565b83019850505b5050505050505092915050565b60008151808452610c5b816020860160208601610ace565b601f01601f19169290920160200192915050565b60006001600160a01b03808816835260a06020840152610c9260a0840188610b9f565b8381036040850152610ca48188610b9f565b90508381036060850152610cb88187610c43565b9250508084166080840152509695505050505050565b606081526000610ce16060830186610b9f565b8281036020840152610cf38186610b9f565b90508281036040840152610d078185610c43565b9695505050505050565b868152608060208201526000610d2b608083018789610a07565b8281036040840152610d3e818688610a07565b915050826060830152979650505050505050565b8481528360208201526001600160a01b0383166040820152608060608201526000610d076080830184610c43565b634e487b7160e01b600052601160045260246000fd5b600060018201610da857610da8610d80565b5060010190565b634e487b7160e01b600052601260045260246000fd5b600082610dd457610dd4610daf565b500490565b81810381811115610dec57610dec610d80565b92915050565b600082610e0157610e01610daf565b500690565b80820180821115610dec57610dec610d80565b634e487b7160e01b600052603260045260246000fdfea2646970667358221220675608c3df09f1998fc416499e555da833cdb05896745d2bbeace98c9b9cf2bc64736f6c63430008100033",
  "immutableReferences": {
    "241": [
      {
        "length": 32,
        "start": 124
      },
      {
        "length": 32,
        "start": 416
      },
      {
        "length": 32,
        "start": 939
      },
      {
        "length": 32,
        "start": 1126
      },
      {
        "length": 32,
        "start": 1606
      }
    ],
    "4842": [
      {
        "length": 32,
        "start": 289
      },
      {
        "length": 32,
        "start": 800
      },
      {
        "length": 32,
        "start": 1467
      }
    ]
  },
  "source": "// SPDX-License-Identifier: GPL-3.0\npragma solidity >=0.7.0 <0.9.0;\n\nimport {AxelarExecutable} from \"@axelar-network/axelar-gmp-sdk-solidity/contracts/executables/AxelarExecutable.sol\";\nimport {IAxelarGateway} from \"@axelar-network/axelar-gmp-sdk-solidity/contracts/interfaces/IAxelarGateway.sol\";\nimport {IAxelarGasService} from \"@axelar-network/axelar-gmp-sdk-solidity/contracts/interfaces/IAxelarGasService.sol\";\n\nimport {Message} from \"./Message.sol\";\nimport \"@openzeppelin/contracts/utils/Strings.sol\";\n\n// message receiver @Buidl.sol\n\ncontract MessageSender is AxelarExecutable {\n    /* axelar */\n    IAxelarGasService public immutable gasReceiver;\n\n    /* destination */\n    string private destinationChain;\n    string private destinationAddress;\n\n    constructor(\n        address gateway_,\n        address gasReceiver_,\n        string memory destinationChain_,\n        string memory destinationAddress_\n    ) AxelarExecutable(gateway_) {\n        gasReceiver = IAxelarGasService(gasReceiver_);\n\n        destinationChain = destinationChain_;\n        destinationAddress = destinationAddress_;\n    }\n\n    /* @param id == the course id on bsc testnet */\n    function subscribe(uint id, uint256 nftId) public payable {\n        bytes memory payload = Message.packMessage(Message.SUBSCRIBE, id, msg.sender, Strings.toString(nftId));\n\n        if (msg.value > 0) {\n            gasReceiver.payNativeGasForContractCall{value: msg.value}(\n                address(this),\n                destinationChain,\n                destinationAddress,\n                payload,\n                msg.sender\n            );\n        }\n\n        gateway.callContract(destinationChain, destinationAddress, payload);\n    }\n\n    /* @param id == the course id on bsc testnet */\n    function unSubscribe(uint id) public payable {\n        bytes memory payload = Message.packMessage(Message.UN_SUBSCRIBE, id, msg.sender, \"\");\n\n        if (msg.value > 0) {\n            gasReceiver.payNativeGasForContractCall{value: msg.value}(\n                address(this),\n                destinationChain,\n                destinationAddress,\n                payload,\n                msg.sender\n            );\n        }\n\n        gateway.callContract(destinationChain, destinationAddress, payload);\n    }\n}\n",
  "sourcePath": "C:\\Users\\Arogundade Ibrahim\\Documents\\web3\\Buidl\\contracts\\axelar\\MessageSender.sol",
  "compiler": {
    "name": "solc",
    "version": "0.8.16+commit.07a7930e.Emscripten.clang"
  },
  "schemaVersion": "3.4.10",
  "updatedAt": "2022-11-10T06:13:56.179Z",
  "networkType": "ethereum",
  "devdoc": {
    "kind": "dev",
    "methods": {},
    "version": 1
  },
  "userdoc": {
    "kind": "user",
    "methods": {},
    "version": 1
  }
}