{
  "contractName": "MessageSender",
  "abi": [
    {
      "inputs": [
        {
          "internalType": "address",
          "name": "gateway_",
          "type": "address"
        },
        {
          "internalType": "address",
          "name": "gasReceiver_",
          "type": "address"
        },
        {
          "internalType": "string",
          "name": "destinationChain_",
          "type": "string"
        },
        {
          "internalType": "string",
          "name": "destinationAddress_",
          "type": "string"
        }
      ],
      "stateMutability": "nonpayable",
      "type": "constructor"
    },
    {
      "inputs": [],
      "name": "InvalidAddress",
      "type": "error"
    },
    {
      "inputs": [],
      "name": "NotApprovedByGateway",
      "type": "error"
    },
    {
      "inputs": [
        {
          "internalType": "bytes32",
          "name": "commandId",
          "type": "bytes32"
        },
        {
          "internalType": "string",
          "name": "sourceChain",
          "type": "string"
        },
        {
          "internalType": "string",
          "name": "sourceAddress",
          "type": "string"
        },
        {
          "internalType": "bytes",
          "name": "payload",
          "type": "bytes"
        }
      ],
      "name": "execute",
      "outputs": [],
      "stateMutability": "nonpayable",
      "type": "function"
    },
    {
      "inputs": [
        {
          "internalType": "bytes32",
          "name": "commandId",
          "type": "bytes32"
        },
        {
          "internalType": "string",
          "name": "sourceChain",
          "type": "string"
        },
        {
          "internalType": "string",
          "name": "sourceAddress",
          "type": "string"
        },
        {
          "internalType": "bytes",
          "name": "payload",
          "type": "bytes"
        },
        {
          "internalType": "string",
          "name": "tokenSymbol",
          "type": "string"
        },
        {
          "internalType": "uint256",
          "name": "amount",
          "type": "uint256"
        }
      ],
      "name": "executeWithToken",
      "outputs": [],
      "stateMutability": "nonpayable",
      "type": "function"
    },
    {
      "inputs": [],
      "name": "gasReceiver",
      "outputs": [
        {
          "internalType": "contract IAxelarGasService",
          "name": "",
          "type": "address"
        }
      ],
      "stateMutability": "view",
      "type": "function",
      "constant": true
    },
    {
      "inputs": [],
      "name": "gateway",
      "outputs": [
        {
          "internalType": "contract IAxelarGateway",
          "name": "",
          "type": "address"
        }
      ],
      "stateMutability": "view",
      "type": "function",
      "constant": true
    },
    {
      "inputs": [
        {
          "internalType": "uint256",
          "name": "id",
          "type": "uint256"
        },
        {
          "internalType": "uint256",
          "name": "nftId",
          "type": "uint256"
        }
      ],
      "name": "subscribe",
      "outputs": [],
      "stateMutability": "payable",
      "type": "function",
      "payable": true
    },
    {
      "inputs": [
        {
          "internalType": "uint256",
          "name": "id",
          "type": "uint256"
        }
      ],
      "name": "unSubscribe",
      "outputs": [],
      "stateMutability": "payable",
      "type": "function",
      "payable": true
    },
    {
      "inputs": [
        {
          "internalType": "uint256",
          "name": "_topic",
          "type": "uint256"
        },
        {
          "internalType": "uint256",
          "name": "_id",
          "type": "uint256"
        },
        {
          "internalType": "address",
          "name": "_sender",
          "type": "address"
        },
        {
          "internalType": "string",
          "name": "extra",
          "type": "string"
        }
      ],
      "name": "packMessage",
      "outputs": [
        {
          "internalType": "bytes",
          "name": "",
          "type": "bytes"
        }
      ],
      "stateMutability": "pure",
      "type": "function",
      "constant": true
    }
  ],
  "bytecode": "0x60c06040523480156200001157600080fd5b50604051620011ec380380620011ec83398101604081905262000034916200017a565b836001600160a01b0381166200005d5760405163e6c4247b60e01b815260040160405180910390fd5b6001600160a01b03908116608052831660a05260006200007e838262000299565b5060016200008d828262000299565b505050505062000365565b80516001600160a01b0381168114620000b057600080fd5b919050565b634e487b7160e01b600052604160045260246000fd5b600082601f830112620000dd57600080fd5b81516001600160401b0380821115620000fa57620000fa620000b5565b604051601f8301601f19908116603f01168101908282118183101715620001255762000125620000b5565b816040528381526020925086838588010111156200014257600080fd5b600091505b8382101562000166578582018301518183018401529082019062000147565b600093810190920192909252949350505050565b600080600080608085870312156200019157600080fd5b6200019c8562000098565b9350620001ac6020860162000098565b60408601519093506001600160401b0380821115620001ca57600080fd5b620001d888838901620000cb565b93506060870151915080821115620001ef57600080fd5b50620001fe87828801620000cb565b91505092959194509250565b600181811c908216806200021f57607f821691505b6020821081036200024057634e487b7160e01b600052602260045260246000fd5b50919050565b601f8211156200029457600081815260208120601f850160051c810160208610156200026f5750805b601f850160051c820191505b8181101562000290578281556001016200027b565b5050505b505050565b81516001600160401b03811115620002b557620002b5620000b5565b620002cd81620002c684546200020a565b8462000246565b602080601f831160018114620003055760008415620002ec5750858301515b600019600386901b1c1916600185901b17855562000290565b600085815260208120601f198616915b82811015620003365788860151825594840194600190910190840162000315565b5085821015620003555787850151600019600388901b60f8161c191681555b5050505050600190811b01905550565b60805160a051610e38620003b46000396000818161015a015281816102c8015261051a0152600081816087015281816101d9015281816103530152818161040e01526105a50152610e386000f3fe6080604052600436106100705760003560e01c8063491606581161004e57806349160658146100fb578063519921b51461011b57806380d14b4a14610148578063843708131461017c57600080fd5b8063116191b6146100755780631a98b2e0146100c65780632796b030146100e8575b600080fd5b34801561008157600080fd5b506100a97f000000000000000000000000000000000000000000000000000000000000000081565b6040516001600160a01b0390911681526020015b60405180910390f35b3480156100d257600080fd5b506100e66100e136600461079d565b61018f565b005b6100e66100f6366004610877565b61028b565b34801561010757600080fd5b506100e6610116366004610890565b6103c4565b34801561012757600080fd5b5061013b61013636600461094a565b6104b7565b6040516100bd9190610a7d565b34801561015457600080fd5b506100a97f000000000000000000000000000000000000000000000000000000000000000081565b6100e661018a366004610a97565b6104e9565b600085856040516101a1929190610ab9565b6040519081900381207f1876eed900000000000000000000000000000000000000000000000000000000825291506001600160a01b037f00000000000000000000000000000000000000000000000000000000000000001690631876eed99061021e908e908e908e908e908e9089908d908d908d90600401610af2565b6020604051808303816000875af115801561023d573d6000803e3d6000fd5b505050506040513d601f19601f820116820180604052508101906102619190610b51565b61027e57604051631403112d60e21b815260040160405180910390fd5b5050505050505050505050565b60006102a960028333604051806020016040528060008152506104b7565b9050341561033c57604051630c93e3bb60e01b81526001600160a01b037f00000000000000000000000000000000000000000000000000000000000000001690630c93e3bb90349061030990309060009060019088903390600401610c17565b6000604051808303818588803b15801561032257600080fd5b505af1158015610336573d6000803e3d6000fd5b50505050505b604051631c92115f60e01b81526001600160a01b037f00000000000000000000000000000000000000000000000000000000000000001690631c92115f9061038e906000906001908690600401610c76565b600060405180830381600087803b1580156103a857600080fd5b505af11580156103bc573d6000803e3d6000fd5b505050505050565b600082826040516103d6929190610ab9565b6040519081900381207f5f6970c300000000000000000000000000000000000000000000000000000000825291506001600160a01b037f00000000000000000000000000000000000000000000000000000000000000001690635f6970c39061044d908b908b908b908b908b908990600401610cb9565b6020604051808303816000875af115801561046c573d6000803e3d6000fd5b505050506040513d601f19601f820116820180604052508101906104909190610b51565b6104ad57604051631403112d60e21b815260040160405180910390fd5b5050505050505050565b6060848484846040516020016104d09493929190610cfa565b6040516020818303038152906040529050949350505050565b60006104fb6001843361013686610617565b9050341561058e57604051630c93e3bb60e01b81526001600160a01b037f00000000000000000000000000000000000000000000000000000000000000001690630c93e3bb90349061055b90309060009060019088903390600401610c17565b6000604051808303818588803b15801561057457600080fd5b505af1158015610588573d6000803e3d6000fd5b50505050505b604051631c92115f60e01b81526001600160a01b037f00000000000000000000000000000000000000000000000000000000000000001690631c92115f906105e0906000906001908690600401610c76565b600060405180830381600087803b1580156105fa57600080fd5b505af115801561060e573d6000803e3d6000fd5b50505050505050565b60608160000361065a57505060408051808201909152600181527f3000000000000000000000000000000000000000000000000000000000000000602082015290565b8160005b8115610684578061066e81610d69565b915061067d9050600a83610d98565b915061065e565b60008167ffffffffffffffff81111561069f5761069f610934565b6040519080825280601f01601f1916602001820160405280156106c9576020820181803683370190505b5090505b841561074c576106de600183610dac565b91506106eb600a86610dc5565b6106f6906030610dd9565b60f81b81838151811061070b5761070b610dec565b60200101907effffffffffffffffffffffffffffffffffffffffffffffffffffffffffffff1916908160001a905350610745600a86610d98565b94506106cd565b949350505050565b60008083601f84011261076657600080fd5b50813567ffffffffffffffff81111561077e57600080fd5b60208301915083602082850101111561079657600080fd5b9250929050565b60008060008060008060008060008060c08b8d0312156107bc57600080fd5b8a35995060208b013567ffffffffffffffff808211156107db57600080fd5b6107e78e838f01610754565b909b50995060408d013591508082111561080057600080fd5b61080c8e838f01610754565b909950975060608d013591508082111561082557600080fd5b6108318e838f01610754565b909750955060808d013591508082111561084a57600080fd5b506108578d828e01610754565b9150809450508092505060a08b013590509295989b9194979a5092959850565b60006020828403121561088957600080fd5b5035919050565b60008060008060008060006080888a0312156108ab57600080fd5b87359650602088013567ffffffffffffffff808211156108ca57600080fd5b6108d68b838c01610754565b909850965060408a01359150808211156108ef57600080fd5b6108fb8b838c01610754565b909650945060608a013591508082111561091457600080fd5b506109218a828b01610754565b989b979a50959850939692959293505050565b634e487b7160e01b600052604160045260246000fd5b6000806000806080858703121561096057600080fd5b843593506020850135925060408501356001600160a01b038116811461098557600080fd5b9150606085013567ffffffffffffffff808211156109a257600080fd5b818701915087601f8301126109b657600080fd5b8135818111156109c8576109c8610934565b604051601f8201601f19908116603f011681019083821181831017156109f0576109f0610934565b816040528281528a6020848701011115610a0957600080fd5b82602086016020830137600060208483010152809550505050505092959194509250565b60005b83811015610a48578181015183820152602001610a30565b50506000910152565b60008151808452610a69816020860160208601610a2d565b601f01601f19169290920160200192915050565b602081526000610a906020830184610a51565b9392505050565b60008060408385031215610aaa57600080fd5b50508035926020909101359150565b8183823760009101908152919050565b81835281816020850137506000828201602090810191909152601f909101601f19169091010190565b89815260c060208201526000610b0c60c083018a8c610ac9565b8281036040840152610b1f81898b610ac9565b90508660608401528281036080840152610b3a818688610ac9565b9150508260a08301529a9950505050505050505050565b600060208284031215610b6357600080fd5b81518015158114610a9057600080fd5b8054600090600181811c9080831680610b8d57607f831692505b60208084108203610bae57634e487b7160e01b600052602260045260246000fd5b83885260208801828015610bc95760018114610bdf57610c0a565b60ff198716825285151560051b82019750610c0a565b60008981526020902060005b87811015610c0457815484820152908601908401610beb565b83019850505b5050505050505092915050565b60006001600160a01b03808816835260a06020840152610c3a60a0840188610b73565b8381036040850152610c4c8188610b73565b90508381036060850152610c608187610a51565b9250508084166080840152509695505050505050565b606081526000610c896060830186610b73565b8281036020840152610c9b8186610b73565b90508281036040840152610caf8185610a51565b9695505050505050565b868152608060208201526000610cd3608083018789610ac9565b8281036040840152610ce6818688610ac9565b915050826060830152979650505050505050565b8481528360208201527fffffffffffffffffffffffffffffffffffffffff0000000000000000000000008360601b16604082015260008251610d43816054850160208701610a2d565b9190910160540195945050505050565b634e487b7160e01b600052601160045260246000fd5b600060018201610d7b57610d7b610d53565b5060010190565b634e487b7160e01b600052601260045260246000fd5b600082610da757610da7610d82565b500490565b81810381811115610dbf57610dbf610d53565b92915050565b600082610dd457610dd4610d82565b500690565b80820180821115610dbf57610dbf610d53565b634e487b7160e01b600052603260045260246000fdfea2646970667358221220536e99113dfc99ec9803510e22af8dc31ef417083998294a4456ad2cb188b9a764736f6c63430008100033",
  "immutableReferences": {
    "241": [
      {
        "length": 32,
        "start": 135
      },
      {
        "length": 32,
        "start": 473
      },
      {
        "length": 32,
        "start": 851
      },
      {
        "length": 32,
        "start": 1038
      },
      {
        "length": 32,
        "start": 1445
      }
    ],
    "4772": [
      {
        "length": 32,
        "start": 346
      },
      {
        "length": 32,
        "start": 712
      },
      {
        "length": 32,
        "start": 1306
      }
    ]
  },
  "source": "// SPDX-License-Identifier: GPL-3.0\npragma solidity >=0.7.0 <0.9.0;\n\nimport {AxelarExecutable} from \"@axelar-network/axelar-gmp-sdk-solidity/contracts/executables/AxelarExecutable.sol\";\nimport {IAxelarGateway} from \"@axelar-network/axelar-gmp-sdk-solidity/contracts/interfaces/IAxelarGateway.sol\";\nimport {IAxelarGasService} from \"@axelar-network/axelar-gmp-sdk-solidity/contracts/interfaces/IAxelarGasService.sol\";\n\nimport \"@openzeppelin/contracts/utils/Strings.sol\";\n\n// message receiver @Buidl.sol\n\ncontract MessageSender is AxelarExecutable {\n    // topics\n    uint constant SUBSCRIBE = 1;\n    uint constant UN_SUBSCRIBE = 2;\n    /* course */\n    uint constant CREATE_COURSE = 3;\n    uint constant UPDATE_COURSE = 4;\n    /* user */\n    uint constant CREATE_USER = 5;\n    uint constant UN_LOCK_CREATOR = 6;\n    uint constant LOCK_CREATOR = 7;\n    /* staking */\n    uint constant STAKE = 8;\n    uint constant UN_STAKE = 9;\n    /* revenue */\n    uint constant CLAIM_REVENUE = 10;\n    /* category */\n    uint constant CREATE_CATEGORY = 11;\n\n    /* axelar */\n    IAxelarGasService public immutable gasReceiver;\n\n    /* destination */\n    string private destinationChain;\n    string private destinationAddress;\n\n    constructor(\n        address gateway_,\n        address gasReceiver_,\n        string memory destinationChain_,\n        string memory destinationAddress_\n    ) AxelarExecutable(gateway_) {\n        gasReceiver = IAxelarGasService(gasReceiver_);\n\n        destinationChain = destinationChain_;\n        destinationAddress = destinationAddress_;\n    }\n\n    /* @param id == the course id on bsc testnet */\n    function subscribe(uint id, uint256 nftId) public payable {\n        bytes memory payload = packMessage(\n            SUBSCRIBE,\n            id,\n            msg.sender,\n            Strings.toString(nftId)\n        );\n\n        if (msg.value > 0) {\n            gasReceiver.payNativeGasForContractCall{value: msg.value}(\n                address(this),\n                destinationChain,\n                destinationAddress,\n                payload,\n                msg.sender\n            );\n        }\n\n        gateway.callContract(destinationChain, destinationAddress, payload);\n    }\n\n    /* @param id == the course id on bsc testnet */\n    function unSubscribe(uint id) public payable {\n        bytes memory payload = packMessage(\n            UN_SUBSCRIBE,\n            id,\n            msg.sender,\n            \"\"\n        );\n\n        if (msg.value > 0) {\n            gasReceiver.payNativeGasForContractCall{value: msg.value}(\n                address(this),\n                destinationChain,\n                destinationAddress,\n                payload,\n                msg.sender\n            );\n        }\n\n        gateway.callContract(destinationChain, destinationAddress, payload);\n    }\n\n    function packMessage(\n        uint _topic,\n        uint _id,\n        address _sender,\n        string memory extra\n    ) public pure returns (bytes memory) {\n        return abi.encodePacked(_topic, _id, _sender, extra);\n    }\n}\n",
  "sourcePath": "C:\\Users\\Arogundade Ibrahim\\Documents\\web3\\Buidl\\contracts\\axelar\\MessageSender.sol",
  "compiler": {
    "name": "solc",
    "version": "0.8.16+commit.07a7930e.Emscripten.clang"
  },
  "schemaVersion": "3.4.10",
  "updatedAt": "2022-11-11T04:46:17.683Z",
  "networkType": "ethereum",
  "devdoc": {
    "kind": "dev",
    "methods": {},
    "version": 1
  },
  "userdoc": {
    "kind": "user",
    "methods": {},
    "version": 1
  }
}