{
  "contractName": "Message",
  "abi": [
    {
      "inputs": [
        {
          "internalType": "uint256",
          "name": "_topic",
          "type": "uint256"
        },
        {
          "internalType": "uint256",
          "name": "_id",
          "type": "uint256"
        },
        {
          "internalType": "address",
          "name": "_sender",
          "type": "address"
        },
        {
          "internalType": "string",
          "name": "extra",
          "type": "string"
        }
      ],
      "name": "packMessage",
      "outputs": [
        {
          "internalType": "bytes",
          "name": "",
          "type": "bytes"
        }
      ],
      "stateMutability": "pure",
      "type": "function",
      "constant": true
    },
    {
      "inputs": [
        {
          "internalType": "bytes",
          "name": "_data",
          "type": "bytes"
        }
      ],
      "name": "unPackMessage",
      "outputs": [
        {
          "internalType": "uint256",
          "name": "_topic",
          "type": "uint256"
        },
        {
          "internalType": "uint256",
          "name": "_id",
          "type": "uint256"
        },
        {
          "internalType": "address",
          "name": "_sender",
          "type": "address"
        },
        {
          "internalType": "string",
          "name": "extra",
          "type": "string"
        }
      ],
      "stateMutability": "pure",
      "type": "function",
      "constant": true
    }
  ],
  "bytecode": "0x61048661003a600b82828239805160001a60731461002d57634e487b7160e01b600052600060045260246000fd5b30600052607381538281f3fe73000000000000000000000000000000000000000030146080604052600436106100405760003560e01c8063519921b514610045578063ba43ec861461006e575b600080fd5b6100586100533660046101e2565b610091565b60405161006591906102a9565b60405180910390f35b61008161007c3660046102c3565b6100c3565b6040516100659493929190610314565b6060848484846040516020016100aa9493929190610359565b6040516020818303038152906040529050949350505050565b60008060006060600080600080888060200190518101906100e491906103b2565b929c919b50995090975095505050505050565b73ffffffffffffffffffffffffffffffffffffffff8116811461011957600080fd5b50565b7f4e487b7100000000000000000000000000000000000000000000000000000000600052604160045260246000fd5b604051601f8201601f1916810167ffffffffffffffff811182821017156101745761017461011c565b604052919050565b600067ffffffffffffffff8211156101965761019661011c565b50601f01601f191660200190565b60006101b76101b28461017c565b61014b565b90508281528383830111156101cb57600080fd5b828260208301376000602084830101529392505050565b600080600080608085870312156101f857600080fd5b84359350602085013592506040850135610211816100f7565b9150606085013567ffffffffffffffff81111561022d57600080fd5b8501601f8101871361023e57600080fd5b61024d878235602084016101a4565b91505092959194509250565b60005b8381101561027457818101518382015260200161025c565b50506000910152565b60008151808452610295816020860160208601610259565b601f01601f19169290920160200192915050565b6020815260006102bc602083018461027d565b9392505050565b6000602082840312156102d557600080fd5b813567ffffffffffffffff8111156102ec57600080fd5b8201601f810184136102fd57600080fd5b61030c848235602084016101a4565b949350505050565b84815283602082015273ffffffffffffffffffffffffffffffffffffffff8316604082015260806060820152600061034f608083018461027d565b9695505050505050565b8481528360208201527fffffffffffffffffffffffffffffffffffffffff0000000000000000000000008360601b166040820152600082516103a2816054850160208701610259565b9190910160540195945050505050565b600080600080608085870312156103c857600080fd5b845193506020850151925060408501516103e1816100f7565b606086015190925067ffffffffffffffff8111156103fe57600080fd5b8501601f8101871361040f57600080fd5b805161041d6101b28261017c565b81815288602083850101111561043257600080fd5b610443826020830160208601610259565b959894975092955050505056fea264697066735822122068a5e9232dbe57dae04effcbb71274beac0ef5b7bf6ad400bfeb24e5d8c08a4864736f6c63430008100033",
  "immutableReferences": {},
  "source": "// SPDX-License-Identifier: GPL-3.0\npragma solidity >=0.7.0 <0.9.0;\n\nimport \"@openzeppelin/contracts/utils/Strings.sol\";\n\nlibrary Message {\n    /* all messaging topics */\n    // ==== //\n    /* subscription */\n    uint constant SUBSCRIBE = 1;\n    uint constant UN_SUBSCRIBE = 2;\n    /* course */\n    uint constant CREATE_COURSE = 3;\n    uint constant UPDATE_COURSE = 4;\n    /* user */\n    uint constant CREATE_USER = 5;\n    uint constant UN_LOCK_CREATOR = 6;\n    uint constant LOCK_CREATOR = 7;\n    /* staking */\n    uint constant STAKE = 8;\n    uint constant UN_STAKE = 9;\n    /* revenue */\n    uint constant CLAIM_REVENUE = 10;\n    /* category */\n    uint constant CREATE_CATEGORY = 11;\n\n    /* create a new message */\n    function packMessage(\n        uint _topic,\n        uint _id,\n        address _sender,\n        string memory extra\n    ) public pure returns (bytes memory) {\n        return abi.encodePacked(_topic, _id, _sender, extra);\n    }\n\n    /* reveal a message */\n    function unPackMessage(bytes memory _data)\n        public\n        pure\n        returns (\n            uint _topic,\n            uint _id,\n            address _sender,\n            string memory extra\n        )\n    {\n        (uint _topic, uint _id, address _sender, string memory extra) = abi\n            .decode(_data, (uint, uint, address, string));\n        return (_topic, _id, _sender, extra);\n    }\n}\n",
  "sourcePath": "C:\\Users\\Arogundade Ibrahim\\Documents\\web3\\Buidl\\contracts\\axelar\\Message.sol",
  "compiler": {
    "name": "solc",
    "version": "0.8.16+commit.07a7930e.Emscripten.clang"
  },
  "schemaVersion": "3.4.10",
  "updatedAt": "2022-11-10T06:13:56.191Z",
  "networkType": "ethereum",
  "devdoc": {
    "kind": "dev",
    "methods": {},
    "version": 1
  },
  "userdoc": {
    "kind": "user",
    "methods": {},
    "version": 1
  }
}