{
  "contractName": "Staking",
  "abi": [
    {
      "anonymous": false,
      "inputs": [
        {
          "indexed": false,
          "internalType": "address",
          "name": "from",
          "type": "address"
        },
        {
          "indexed": false,
          "internalType": "uint256",
          "name": "amount",
          "type": "uint256"
        }
      ],
      "name": "StakingStaked",
      "type": "event"
    },
    {
      "anonymous": false,
      "inputs": [
        {
          "indexed": false,
          "internalType": "address",
          "name": "from",
          "type": "address"
        }
      ],
      "name": "StakingUnStaked",
      "type": "event"
    },
    {
      "inputs": [
        {
          "internalType": "address",
          "name": "",
          "type": "address"
        }
      ],
      "name": "stakes",
      "outputs": [
        {
          "internalType": "uint256",
          "name": "amount",
          "type": "uint256"
        },
        {
          "internalType": "uint256",
          "name": "time",
          "type": "uint256"
        },
        {
          "internalType": "uint256",
          "name": "duration",
          "type": "uint256"
        },
        {
          "internalType": "int96",
          "name": "rewardFlowRate",
          "type": "int96"
        }
      ],
      "stateMutability": "view",
      "type": "function",
      "constant": true
    },
    {
      "inputs": [
        {
          "internalType": "uint256",
          "name": "amount",
          "type": "uint256"
        },
        {
          "internalType": "address",
          "name": "user",
          "type": "address"
        }
      ],
      "name": "hasStaked",
      "outputs": [
        {
          "internalType": "bool",
          "name": "",
          "type": "bool"
        }
      ],
      "stateMutability": "view",
      "type": "function",
      "constant": true
    },
    {
      "inputs": [
        {
          "internalType": "address",
          "name": "from",
          "type": "address"
        },
        {
          "internalType": "uint256",
          "name": "amount",
          "type": "uint256"
        },
        {
          "internalType": "uint256",
          "name": "duration",
          "type": "uint256"
        },
        {
          "internalType": "int96",
          "name": "rewardFlowRate",
          "type": "int96"
        }
      ],
      "name": "stake",
      "outputs": [],
      "stateMutability": "nonpayable",
      "type": "function"
    },
    {
      "inputs": [
        {
          "internalType": "address",
          "name": "from",
          "type": "address"
        }
      ],
      "name": "claim",
      "outputs": [],
      "stateMutability": "nonpayable",
      "type": "function"
    }
  ],
  "bytecode": "0x608060405234801561001057600080fd5b50610549806100206000396000f3fe608060405234801561001057600080fd5b506004361061004c5760003560e01c806316934fc4146100515780631e83409a146100b1578063ab84bb78146100c6578063de360715146100d9575b600080fd5b61008961005f36600461043d565b600060208190529081526040902080546001820154600283015460039093015491929091600b0b84565b60408051948552602085019390935291830152600b0b60608201526080015b60405180910390f35b6100c46100bf36600461043d565b6100fc565b005b6100c46100d436600461045f565b610293565b6100ec6100e73660046104ad565b6103e4565b60405190151581526020016100a8565b73ffffffffffffffffffffffffffffffffffffffff81166000908152602081815260408083208151608081018352815480825260018301549482019490945260028201549281019290925260030154600b0b606082015291036101a65760405162461bcd60e51b815260206004820152600760248201527f216578697374730000000000000000000000000000000000000000000000000060448201526064015b60405180910390fd5b6000816040015182602001516101bc91906104d9565b90508042101561020e5760405162461bcd60e51b815260206004820152600760248201527f746f6f6561727900000000000000000000000000000000000000000000000000604482015260640161019d565b73ffffffffffffffffffffffffffffffffffffffff8316600081815260208181526040808320838155600181018490556002810193909355600390920180546bffffffffffffffffffffffff1916905590519182527fef16b1759834bc37bcd5ea73d5d84eb422053cce333dfbec59c881b5f8a4ed55910160405180910390a1505050565b600083116102e35760405162461bcd60e51b815260206004820152601260248201527f217374616b655f7a65726f5f746f6b656e730000000000000000000000000000604482015260640161019d565b6040805160808101825273ffffffffffffffffffffffffffffffffffffffff861660009081526020819052919091205481906103209086906104d9565b8152426020808301919091526040808301869052600b85900b60609384015273ffffffffffffffffffffffffffffffffffffffff88166000818152808452829020855181558584015160018201558583015160028201559490930151600390940180546bffffffffffffffffffffffff19166bffffffffffffffffffffffff90951694909417909355825191825281018590527fe5d972642b14bd3ecf400bd751200d8af1e587e1725c8bd5d96564b9f664958b910160405180910390a150505050565b73ffffffffffffffffffffffffffffffffffffffff81166000908152602081905260409020548211155b92915050565b803573ffffffffffffffffffffffffffffffffffffffff8116811461043857600080fd5b919050565b60006020828403121561044f57600080fd5b61045882610414565b9392505050565b6000806000806080858703121561047557600080fd5b61047e85610414565b93506020850135925060408501359150606085013580600b0b81146104a257600080fd5b939692955090935050565b600080604083850312156104c057600080fd5b823591506104d060208401610414565b90509250929050565b8082018082111561040e577f4e487b7100000000000000000000000000000000000000000000000000000000600052601160045260246000fdfea2646970667358221220da86ed8ffe6f50310d47e554090d634e35f735d0a97ec01ed261e3b50d31e72d64736f6c63430008100033",
  "immutableReferences": {},
  "source": "// SPDX-License-Identifier: GPL-3.0\npragma solidity >=0.7.0 <0.9.0;\n\nimport {Models} from \"./../base/Models.sol\";\n\ncontract Staking {\n    mapping(address => Models.Stake) public stakes;\n\n    function hasStaked(uint256 amount, address user) public view returns (bool) {\n        return stakes[user].amount >= amount;\n    }\n\n    function stake(\n        address from,\n        uint256 amount,\n        uint duration,\n        int96 rewardFlowRate\n    ) external {\n        require(amount > 0, \"!stake_zero_tokens\");\n\n        stakes[from] = Models.Stake(\n            stakes[from].amount + amount,\n            block.timestamp,\n            duration,\n            rewardFlowRate\n        );\n\n        emit StakingStaked(from, amount);\n    }\n\n    function claim(address from) external {\n        Models.Stake memory _stake = stakes[from];\n        require(_stake.amount != 0, \"!exists\");\n\n        uint unlockTime = (_stake.time + _stake.duration);\n        require(block.timestamp >= unlockTime, \"tooeary\");\n\n        delete stakes[from];\n\n        emit StakingUnStaked(from);\n    }\n\n    // == events == //\n    event StakingStaked(address from, uint256 amount);\n    event StakingUnStaked(address from);\n}\n",
  "sourcePath": "C:\\Users\\Arogundade Ibrahim\\Documents\\web3\\Buidl\\contracts\\buidl\\Staking.sol",
  "compiler": {
    "name": "solc",
    "version": "0.8.16+commit.07a7930e.Emscripten.clang"
  },
  "schemaVersion": "3.4.10",
  "updatedAt": "2022-11-10T05:48:52.307Z",
  "networkType": "ethereum",
  "devdoc": {
    "kind": "dev",
    "methods": {},
    "version": 1
  },
  "userdoc": {
    "kind": "user",
    "methods": {},
    "version": 1
  }
}