{
  "contractName": "Test",
  "abi": [
    {
      "inputs": [],
      "name": "testAddress",
      "outputs": [
        {
          "internalType": "address",
          "name": "",
          "type": "address"
        }
      ],
      "stateMutability": "view",
      "type": "function",
      "constant": true
    },
    {
      "inputs": [],
      "name": "testTopic",
      "outputs": [
        {
          "internalType": "uint256",
          "name": "",
          "type": "uint256"
        }
      ],
      "stateMutability": "view",
      "type": "function",
      "constant": true
    },
    {
      "inputs": [
        {
          "internalType": "uint256",
          "name": "id",
          "type": "uint256"
        }
      ],
      "name": "input",
      "outputs": [],
      "stateMutability": "nonpayable",
      "type": "function"
    },
    {
      "inputs": [
        {
          "internalType": "bytes",
          "name": "payload",
          "type": "bytes"
        }
      ],
      "name": "output",
      "outputs": [],
      "stateMutability": "nonpayable",
      "type": "function"
    },
    {
      "inputs": [
        {
          "internalType": "uint256",
          "name": "_topic",
          "type": "uint256"
        },
        {
          "internalType": "bytes",
          "name": "_data",
          "type": "bytes"
        }
      ],
      "name": "packMessage",
      "outputs": [
        {
          "internalType": "bytes",
          "name": "",
          "type": "bytes"
        }
      ],
      "stateMutability": "pure",
      "type": "function",
      "constant": true
    },
    {
      "inputs": [
        {
          "internalType": "bytes",
          "name": "_data",
          "type": "bytes"
        }
      ],
      "name": "unPackMessage",
      "outputs": [
        {
          "internalType": "uint256",
          "name": "",
          "type": "uint256"
        },
        {
          "internalType": "bytes",
          "name": "",
          "type": "bytes"
        }
      ],
      "stateMutability": "pure",
      "type": "function",
      "constant": true
    }
  ],
  "bytecode": "0x608060405234801561001057600080fd5b506106a4806100206000396000f3fe608060405234801561001057600080fd5b50600436106100725760003560e01c806358323f381161005057806358323f38146100ed578063ba43ec861461010d578063ce6e1c4e1461012e57600080fd5b806309ce2d25146100775780630a67065a14610093578063262330b4146100a8575b600080fd5b61008060005481565b6040519081526020015b60405180910390f35b6100a66100a1366004610428565b610141565b005b6001546100c89073ffffffffffffffffffffffffffffffffffffffff1681565b60405173ffffffffffffffffffffffffffffffffffffffff909116815260200161008a565b6101006100fb366004610465565b61022d565b60405161008a91906104fc565b61012061011b366004610428565b610259565b60405161008a929190610516565b6100a661013c36600461052f565b610280565b60008073__Message_______________________________63ba43ec86846040518263ffffffff1660e01b815260040161017b91906104fc565b600060405180830381865af4158015610198573d6000803e3d6000fd5b505050506040513d6000823e601f3d908101601f191682016040526101c0919081019061058d565b91509150600080828060200190518101906101db91906105ca565b6000959095555050600180547fffffffffffffffffffffffff00000000000000000000000000000000000000001673ffffffffffffffffffffffffffffffffffffffff90941693909317909255505050565b60608282604051602001610242929190610613565b604051602081830303815290604052905092915050565b6000606060008084806020019051810190610274919061058d565b90969095509350505050565b6040805160208101839052338183015281518082038301815260608201928390527f58323f380000000000000000000000000000000000000000000000000000000090925260009073__Message_______________________________906358323f38906102f5906002908690606401610516565b600060405180830381865af4158015610312573d6000803e3d6000fd5b505050506040513d6000823e601f3d908101601f1916820160405261033a9190810190610639565b905061034581610141565b505050565b7f4e487b7100000000000000000000000000000000000000000000000000000000600052604160045260246000fd5b604051601f8201601f1916810167ffffffffffffffff811182821017156103a2576103a261034a565b604052919050565b600067ffffffffffffffff8211156103c4576103c461034a565b50601f01601f191660200190565b600082601f8301126103e357600080fd5b81356103f66103f1826103aa565b610379565b81815284602083860101111561040b57600080fd5b816020850160208301376000918101602001919091529392505050565b60006020828403121561043a57600080fd5b813567ffffffffffffffff81111561045157600080fd5b61045d848285016103d2565b949350505050565b6000806040838503121561047857600080fd5b82359150602083013567ffffffffffffffff81111561049657600080fd5b6104a2858286016103d2565b9150509250929050565b60005b838110156104c75781810151838201526020016104af565b50506000910152565b600081518084526104e88160208601602086016104ac565b601f01601f19169290920160200192915050565b60208152600061050f60208301846104d0565b9392505050565b82815260406020820152600061045d60408301846104d0565b60006020828403121561054157600080fd5b5035919050565b600082601f83011261055957600080fd5b81516105676103f1826103aa565b81815284602083860101111561057c57600080fd5b61045d8260208301602087016104ac565b600080604083850312156105a057600080fd5b82519150602083015167ffffffffffffffff8111156105be57600080fd5b6104a285828601610548565b600080604083850312156105dd57600080fd5b82519150602083015173ffffffffffffffffffffffffffffffffffffffff8116811461060857600080fd5b809150509250929050565b8281526000825161062b8160208501602087016104ac565b919091016020019392505050565b60006020828403121561064b57600080fd5b815167ffffffffffffffff81111561066257600080fd5b61045d8482850161054856fea2646970667358221220a76d1c1ee5b7e82f0a77c6920b34b4a6a79654d675b8a04f13750d50450aafc864736f6c63430008100033",
  "immutableReferences": {},
  "source": "// SPDX-License-Identifier: GPL-3.0\npragma solidity >=0.7.0 <0.9.0;\n\nimport {Message} from \"./axelar/Message.sol\";\n\ncontract Test {\n\n    uint public testTopic;\n    address public testAddress;\n\n    function input(uint id) public {\n        bytes memory message = abi.encode(id, msg.sender);\n        bytes memory payload = Message.packMessage(\n            Message.UN_SUBSCRIBE,\n            message\n        );\n\n        output(payload);\n    }\n\n    function output(bytes memory payload) public {\n        (uint _topic, bytes memory _payload) = Message.unPackMessage(payload);\n        (uint courseId, address subscriber) = abi.decode(\n                _payload,\n                (uint, address)\n            );\n        testTopic = _topic;\n        testAddress = subscriber;\n    }\n\n    /* create a new message */\n    function packMessage(uint _topic, bytes memory _data)\n        public\n        pure\n        returns (bytes memory)\n    {\n        return abi.encodePacked(_topic, _data);\n    }\n\n    /* reveal a message */\n    function unPackMessage(bytes memory _data)\n        public\n        pure\n        returns (uint, bytes memory)\n    {\n        (uint topic, bytes memory data) = abi.decode(_data, (uint, bytes));\n        return (topic, data);\n    }\n}\n",
  "sourcePath": "C:\\Users\\Arogundade Ibrahim\\Documents\\web3\\Buidl\\contracts\\Test.sol",
  "compiler": {
    "name": "solc",
    "version": "0.8.16+commit.07a7930e.Emscripten.clang"
  },
  "schemaVersion": "3.4.10",
  "updatedAt": "2022-11-09T18:55:11.282Z",
  "networkType": "ethereum",
  "devdoc": {
    "kind": "dev",
    "methods": {},
    "version": 1
  },
  "userdoc": {
    "kind": "user",
    "methods": {},
    "version": 1
  }
}